{
  "_format": "hh-sol-artifact-1",
  "contractName": "Keys",
  "sourceName": "contracts/data/Keys.sol",
  "abi": [
    {
      "inputs": [],
      "name": "ACCOUNT_DEPOSIT_LIST",
      "outputs": [
        {
          "internalType": "bytes32",
          "name": "",
          "type": "bytes32"
        }
      ],
      "stateMutability": "view",
      "type": "function"
    },
    {
      "inputs": [],
      "name": "ACCOUNT_ORDER_LIST",
      "outputs": [
        {
          "internalType": "bytes32",
          "name": "",
          "type": "bytes32"
        }
      ],
      "stateMutability": "view",
      "type": "function"
    },
    {
      "inputs": [],
      "name": "ACCOUNT_POSITION_LIST",
      "outputs": [
        {
          "internalType": "bytes32",
          "name": "",
          "type": "bytes32"
        }
      ],
      "stateMutability": "view",
      "type": "function"
    },
    {
      "inputs": [],
      "name": "ACCOUNT_WITHDRAWAL_LIST",
      "outputs": [
        {
          "internalType": "bytes32",
          "name": "",
          "type": "bytes32"
        }
      ],
      "stateMutability": "view",
      "type": "function"
    },
    {
      "inputs": [],
      "name": "AFFILIATE_REWARD",
      "outputs": [
        {
          "internalType": "bytes32",
          "name": "",
          "type": "bytes32"
        }
      ],
      "stateMutability": "view",
      "type": "function"
    },
    {
      "inputs": [],
      "name": "BORROWING_EXPONENT_FACTOR",
      "outputs": [
        {
          "internalType": "bytes32",
          "name": "",
          "type": "bytes32"
        }
      ],
      "stateMutability": "view",
      "type": "function"
    },
    {
      "inputs": [],
      "name": "BORROWING_FACTOR",
      "outputs": [
        {
          "internalType": "bytes32",
          "name": "",
          "type": "bytes32"
        }
      ],
      "stateMutability": "view",
      "type": "function"
    },
    {
      "inputs": [],
      "name": "BORROWING_FEE_RECEIVER_FACTOR",
      "outputs": [
        {
          "internalType": "bytes32",
          "name": "",
          "type": "bytes32"
        }
      ],
      "stateMutability": "view",
      "type": "function"
    },
    {
      "inputs": [],
      "name": "CANCEL_DEPOSIT_FEATURE_DISABLED",
      "outputs": [
        {
          "internalType": "bytes32",
          "name": "",
          "type": "bytes32"
        }
      ],
      "stateMutability": "view",
      "type": "function"
    },
    {
      "inputs": [],
      "name": "CANCEL_ORDER_FEATURE_DISABLED",
      "outputs": [
        {
          "internalType": "bytes32",
          "name": "",
          "type": "bytes32"
        }
      ],
      "stateMutability": "view",
      "type": "function"
    },
    {
      "inputs": [],
      "name": "CANCEL_WITHDRAWAL_FEATURE_DISABLED",
      "outputs": [
        {
          "internalType": "bytes32",
          "name": "",
          "type": "bytes32"
        }
      ],
      "stateMutability": "view",
      "type": "function"
    },
    {
      "inputs": [],
      "name": "CLAIMABLE_COLLATERAL_AMOUNT",
      "outputs": [
        {
          "internalType": "bytes32",
          "name": "",
          "type": "bytes32"
        }
      ],
      "stateMutability": "view",
      "type": "function"
    },
    {
      "inputs": [],
      "name": "CLAIMABLE_COLLATERAL_FACTOR",
      "outputs": [
        {
          "internalType": "bytes32",
          "name": "",
          "type": "bytes32"
        }
      ],
      "stateMutability": "view",
      "type": "function"
    },
    {
      "inputs": [],
      "name": "CLAIMABLE_COLLATERAL_TIME_DIVISOR",
      "outputs": [
        {
          "internalType": "bytes32",
          "name": "",
          "type": "bytes32"
        }
      ],
      "stateMutability": "view",
      "type": "function"
    },
    {
      "inputs": [],
      "name": "CLAIMABLE_FEE_AMOUNT",
      "outputs": [
        {
          "internalType": "bytes32",
          "name": "",
          "type": "bytes32"
        }
      ],
      "stateMutability": "view",
      "type": "function"
    },
    {
      "inputs": [],
      "name": "CLAIMABLE_FUNDING_AMOUNT",
      "outputs": [
        {
          "internalType": "bytes32",
          "name": "",
          "type": "bytes32"
        }
      ],
      "stateMutability": "view",
      "type": "function"
    },
    {
      "inputs": [],
      "name": "CLAIMABLE_FUNDING_AMOUNT_PER_SIZE",
      "outputs": [
        {
          "internalType": "bytes32",
          "name": "",
          "type": "bytes32"
        }
      ],
      "stateMutability": "view",
      "type": "function"
    },
    {
      "inputs": [],
      "name": "CLAIMABLE_UI_FEE_AMOUNT",
      "outputs": [
        {
          "internalType": "bytes32",
          "name": "",
          "type": "bytes32"
        }
      ],
      "stateMutability": "view",
      "type": "function"
    },
    {
      "inputs": [],
      "name": "CLAIMED_COLLATERAL_AMOUNT",
      "outputs": [
        {
          "internalType": "bytes32",
          "name": "",
          "type": "bytes32"
        }
      ],
      "stateMutability": "view",
      "type": "function"
    },
    {
      "inputs": [],
      "name": "CLAIM_AFFILIATE_REWARDS_FEATURE_DISABLED",
      "outputs": [
        {
          "internalType": "bytes32",
          "name": "",
          "type": "bytes32"
        }
      ],
      "stateMutability": "view",
      "type": "function"
    },
    {
      "inputs": [],
      "name": "CLAIM_COLLATERAL_FEATURE_DISABLED",
      "outputs": [
        {
          "internalType": "bytes32",
          "name": "",
          "type": "bytes32"
        }
      ],
      "stateMutability": "view",
      "type": "function"
    },
    {
      "inputs": [],
      "name": "CLAIM_FUNDING_FEES_FEATURE_DISABLED",
      "outputs": [
        {
          "internalType": "bytes32",
          "name": "",
          "type": "bytes32"
        }
      ],
      "stateMutability": "view",
      "type": "function"
    },
    {
      "inputs": [],
      "name": "CLAIM_UI_FEES_FEATURE_DISABLED",
      "outputs": [
        {
          "internalType": "bytes32",
          "name": "",
          "type": "bytes32"
        }
      ],
      "stateMutability": "view",
      "type": "function"
    },
    {
      "inputs": [],
      "name": "COLLATERAL_SUM",
      "outputs": [
        {
          "internalType": "bytes32",
          "name": "",
          "type": "bytes32"
        }
      ],
      "stateMutability": "view",
      "type": "function"
    },
    {
      "inputs": [],
      "name": "CREATE_DEPOSIT_FEATURE_DISABLED",
      "outputs": [
        {
          "internalType": "bytes32",
          "name": "",
          "type": "bytes32"
        }
      ],
      "stateMutability": "view",
      "type": "function"
    },
    {
      "inputs": [],
      "name": "CREATE_ORDER_FEATURE_DISABLED",
      "outputs": [
        {
          "internalType": "bytes32",
          "name": "",
          "type": "bytes32"
        }
      ],
      "stateMutability": "view",
      "type": "function"
    },
    {
      "inputs": [],
      "name": "CREATE_WITHDRAWAL_FEATURE_DISABLED",
      "outputs": [
        {
          "internalType": "bytes32",
          "name": "",
          "type": "bytes32"
        }
      ],
      "stateMutability": "view",
      "type": "function"
    },
    {
      "inputs": [],
      "name": "CUMULATIVE_BORROWING_FACTOR",
      "outputs": [
        {
          "internalType": "bytes32",
          "name": "",
          "type": "bytes32"
        }
      ],
      "stateMutability": "view",
      "type": "function"
    },
    {
      "inputs": [],
      "name": "CUMULATIVE_BORROWING_FACTOR_UPDATED_AT",
      "outputs": [
        {
          "internalType": "bytes32",
          "name": "",
          "type": "bytes32"
        }
      ],
      "stateMutability": "view",
      "type": "function"
    },
    {
      "inputs": [],
      "name": "DECREASE_ORDER_GAS_LIMIT",
      "outputs": [
        {
          "internalType": "bytes32",
          "name": "",
          "type": "bytes32"
        }
      ],
      "stateMutability": "view",
      "type": "function"
    },
    {
      "inputs": [],
      "name": "DEPOSIT_FEE_TYPE",
      "outputs": [
        {
          "internalType": "bytes32",
          "name": "",
          "type": "bytes32"
        }
      ],
      "stateMutability": "view",
      "type": "function"
    },
    {
      "inputs": [],
      "name": "DEPOSIT_GAS_LIMIT",
      "outputs": [
        {
          "internalType": "bytes32",
          "name": "",
          "type": "bytes32"
        }
      ],
      "stateMutability": "view",
      "type": "function"
    },
    {
      "inputs": [],
      "name": "DEPOSIT_LIST",
      "outputs": [
        {
          "internalType": "bytes32",
          "name": "",
          "type": "bytes32"
        }
      ],
      "stateMutability": "view",
      "type": "function"
    },
    {
      "inputs": [],
      "name": "ESTIMATED_GAS_FEE_BASE_AMOUNT",
      "outputs": [
        {
          "internalType": "bytes32",
          "name": "",
          "type": "bytes32"
        }
      ],
      "stateMutability": "view",
      "type": "function"
    },
    {
      "inputs": [],
      "name": "ESTIMATED_GAS_FEE_MULTIPLIER_FACTOR",
      "outputs": [
        {
          "internalType": "bytes32",
          "name": "",
          "type": "bytes32"
        }
      ],
      "stateMutability": "view",
      "type": "function"
    },
    {
      "inputs": [],
      "name": "EXECUTE_ADL_FEATURE_DISABLED",
      "outputs": [
        {
          "internalType": "bytes32",
          "name": "",
          "type": "bytes32"
        }
      ],
      "stateMutability": "view",
      "type": "function"
    },
    {
      "inputs": [],
      "name": "EXECUTE_DEPOSIT_FEATURE_DISABLED",
      "outputs": [
        {
          "internalType": "bytes32",
          "name": "",
          "type": "bytes32"
        }
      ],
      "stateMutability": "view",
      "type": "function"
    },
    {
      "inputs": [],
      "name": "EXECUTE_ORDER_FEATURE_DISABLED",
      "outputs": [
        {
          "internalType": "bytes32",
          "name": "",
          "type": "bytes32"
        }
      ],
      "stateMutability": "view",
      "type": "function"
    },
    {
      "inputs": [],
      "name": "EXECUTE_WITHDRAWAL_FEATURE_DISABLED",
      "outputs": [
        {
          "internalType": "bytes32",
          "name": "",
          "type": "bytes32"
        }
      ],
      "stateMutability": "view",
      "type": "function"
    },
    {
      "inputs": [],
      "name": "EXECUTION_GAS_FEE_BASE_AMOUNT",
      "outputs": [
        {
          "internalType": "bytes32",
          "name": "",
          "type": "bytes32"
        }
      ],
      "stateMutability": "view",
      "type": "function"
    },
    {
      "inputs": [],
      "name": "EXECUTION_GAS_FEE_MULTIPLIER_FACTOR",
      "outputs": [
        {
          "internalType": "bytes32",
          "name": "",
          "type": "bytes32"
        }
      ],
      "stateMutability": "view",
      "type": "function"
    },
    {
      "inputs": [],
      "name": "FEE_BATCH_LIST",
      "outputs": [
        {
          "internalType": "bytes32",
          "name": "",
          "type": "bytes32"
        }
      ],
      "stateMutability": "view",
      "type": "function"
    },
    {
      "inputs": [],
      "name": "FEE_DISTRIBUTOR_SWAP_FEE_BATCH",
      "outputs": [
        {
          "internalType": "bytes32",
          "name": "",
          "type": "bytes32"
        }
      ],
      "stateMutability": "view",
      "type": "function"
    },
    {
      "inputs": [],
      "name": "FEE_DISTRIBUTOR_SWAP_TOKEN_INDEX",
      "outputs": [
        {
          "internalType": "bytes32",
          "name": "",
          "type": "bytes32"
        }
      ],
      "stateMutability": "view",
      "type": "function"
    },
    {
      "inputs": [],
      "name": "FEE_RECEIVER",
      "outputs": [
        {
          "internalType": "bytes32",
          "name": "",
          "type": "bytes32"
        }
      ],
      "stateMutability": "view",
      "type": "function"
    },
    {
      "inputs": [],
      "name": "FUNDING_DECREASE_FACTOR_PER_SECOND",
      "outputs": [
        {
          "internalType": "bytes32",
          "name": "",
          "type": "bytes32"
        }
      ],
      "stateMutability": "view",
      "type": "function"
    },
    {
      "inputs": [],
      "name": "FUNDING_EXPONENT_FACTOR",
      "outputs": [
        {
          "internalType": "bytes32",
          "name": "",
          "type": "bytes32"
        }
      ],
      "stateMutability": "view",
      "type": "function"
    },
    {
      "inputs": [],
      "name": "FUNDING_FACTOR",
      "outputs": [
        {
          "internalType": "bytes32",
          "name": "",
          "type": "bytes32"
        }
      ],
      "stateMutability": "view",
      "type": "function"
    },
    {
      "inputs": [],
      "name": "FUNDING_FEE_AMOUNT_PER_SIZE",
      "outputs": [
        {
          "internalType": "bytes32",
          "name": "",
          "type": "bytes32"
        }
      ],
      "stateMutability": "view",
      "type": "function"
    },
    {
      "inputs": [],
      "name": "FUNDING_INCREASE_FACTOR_PER_SECOND",
      "outputs": [
        {
          "internalType": "bytes32",
          "name": "",
          "type": "bytes32"
        }
      ],
      "stateMutability": "view",
      "type": "function"
    },
    {
      "inputs": [],
      "name": "FUNDING_UPDATED_AT",
      "outputs": [
        {
          "internalType": "bytes32",
          "name": "",
          "type": "bytes32"
        }
      ],
      "stateMutability": "view",
      "type": "function"
    },
    {
      "inputs": [],
      "name": "HOLDING_ADDRESS",
      "outputs": [
        {
          "internalType": "bytes32",
          "name": "",
          "type": "bytes32"
        }
      ],
      "stateMutability": "view",
      "type": "function"
    },
    {
      "inputs": [],
      "name": "INCREASE_ORDER_GAS_LIMIT",
      "outputs": [
        {
          "internalType": "bytes32",
          "name": "",
          "type": "bytes32"
        }
      ],
      "stateMutability": "view",
      "type": "function"
    },
    {
      "inputs": [],
      "name": "IN_STRICT_PRICE_FEED_MODE",
      "outputs": [
        {
          "internalType": "bytes32",
          "name": "",
          "type": "bytes32"
        }
      ],
      "stateMutability": "view",
      "type": "function"
    },
    {
      "inputs": [],
      "name": "IS_ADL_ENABLED",
      "outputs": [
        {
          "internalType": "bytes32",
          "name": "",
          "type": "bytes32"
        }
      ],
      "stateMutability": "view",
      "type": "function"
    },
    {
      "inputs": [],
      "name": "IS_MARKET_DISABLED",
      "outputs": [
        {
          "internalType": "bytes32",
          "name": "",
          "type": "bytes32"
        }
      ],
      "stateMutability": "view",
      "type": "function"
    },
    {
      "inputs": [],
      "name": "LATEST_ADL_BLOCK",
      "outputs": [
        {
          "internalType": "bytes32",
          "name": "",
          "type": "bytes32"
        }
      ],
      "stateMutability": "view",
      "type": "function"
    },
    {
      "inputs": [],
      "name": "MARKET_LIST",
      "outputs": [
        {
          "internalType": "bytes32",
          "name": "",
          "type": "bytes32"
        }
      ],
      "stateMutability": "view",
      "type": "function"
    },
    {
      "inputs": [],
      "name": "MAX_ALLOWED_SUBACCOUNT_ACTION_COUNT",
      "outputs": [
        {
          "internalType": "bytes32",
          "name": "",
          "type": "bytes32"
        }
      ],
      "stateMutability": "view",
      "type": "function"
    },
    {
      "inputs": [],
      "name": "MAX_CALLBACK_GAS_LIMIT",
      "outputs": [
        {
          "internalType": "bytes32",
          "name": "",
          "type": "bytes32"
        }
      ],
      "stateMutability": "view",
      "type": "function"
    },
    {
      "inputs": [],
      "name": "MAX_FUNDING_FACTOR_PER_SECOND",
      "outputs": [
        {
          "internalType": "bytes32",
          "name": "",
          "type": "bytes32"
        }
      ],
      "stateMutability": "view",
      "type": "function"
    },
    {
      "inputs": [],
      "name": "MAX_OPEN_INTEREST",
      "outputs": [
        {
          "internalType": "bytes32",
          "name": "",
          "type": "bytes32"
        }
      ],
      "stateMutability": "view",
      "type": "function"
    },
    {
      "inputs": [],
      "name": "MAX_ORACLE_PRICE_AGE",
      "outputs": [
        {
          "internalType": "bytes32",
          "name": "",
          "type": "bytes32"
        }
      ],
      "stateMutability": "view",
      "type": "function"
    },
    {
      "inputs": [],
      "name": "MAX_ORACLE_REF_PRICE_DEVIATION_FACTOR",
      "outputs": [
        {
          "internalType": "bytes32",
          "name": "",
          "type": "bytes32"
        }
      ],
      "stateMutability": "view",
      "type": "function"
    },
    {
      "inputs": [],
      "name": "MAX_PNL_FACTOR",
      "outputs": [
        {
          "internalType": "bytes32",
          "name": "",
          "type": "bytes32"
        }
      ],
      "stateMutability": "view",
      "type": "function"
    },
    {
      "inputs": [],
      "name": "MAX_PNL_FACTOR_FOR_ADL",
      "outputs": [
        {
          "internalType": "bytes32",
          "name": "",
          "type": "bytes32"
        }
      ],
      "stateMutability": "view",
      "type": "function"
    },
    {
      "inputs": [],
      "name": "MAX_PNL_FACTOR_FOR_DEPOSITS",
      "outputs": [
        {
          "internalType": "bytes32",
          "name": "",
          "type": "bytes32"
        }
      ],
      "stateMutability": "view",
      "type": "function"
    },
    {
      "inputs": [],
      "name": "MAX_PNL_FACTOR_FOR_TRADERS",
      "outputs": [
        {
          "internalType": "bytes32",
          "name": "",
          "type": "bytes32"
        }
      ],
      "stateMutability": "view",
      "type": "function"
    },
    {
      "inputs": [],
      "name": "MAX_PNL_FACTOR_FOR_WITHDRAWALS",
      "outputs": [
        {
          "internalType": "bytes32",
          "name": "",
          "type": "bytes32"
        }
      ],
      "stateMutability": "view",
      "type": "function"
    },
    {
      "inputs": [],
      "name": "MAX_POOL_AMOUNT",
      "outputs": [
        {
          "internalType": "bytes32",
          "name": "",
          "type": "bytes32"
        }
      ],
      "stateMutability": "view",
      "type": "function"
    },
    {
      "inputs": [],
      "name": "MAX_POOL_AMOUNT_FOR_DEPOSIT",
      "outputs": [
        {
          "internalType": "bytes32",
          "name": "",
          "type": "bytes32"
        }
      ],
      "stateMutability": "view",
      "type": "function"
    },
    {
      "inputs": [],
      "name": "MAX_POSITION_IMPACT_FACTOR",
      "outputs": [
        {
          "internalType": "bytes32",
          "name": "",
          "type": "bytes32"
        }
      ],
      "stateMutability": "view",
      "type": "function"
    },
    {
      "inputs": [],
      "name": "MAX_POSITION_IMPACT_FACTOR_FOR_LIQUIDATIONS",
      "outputs": [
        {
          "internalType": "bytes32",
          "name": "",
          "type": "bytes32"
        }
      ],
      "stateMutability": "view",
      "type": "function"
    },
    {
      "inputs": [],
      "name": "MAX_SWAP_PATH_LENGTH",
      "outputs": [
        {
          "internalType": "bytes32",
          "name": "",
          "type": "bytes32"
        }
      ],
      "stateMutability": "view",
      "type": "function"
    },
    {
      "inputs": [],
      "name": "MAX_UI_FEE_FACTOR",
      "outputs": [
        {
          "internalType": "bytes32",
          "name": "",
          "type": "bytes32"
        }
      ],
      "stateMutability": "view",
      "type": "function"
    },
    {
      "inputs": [],
      "name": "MIN_ADDITIONAL_GAS_FOR_EXECUTION",
      "outputs": [
        {
          "internalType": "bytes32",
          "name": "",
          "type": "bytes32"
        }
      ],
      "stateMutability": "view",
      "type": "function"
    },
    {
      "inputs": [],
      "name": "MIN_COLLATERAL_FACTOR",
      "outputs": [
        {
          "internalType": "bytes32",
          "name": "",
          "type": "bytes32"
        }
      ],
      "stateMutability": "view",
      "type": "function"
    },
    {
      "inputs": [],
      "name": "MIN_COLLATERAL_FACTOR_FOR_OPEN_INTEREST_MULTIPLIER",
      "outputs": [
        {
          "internalType": "bytes32",
          "name": "",
          "type": "bytes32"
        }
      ],
      "stateMutability": "view",
      "type": "function"
    },
    {
      "inputs": [],
      "name": "MIN_COLLATERAL_USD",
      "outputs": [
        {
          "internalType": "bytes32",
          "name": "",
          "type": "bytes32"
        }
      ],
      "stateMutability": "view",
      "type": "function"
    },
    {
      "inputs": [],
      "name": "MIN_FUNDING_FACTOR_PER_SECOND",
      "outputs": [
        {
          "internalType": "bytes32",
          "name": "",
          "type": "bytes32"
        }
      ],
      "stateMutability": "view",
      "type": "function"
    },
    {
      "inputs": [],
      "name": "MIN_HANDLE_EXECUTION_ERROR_GAS",
      "outputs": [
        {
          "internalType": "bytes32",
          "name": "",
          "type": "bytes32"
        }
      ],
      "stateMutability": "view",
      "type": "function"
    },
    {
      "inputs": [],
      "name": "MIN_HANDLE_EXECUTION_ERROR_GAS_TO_FORWARD",
      "outputs": [
        {
          "internalType": "bytes32",
          "name": "",
          "type": "bytes32"
        }
      ],
      "stateMutability": "view",
      "type": "function"
    },
    {
      "inputs": [],
      "name": "MIN_MARKET_TOKENS_FOR_FIRST_DEPOSIT",
      "outputs": [
        {
          "internalType": "bytes32",
          "name": "",
          "type": "bytes32"
        }
      ],
      "stateMutability": "view",
      "type": "function"
    },
    {
      "inputs": [],
      "name": "MIN_ORACLE_BLOCK_CONFIRMATIONS",
      "outputs": [
        {
          "internalType": "bytes32",
          "name": "",
          "type": "bytes32"
        }
      ],
      "stateMutability": "view",
      "type": "function"
    },
    {
      "inputs": [],
      "name": "MIN_ORACLE_SIGNERS",
      "outputs": [
        {
          "internalType": "bytes32",
          "name": "",
          "type": "bytes32"
        }
      ],
      "stateMutability": "view",
      "type": "function"
    },
    {
      "inputs": [],
      "name": "MIN_PNL_FACTOR_AFTER_ADL",
      "outputs": [
        {
          "internalType": "bytes32",
          "name": "",
          "type": "bytes32"
        }
      ],
      "stateMutability": "view",
      "type": "function"
    },
    {
      "inputs": [],
      "name": "MIN_POSITION_IMPACT_POOL_AMOUNT",
      "outputs": [
        {
          "internalType": "bytes32",
          "name": "",
          "type": "bytes32"
        }
      ],
      "stateMutability": "view",
      "type": "function"
    },
    {
      "inputs": [],
      "name": "MIN_POSITION_SIZE_USD",
      "outputs": [
        {
          "internalType": "bytes32",
          "name": "",
          "type": "bytes32"
        }
      ],
      "stateMutability": "view",
      "type": "function"
    },
    {
      "inputs": [],
      "name": "NATIVE_TOKEN_TRANSFER_GAS_LIMIT",
      "outputs": [
        {
          "internalType": "bytes32",
          "name": "",
          "type": "bytes32"
        }
      ],
      "stateMutability": "view",
      "type": "function"
    },
    {
      "inputs": [],
      "name": "NONCE",
      "outputs": [
        {
          "internalType": "bytes32",
          "name": "",
          "type": "bytes32"
        }
      ],
      "stateMutability": "view",
      "type": "function"
    },
    {
      "inputs": [],
      "name": "OPEN_INTEREST",
      "outputs": [
        {
          "internalType": "bytes32",
          "name": "",
          "type": "bytes32"
        }
      ],
      "stateMutability": "view",
      "type": "function"
    },
    {
      "inputs": [],
      "name": "OPEN_INTEREST_IN_TOKENS",
      "outputs": [
        {
          "internalType": "bytes32",
          "name": "",
          "type": "bytes32"
        }
      ],
      "stateMutability": "view",
      "type": "function"
    },
    {
      "inputs": [],
      "name": "OPEN_INTEREST_RESERVE_FACTOR",
      "outputs": [
        {
          "internalType": "bytes32",
          "name": "",
          "type": "bytes32"
        }
      ],
      "stateMutability": "view",
      "type": "function"
    },
    {
      "inputs": [],
      "name": "ORACLE_TYPE",
      "outputs": [
        {
          "internalType": "bytes32",
          "name": "",
          "type": "bytes32"
        }
      ],
      "stateMutability": "view",
      "type": "function"
    },
    {
      "inputs": [],
      "name": "ORDER_LIST",
      "outputs": [
        {
          "internalType": "bytes32",
          "name": "",
          "type": "bytes32"
        }
      ],
      "stateMutability": "view",
      "type": "function"
    },
    {
      "inputs": [],
      "name": "POOL_AMOUNT",
      "outputs": [
        {
          "internalType": "bytes32",
          "name": "",
          "type": "bytes32"
        }
      ],
      "stateMutability": "view",
      "type": "function"
    },
    {
      "inputs": [],
      "name": "POSITION_FEE_FACTOR",
      "outputs": [
        {
          "internalType": "bytes32",
          "name": "",
          "type": "bytes32"
        }
      ],
      "stateMutability": "view",
      "type": "function"
    },
    {
      "inputs": [],
      "name": "POSITION_FEE_RECEIVER_FACTOR",
      "outputs": [
        {
          "internalType": "bytes32",
          "name": "",
          "type": "bytes32"
        }
      ],
      "stateMutability": "view",
      "type": "function"
    },
    {
      "inputs": [],
      "name": "POSITION_FEE_TYPE",
      "outputs": [
        {
          "internalType": "bytes32",
          "name": "",
          "type": "bytes32"
        }
      ],
      "stateMutability": "view",
      "type": "function"
    },
    {
      "inputs": [],
      "name": "POSITION_IMPACT_EXPONENT_FACTOR",
      "outputs": [
        {
          "internalType": "bytes32",
          "name": "",
          "type": "bytes32"
        }
      ],
      "stateMutability": "view",
      "type": "function"
    },
    {
      "inputs": [],
      "name": "POSITION_IMPACT_FACTOR",
      "outputs": [
        {
          "internalType": "bytes32",
          "name": "",
          "type": "bytes32"
        }
      ],
      "stateMutability": "view",
      "type": "function"
    },
    {
      "inputs": [],
      "name": "POSITION_IMPACT_POOL_AMOUNT",
      "outputs": [
        {
          "internalType": "bytes32",
          "name": "",
          "type": "bytes32"
        }
      ],
      "stateMutability": "view",
      "type": "function"
    },
    {
      "inputs": [],
      "name": "POSITION_IMPACT_POOL_DISTRIBUTED_AT",
      "outputs": [
        {
          "internalType": "bytes32",
          "name": "",
          "type": "bytes32"
        }
      ],
      "stateMutability": "view",
      "type": "function"
    },
    {
      "inputs": [],
      "name": "POSITION_IMPACT_POOL_DISTRIBUTION_RATE",
      "outputs": [
        {
          "internalType": "bytes32",
          "name": "",
          "type": "bytes32"
        }
      ],
      "stateMutability": "view",
      "type": "function"
    },
    {
      "inputs": [],
      "name": "POSITION_LIST",
      "outputs": [
        {
          "internalType": "bytes32",
          "name": "",
          "type": "bytes32"
        }
      ],
      "stateMutability": "view",
      "type": "function"
    },
    {
      "inputs": [],
      "name": "PRICE_FEED",
      "outputs": [
        {
          "internalType": "bytes32",
          "name": "",
          "type": "bytes32"
        }
      ],
      "stateMutability": "view",
      "type": "function"
    },
    {
      "inputs": [],
      "name": "PRICE_FEED_HEARTBEAT_DURATION",
      "outputs": [
        {
          "internalType": "bytes32",
          "name": "",
          "type": "bytes32"
        }
      ],
      "stateMutability": "view",
      "type": "function"
    },
    {
      "inputs": [],
      "name": "PRICE_FEED_MULTIPLIER",
      "outputs": [
        {
          "internalType": "bytes32",
          "name": "",
          "type": "bytes32"
        }
      ],
      "stateMutability": "view",
      "type": "function"
    },
    {
      "inputs": [],
      "name": "REALTIME_FEED_ID",
      "outputs": [
        {
          "internalType": "bytes32",
          "name": "",
          "type": "bytes32"
        }
      ],
      "stateMutability": "view",
      "type": "function"
    },
    {
      "inputs": [],
      "name": "REALTIME_FEED_MULTIPLIER",
      "outputs": [
        {
          "internalType": "bytes32",
          "name": "",
          "type": "bytes32"
        }
      ],
      "stateMutability": "view",
      "type": "function"
    },
    {
      "inputs": [],
      "name": "REENTRANCY_GUARD_STATUS",
      "outputs": [
        {
          "internalType": "bytes32",
          "name": "",
          "type": "bytes32"
        }
      ],
      "stateMutability": "view",
      "type": "function"
    },
    {
      "inputs": [],
      "name": "REQUEST_EXPIRATION_BLOCK_AGE",
      "outputs": [
        {
          "internalType": "bytes32",
          "name": "",
          "type": "bytes32"
        }
      ],
      "stateMutability": "view",
      "type": "function"
    },
    {
      "inputs": [],
      "name": "RESERVE_FACTOR",
      "outputs": [
        {
          "internalType": "bytes32",
          "name": "",
          "type": "bytes32"
        }
      ],
      "stateMutability": "view",
      "type": "function"
    },
    {
      "inputs": [],
      "name": "SAVED_CALLBACK_CONTRACT",
      "outputs": [
        {
          "internalType": "bytes32",
          "name": "",
          "type": "bytes32"
        }
      ],
      "stateMutability": "view",
      "type": "function"
    },
    {
      "inputs": [],
      "name": "SAVED_FUNDING_FACTOR_PER_SECOND",
      "outputs": [
        {
          "internalType": "bytes32",
          "name": "",
          "type": "bytes32"
        }
      ],
      "stateMutability": "view",
      "type": "function"
    },
    {
      "inputs": [],
      "name": "SINGLE_SWAP_GAS_LIMIT",
      "outputs": [
        {
          "internalType": "bytes32",
          "name": "",
          "type": "bytes32"
        }
      ],
      "stateMutability": "view",
      "type": "function"
    },
    {
      "inputs": [],
      "name": "SKIP_BORROWING_FEE_FOR_SMALLER_SIDE",
      "outputs": [
        {
          "internalType": "bytes32",
          "name": "",
          "type": "bytes32"
        }
      ],
      "stateMutability": "view",
      "type": "function"
    },
    {
      "inputs": [],
      "name": "STABLE_PRICE",
      "outputs": [
        {
          "internalType": "bytes32",
          "name": "",
          "type": "bytes32"
        }
      ],
      "stateMutability": "view",
      "type": "function"
    },
    {
      "inputs": [],
      "name": "SUBACCOUNT_ACTION_COUNT",
      "outputs": [
        {
          "internalType": "bytes32",
          "name": "",
          "type": "bytes32"
        }
      ],
      "stateMutability": "view",
      "type": "function"
    },
    {
      "inputs": [],
      "name": "SUBACCOUNT_AUTO_TOP_UP_AMOUNT",
      "outputs": [
        {
          "internalType": "bytes32",
          "name": "",
          "type": "bytes32"
        }
      ],
      "stateMutability": "view",
      "type": "function"
    },
    {
      "inputs": [],
      "name": "SUBACCOUNT_FEATURE_DISABLED",
      "outputs": [
        {
          "internalType": "bytes32",
          "name": "",
          "type": "bytes32"
        }
      ],
      "stateMutability": "view",
      "type": "function"
    },
    {
      "inputs": [],
      "name": "SUBACCOUNT_LIST",
      "outputs": [
        {
          "internalType": "bytes32",
          "name": "",
          "type": "bytes32"
        }
      ],
      "stateMutability": "view",
      "type": "function"
    },
    {
      "inputs": [],
      "name": "SUBACCOUNT_ORDER_ACTION",
      "outputs": [
        {
          "internalType": "bytes32",
          "name": "",
          "type": "bytes32"
        }
      ],
      "stateMutability": "view",
      "type": "function"
    },
    {
      "inputs": [],
      "name": "SWAP_FEE_FACTOR",
      "outputs": [
        {
          "internalType": "bytes32",
          "name": "",
          "type": "bytes32"
        }
      ],
      "stateMutability": "view",
      "type": "function"
    },
    {
      "inputs": [],
      "name": "SWAP_FEE_RECEIVER_FACTOR",
      "outputs": [
        {
          "internalType": "bytes32",
          "name": "",
          "type": "bytes32"
        }
      ],
      "stateMutability": "view",
      "type": "function"
    },
    {
      "inputs": [],
      "name": "SWAP_FEE_TYPE",
      "outputs": [
        {
          "internalType": "bytes32",
          "name": "",
          "type": "bytes32"
        }
      ],
      "stateMutability": "view",
      "type": "function"
    },
    {
      "inputs": [],
      "name": "SWAP_IMPACT_EXPONENT_FACTOR",
      "outputs": [
        {
          "internalType": "bytes32",
          "name": "",
          "type": "bytes32"
        }
      ],
      "stateMutability": "view",
      "type": "function"
    },
    {
      "inputs": [],
      "name": "SWAP_IMPACT_FACTOR",
      "outputs": [
        {
          "internalType": "bytes32",
          "name": "",
          "type": "bytes32"
        }
      ],
      "stateMutability": "view",
      "type": "function"
    },
    {
      "inputs": [],
      "name": "SWAP_IMPACT_POOL_AMOUNT",
      "outputs": [
        {
          "internalType": "bytes32",
          "name": "",
          "type": "bytes32"
        }
      ],
      "stateMutability": "view",
      "type": "function"
    },
    {
      "inputs": [],
      "name": "SWAP_ORDER_GAS_LIMIT",
      "outputs": [
        {
          "internalType": "bytes32",
          "name": "",
          "type": "bytes32"
        }
      ],
      "stateMutability": "view",
      "type": "function"
    },
    {
      "inputs": [],
      "name": "SWAP_PATH_MARKET_FLAG",
      "outputs": [
        {
          "internalType": "bytes32",
          "name": "",
          "type": "bytes32"
        }
      ],
      "stateMutability": "view",
      "type": "function"
    },
    {
      "inputs": [],
      "name": "THRESHOLD_FOR_DECREASE_FUNDING",
      "outputs": [
        {
          "internalType": "bytes32",
          "name": "",
          "type": "bytes32"
        }
      ],
      "stateMutability": "view",
      "type": "function"
    },
    {
      "inputs": [],
      "name": "THRESHOLD_FOR_STABLE_FUNDING",
      "outputs": [
        {
          "internalType": "bytes32",
          "name": "",
          "type": "bytes32"
        }
      ],
      "stateMutability": "view",
      "type": "function"
    },
    {
      "inputs": [],
      "name": "TOKEN_TRANSFER_GAS_LIMIT",
      "outputs": [
        {
          "internalType": "bytes32",
          "name": "",
          "type": "bytes32"
        }
      ],
      "stateMutability": "view",
      "type": "function"
    },
    {
      "inputs": [],
      "name": "TOTAL_BORROWING",
      "outputs": [
        {
          "internalType": "bytes32",
          "name": "",
          "type": "bytes32"
        }
      ],
      "stateMutability": "view",
      "type": "function"
    },
    {
      "inputs": [],
      "name": "UI_DEPOSIT_FEE_TYPE",
      "outputs": [
        {
          "internalType": "bytes32",
          "name": "",
          "type": "bytes32"
        }
      ],
      "stateMutability": "view",
      "type": "function"
    },
    {
      "inputs": [],
      "name": "UI_FEE_FACTOR",
      "outputs": [
        {
          "internalType": "bytes32",
          "name": "",
          "type": "bytes32"
        }
      ],
      "stateMutability": "view",
      "type": "function"
    },
    {
      "inputs": [],
      "name": "UI_POSITION_FEE_TYPE",
      "outputs": [
        {
          "internalType": "bytes32",
          "name": "",
          "type": "bytes32"
        }
      ],
      "stateMutability": "view",
      "type": "function"
    },
    {
      "inputs": [],
      "name": "UI_SWAP_FEE_TYPE",
      "outputs": [
        {
          "internalType": "bytes32",
          "name": "",
          "type": "bytes32"
        }
      ],
      "stateMutability": "view",
      "type": "function"
    },
    {
      "inputs": [],
      "name": "UI_WITHDRAWAL_FEE_TYPE",
      "outputs": [
        {
          "internalType": "bytes32",
          "name": "",
          "type": "bytes32"
        }
      ],
      "stateMutability": "view",
      "type": "function"
    },
    {
      "inputs": [],
      "name": "UPDATE_ORDER_FEATURE_DISABLED",
      "outputs": [
        {
          "internalType": "bytes32",
          "name": "",
          "type": "bytes32"
        }
      ],
      "stateMutability": "view",
      "type": "function"
    },
    {
      "inputs": [],
      "name": "USER_INITIATED_CANCEL",
      "outputs": [
        {
          "internalType": "string",
          "name": "",
          "type": "string"
        }
      ],
      "stateMutability": "view",
      "type": "function"
    },
    {
      "inputs": [],
      "name": "VIRTUAL_INVENTORY_FOR_POSITIONS",
      "outputs": [
        {
          "internalType": "bytes32",
          "name": "",
          "type": "bytes32"
        }
      ],
      "stateMutability": "view",
      "type": "function"
    },
    {
      "inputs": [],
      "name": "VIRTUAL_INVENTORY_FOR_SWAPS",
      "outputs": [
        {
          "internalType": "bytes32",
          "name": "",
          "type": "bytes32"
        }
      ],
      "stateMutability": "view",
      "type": "function"
    },
    {
      "inputs": [],
      "name": "VIRTUAL_MARKET_ID",
      "outputs": [
        {
          "internalType": "bytes32",
          "name": "",
          "type": "bytes32"
        }
      ],
      "stateMutability": "view",
      "type": "function"
    },
    {
      "inputs": [],
      "name": "VIRTUAL_TOKEN_ID",
      "outputs": [
        {
          "internalType": "bytes32",
          "name": "",
          "type": "bytes32"
        }
      ],
      "stateMutability": "view",
      "type": "function"
    },
    {
      "inputs": [],
      "name": "WITHDRAWAL_FEE_TYPE",
      "outputs": [
        {
          "internalType": "bytes32",
          "name": "",
          "type": "bytes32"
        }
      ],
      "stateMutability": "view",
      "type": "function"
    },
    {
      "inputs": [],
      "name": "WITHDRAWAL_GAS_LIMIT",
      "outputs": [
        {
          "internalType": "bytes32",
          "name": "",
          "type": "bytes32"
        }
      ],
      "stateMutability": "view",
      "type": "function"
    },
    {
      "inputs": [],
      "name": "WITHDRAWAL_LIST",
      "outputs": [
        {
          "internalType": "bytes32",
          "name": "",
          "type": "bytes32"
        }
      ],
      "stateMutability": "view",
      "type": "function"
    },
    {
      "inputs": [],
      "name": "WNT",
      "outputs": [
        {
          "internalType": "bytes32",
          "name": "",
          "type": "bytes32"
        }
      ],
      "stateMutability": "view",
      "type": "function"
    }
  ],
  "bytecode": "0x612fac61003a600b82828239805160001a60731461002d57634e487b7160e01b600052600060045260246000fd5b30600052607381538281f3fe73000000000000000000000000000000000000000030146080604052600436106106cc5760003560e01c806391f9696c11610382578063c197eb9e116101e6578063c197eb9e14610a64578063c1b8380414610aa5578063c5a9762714610aad578063c6c1caa714610ab5578063c701f95514610abd578063c7d1239f14610ac5578063c8a00a7614610acd578063cbddd44414610ad5578063ceac2a6914610add578063d1e0491614610ae5578063d27295be14610aed578063d3e78e4d14610af5578063d9f5a94114610afd578063da0db8e214610b05578063db5038a714610b0d578063dd723e5914610b15578063df64991514610b1d578063e091dd1a14610b25578063e099e32c14610b2d578063e2a5426014610b35578063e4372fe714610b3d578063e69fb68d14610b45578063e73ddaa114610b4d578063e9dd3fb114610b55578063ea32605b14610b5d578063ec6501bd14610b65578063ecda9bf914610b6d578063ee951a1b14610b75578063ef5235fd14610b7d578063effefd4714610b85578063f01cce5214610b8d578063f0d4369014610b95578063f3a11da714610b9d578063f765f5d614610ba5578063f76de96414610bad578063fabc5d0b14610bb5578063fc36ca9d14610bbd578063ff77169314610bc557600080fd5b806391f9696c1461093c578063931a4d81146109445780639381fa1c1461094c578063940007001461095457806394a5a4e71461095c57806396b365eb146109645780639904ec9c1461096c5780639ab11e79146109745780639b4352271461097c5780639bfe0ccf146109845780639c789d911461098c5780639d051e60146109945780639fe125531461099c578063a1cf3e8c146109a4578063a204def8146109ac578063a383a742146109b4578063a61ccdb8146109bc578063a9d27430146109c4578063ab1ce44c146109cc578063ab1df481146109d4578063abf63d61146109dc578063ae5b84e4146109e4578063ae9c63dd146109ec578063b070009c146109f4578063b0c2fd14146109fc578063b359926c14610a04578063b417687b14610a0c578063b641427814610a14578063b7cc979714610a1c578063b8b4a54314610a24578063b8f50c8d14610a2c578063bae6b63314610a34578063bc55a08214610a3c578063bdb41ff814610a44578063bdf25e9314610a4c578063beda3db314610a54578063c02941c114610a5c57600080fd5b8063404742bf11610534578063404742bf1461080c5780634180ea9914610814578063469eae371461081c578063488859041461082457806348dda5d01461082c57806349ff0c7b146108345780634b0018b41461083c5780634fc0e460146108445780635484cc171461084c578063551797901461085457806358f2feab1461085c5780635ac21174146108645780635c6f66f11461086c5780635c899df3146108745780635ef662931461087c5780636778d4751461088457806367eeaf1d1461088c57806369fb117d146108945780636ab247331461089c5780636afc94eb146108a45780636ba90bde146108ac5780636c5bf2f3146108b45780636d350cdc146108bc5780636f0b3d55146108c4578063726fb90e146108cc578063734fc495146108d457806375f285ff146108dc578063769b8953146108e45780637b5eee8b146108ec5780637bf43e47146108f45780637bf804f0146108fc5780637fcf2156146109045780638a1bbc5d1461090c5780638b791989146109145780638c4a44ea1461091c5780638e26402a146109245780638f9dcf211461092c5780639030cce81461093457600080fd5b80630299405a146106d1578063041429b8146106ec578063056a4c59146106f45780630b9035a1146106fc578063100bb9161461070457806311508e2e1461070c5780631483449e14610714578063169764231461071c578063170b8bdf1461072457806317adb28b1461072c5780631bc3bb1b146107345780631e5f4ebe1461073c5780631eb92d6414610744578063224081581461074c57806322f3f8a71461075457806323a25f0d1461075c57806324ec097f1461076457806324f481b91461076c57806324ff1cb8146107745780632c5426f31461077c5780632c66335a146107845780632cd126051461078c5780632d9de994146107945780632da14a2f1461079c5780632dfa8e80146107a45780632f583481146107ac5780632fb0c1a3146107b4578063315def40146107bc57806331eb318a146107c4578063320b24cf146107cc57806333b2249b146107d4578063365e398a146107dc5780633817cfe8146107e457806339c33215146107ec5780633b678050146107f45780633e6e1305146107fc5780633feaf81614610804575b600080fd5b6106d9610bcd565b6040519081526020015b60405180910390f35b6106d9610c27565b6106d9610c60565b6106d9610cad565b6106d9610cfa565b6106d9610d3b565b6106d9610d7a565b6106d9610dc7565b6106d9610e06565b6106d9610e3e565b6106d9610e8b565b6106d9610ec1565b6106d9610f00565b6106d9610f33565b6106d9610f83565b6106d9610fbb565b6106d9611008565b6106d9611049565b6106d961107b565b6106d96110b6565b6106d96110e5565b6106d961111b565b6106d961114f565b6106d9611180565b6106d96111bc565b6106d96111fc565b6106d961123d565b6106d961127e565b6106d96112b7565b6106d96112e5565b6106d9611326565b6106d961135d565b6106d961138b565b6106d96113cc565b6106d9611406565b6106d961143a565b6106d9611485565b6106d96114c4565b6106d9611505565b6106d9611550565b6106d9611582565b6106d96115b5565b6106d96115f6565b6106d9611637565b6106d9611670565b6106d96116a2565b6106d96116d9565b6106d961170d565b6106d9611742565b6106d9611797565b6106d96117cb565b6106d961180c565b6106d961184b565b6106d9611885565b6106d96118be565b6106d96118f9565b6106d9611938565b6106d9611972565b6106d96119b3565b6106d96119f1565b6106d9611a2c565b6106d9611a6d565b6106d9611aae565b6106d9611ae1565b6106d9611b1d565b6106d9611b4e565b6106d9611b89565b6106d9611bb0565b6106d9611be3565b6106d9611c13565b6106d9611c65565b6106d9611c9a565b6106d9611cd6565b6106d9611d16565b6106d9611d55565b6106d9611d90565b6106d9611dcd565b6106d9611e05565b6106d9611e40565b6106d9611e8b565b6106d9611ecc565b6106d9611f00565b6106d9611f3c565b6106d9611f78565b6106d9611fb9565b6106d9611ff4565b6106d9612028565b6106d9612069565b6106d96120b5565b6106d9612101565b6106d9612137565b6106d9612173565b6106d96121b2565b6106d96121f2565b6106d9612233565b6106d9612271565b6106d96122b2565b6106d96122ed565b6106d961233c565b6106d9612375565b6106d96123ac565b6106d96123e1565b6106d9612421565b6106d961245e565b6106d9612497565b6106d96124c8565b6106d9612507565b6106d961253a565b6106d9612572565b6106d96125b3565b6106d96125ee565b6106d961261d565b610a98604051806040016040528060158152602001741554d15497d2539255125055115117d0d05390d153605a1b81525081565b6040516106e39190612f28565b6106d961266d565b6106d961269f565b6106d96126d7565b6106d961270f565b6106d9612747565b6106d961277d565b6106d96127c9565b6106d9612803565b6106d9612844565b6106d9612884565b6106d96128c0565b6106d96128f0565b6106d9612931565b6106d961297e565b6106d96129d1565b6106d9612a06565b6106d9612a3c565b6106d9612a65565b6106d9612aa4565b6106d9612ae3565b6106d9612b30565b6106d9612b64565b6106d9612b95565b6106d9612bd4565b6106d9612c06565b6106d9612c39565b6106d9612c86565b6106d9612cb5565b6106d9612d01565b6106d9612d42565b6106d9612d81565b6106d9612db6565b6106d9612df7565b6106d9612e53565b6106d9612e85565b6106d9612eb5565b6106d9612ef2565b604051602001610c0e906020808252601e908201527f4d494e5f4f5241434c455f424c4f434b5f434f4e4649524d4154494f4e530000604082015260600190565b6040516020818303038152906040528051906020012081565b604051602001610c0e906020808252601590820152741050d0d3d5539517d413d4d2551253d397d31254d5605a1b604082015260600190565b604051602001610c0e9060208082526023908201527f455354494d415445445f4741535f4645455f4d554c5449504c4945525f4641436040820152622a27a960e91b606082015260800190565b604051602001610c0e9060208082526023908201527f4d494e5f4d41524b45545f544f4b454e535f464f525f46495253545f4445504f60408201526214d25560ea1b606082015260800190565b604051602001610c0e906020808252601d908201527f43414e43454c5f4f524445525f464541545552455f44495341424c4544000000604082015260600190565b604051602001610c0e906020808252818101527f4d494e5f4144444954494f4e414c5f4741535f464f525f455845435554494f4e604082015260600190565b604051602001610c0e9060208082526023908201527f455845435554494f4e5f4741535f4645455f4d554c5449504c4945525f4641436040820152622a27a960e91b606082015260800190565b604051602001610c0e906020808252601b908201527a5649525455414c5f494e56454e544f52595f464f525f535741505360281b604082015260600190565b604051602001610c0e906020808252601490820152734d41585f4f5241434c455f50524943455f41474560601b604082015260600190565b604051602001610c0e9060208082526023908201527f434c41494d5f46554e44494e475f464545535f464541545552455f444953414260408201526213115160ea1b606082015260800190565b604051602001610c0e9060208082526012908201527111955391125391d7d554111055115117d05560721b604082015260600190565b604051602001610c0e906020808252601b908201527a29aba0a82fa4a6a820a1aa2fa2ac2827a722a72a2fa320a1aa27a960291b604082015260600190565b604051602001610c0e906020808252600f908201526e14d5509050d0d3d5539517d31254d5608a1b604082015260600190565b604051602001610c0e9060208082526026908201527f504f534954494f4e5f494d504143545f504f4f4c5f444953545249425554494f6040820152654e5f5241544560d01b606082015260800190565b604051602001610c0e906020808252601490820152731050d0d3d5539517d1115413d4d25517d31254d560621b604082015260600190565b604051602001610c0e9060208082526023908201527f534b49505f424f52524f57494e475f4645455f464f525f534d414c4c45525f5360408201526249444560e81b606082015260800190565b604051602001610c0e906020808252601f908201527f53415645445f46554e44494e475f464143544f525f5045525f5345434f4e4400604082015260600190565b604051602001610c0e906020808252600e908201526d26a0ac2fa827262fa320a1aa27a960911b604082015260600190565b604051602001610c0e90602080825260179082015276232aa72224a723afa2ac2827a722a72a2fa320a1aa27a960491b604082015260600190565b604051602001610c0e906020808252600b908201526a4f5241434c455f5459504560a81b604082015260600190565b604051602001610c0e9060208082526012908201527113525397d0d3d31310551154905317d554d160721b604082015260600190565b604051602001610c0e9060208082526010908201526f10519192531250551157d49155d0549160821b604082015260600190565b604051602001610c0e906020808252600d908201526c2aa4afa322a2afa320a1aa27a960991b604082015260600190565b604051602001610c0e906020808252601890820152772922a0a62a24a6a2afa322a2a22fa6aaa62a24a82624a2a960411b604082015260600190565b604051602001610c0e906020808252601c908201527b2827a9a4aa24a7a72fa322a2afa922a1a2a4ab22a92fa320a1aa27a960211b604082015260600190565b604051602001610c0e906020808252601d908201527f50524943455f464545445f4845415254424541545f4455524154494f4e000000604082015260600190565b604051602001610c0e906020808252601d908201527f5355424143434f554e545f4155544f5f544f505f55505f414d4f554e54000000604082015260600190565b604051602001610c0e9060208082526015908201527426a4a72fa1a7a62620aa22a920a62fa320a1aa27a960591b604082015260600190565b604051602001610c0e906020808252600a908201526914149250d157d191515160b21b604082015260600190565b604051602001610c0e906020808252601e908201527f4645455f4449535452494255544f525f535741505f4645455f42415443480000604082015260600190565b604051602001610c0e906020808252601390820152722827a9a4aa24a7a72fa322a2afa320a1aa27a960691b604082015260600190565b604051602001610c0e906020808252600a908201526913d491115497d31254d560b21b604082015260600190565b604051602001610c0e906020808252601e908201527f455845435554455f4f524445525f464541545552455f44495341424c45440000604082015260600190565b604051602001610c0e9060208082526016908201527513505617d0d05313109050d2d7d1d054d7d31253525560521b604082015260600190565b604051602001610c0e9060208082526010908201526f4c41544553545f41444c5f424c4f434b60801b604082015260600190565b604051602001610c0e9060208082526021908201527f434c41494d5f434f4c4c41544552414c5f464541545552455f44495341424c456040820152601160fa1b606082015260800190565b604051602001610c0e906020808252601b908201527a14d5509050d0d3d5539517d191505515549157d11254d050931151602a1b604082015260600190565b604051602001610c0e906020808252601f908201527f43414e43454c5f4445504f5349545f464541545552455f44495341424c454400604082015260600190565b604051602001610c0e9060208082526021908201527f434c41494d41424c455f434f4c4c41544552414c5f54494d455f44495649534f6040820152602960f91b606082015260800190565b604051602001610c0e906020808252600e908201526d232aa72224a723afa320a1aa27a960911b604082015260600190565b604051602001610c0e906020808252600f908201526e544f54414c5f424f52524f57494e4760881b604082015260600190565b604051602001610c0e906020808252601d908201527f4d41585f46554e44494e475f464143544f525f5045525f5345434f4e44000000604082015260600190565b604051602001610c0e906020808252601d908201527f455354494d415445445f4741535f4645455f424153455f414d4f554e54000000604082015260600190565b604051602001610c0e9060208082526015908201527414d25391d31157d4d5d05417d1d054d7d312535255605a1b604082015260600190565b604051602001610c0e906020808252600e908201526d1254d7d0511317d153905093115160921b604082015260600190565b604051602001610c0e906020808252601390820152725749544844524157414c5f4645455f5459504560681b604082015260600190565b604051602001610c0e9060208082526010908201526f2127a92927aba4a723afa320a1aa27a960811b604082015260600190565b604051602001610c0e906020808252601190820152701592549515505317d3505492d15517d251607a1b604082015260600190565b604051602001610c0e906020808252602b908201527f4d41585f504f534954494f4e5f494d504143545f464143544f525f464f525f4c60408201526a49515549444154494f4e5360a81b606082015260800190565b604051602001610c0e9060208082526010908201526f4445504f5349545f4645455f5459504560801b604082015260600190565b604051602001610c0e906020808252601d908201527f5550444154455f4f524445525f464541545552455f44495341424c4544000000604082015260600190565b604051602001610c0e906020808252818101527f4645455f4449535452494255544f525f535741505f544f4b454e5f494e444558604082015260600190565b604051602001610c0e9060208082526016908201527513505617d4139317d19050d513d497d193d497d0511360521b604082015260600190565b604051602001610c0e90602080825260159082015274282924a1a2afa322a2a22fa6aaa62a24a82624a2a960591b604082015260600190565b604051602001610c0e9060208082526017908201527610d31052535050931157d55257d1915157d05353d55395604a1b604082015260600190565b604051602001610c0e906020808252601b908201527a21a620a4a6a0a12622afa1a7a62620aa22a920a62fa320a1aa27a960291b604082015260600190565b604051602001610c0e906020808252601690820152752827a9a4aa24a7a72fa4a6a820a1aa2fa320a1aa27a960511b604082015260600190565b604051602001610c0e906020808252601e908201527f4d494e5f48414e444c455f455845435554494f4e5f4552524f525f4741530000604082015260600190565b604051602001610c0e906020808252601a90820152794d41585f504e4c5f464143544f525f464f525f5452414445525360301b604082015260600190565b604051602001610c0e906020808252601790820152764f50454e5f494e5445524553545f494e5f544f4b454e5360481b604082015260600190565b604051602001610c0e906020808252601e908201527f434c41494d5f55495f464545535f464541545552455f44495341424c45440000604082015260600190565b604051602001610c0e906020808252601e908201527f5448524553484f4c445f464f525f44454352454153455f46554e44494e470000604082015260600190565b604051602001610c0e906020808252600f908201526e29aba0a82fa322a2afa320a1aa27a960891b604082015260600190565b604051602001610c0e90602080825260189082015277125390d4915054d157d3d491115497d1d054d7d31253525560421b604082015260600190565b604051602001610c0e906020808252600d908201526c13d4115397d2539511549154d5609a1b604082015260600190565b604051602001610c0e9060208082526017908201527614d5509050d0d3d5539517d050d51253d397d0d3d55395604a1b604082015260600190565b604051602001610c0e9060208082526003908201526215d39560ea1b604082015260600190565b604051602001610c0e906020808252600f908201526e13505617d413d3d317d05353d55395608a1b604082015260600190565b604051602001610c0e906020808252600c908201526b535441424c455f505249434560a01b604082015260600190565b604051602001610c0e9060208082526028908201527f434c41494d5f414646494c494154455f524557415244535f464541545552455f604082015267111254d05093115160c21b606082015260800190565b604051602001610c0e9060208082526011908201527026a0ac2faaa4afa322a2afa320a1aa27a960791b604082015260600190565b604051602001610c0e9060208082526018908201527710d31052535050931157d1955391125391d7d05353d5539560421b604082015260600190565b604051602001610c0e906020808252601c908201527b5448524553484f4c445f464f525f535441424c455f46554e44494e4760201b604082015260600190565b604051602001610c0e906020808252601b908201527a4d41585f504e4c5f464143544f525f464f525f4445504f5349545360281b604082015260600190565b604051602001610c0e906020808252601790820152761050d0d3d5539517d5d2551211149055d05317d31254d5604a1b604082015260600190565b604051602001610c0e9060208082526019908201527810d3105253515117d0d3d31310551154905317d05353d55395603a1b604082015260600190565b604051602001610c0e9060208082526014908201527309a82b0bea6ae82a0bea082a890be988a9c8ea8960631b604082015260600190565b604051602001610c0e9060208082526017908201527614d5d05417d253541050d517d413d3d317d05353d55395604a1b604082015260600190565b604051602001610c0e9060208082526021908201527f434c41494d41424c455f46554e44494e475f414d4f554e545f5045525f53495a6040820152604560f81b606082015260800190565b604051602001610c0e906020808252601d908201527f4d494e5f46554e44494e475f464143544f525f5045525f5345434f4e44000000604082015260600190565b604051602001610c0e9060208082526010908201526f1592549515505317d513d2d15397d25160821b604082015260600190565b604051602001610c0e906020808252601890820152771513d2d15397d514905394d1915497d1d054d7d31253525560421b604082015260600190565b604051602001610c0e9060208082526018908201527729aba0a82fa322a2afa922a1a2a4ab22a92fa320a1aa27a960411b604082015260600190565b604051602001610c0e906020808252601e908201527f4d41585f504e4c5f464143544f525f464f525f5749544844524157414c530000604082015260600190565b604051602001610c0e906020808252601790820152765245454e5452414e43595f47554152445f53544154555360481b604082015260600190565b604051602001610c0e9060208082526010908201526f55495f535741505f4645455f5459504560801b604082015260600190565b604051602001610c0e906020808252601f908201527f4d494e5f504f534954494f4e5f494d504143545f504f4f4c5f414d4f554e5400604082015260600190565b604051602001610c0e9060208082526022908201527f46554e44494e475f44454352454153455f464143544f525f5045525f5345434f604082015261139160f21b606082015260800190565b604051602001610c0e9060208082526022908201527f46554e44494e475f494e4352454153455f464143544f525f5045525f5345434f604082015261139160f21b606082015260800190565b604051602001610c0e9060208082526012908201527129aba0a82fa4a6a820a1aa2fa320a1aa27a960711b604082015260600190565b604051602001610c0e90602080825260189082015277111150d4915054d157d3d491115497d1d054d7d31253525560421b604082015260600190565b604051602001610c0e906020808252601b908201527a10d31052535050931157d0d3d31310551154905317d05353d55395602a1b604082015260600190565b604051602001610c0e906020808252601c908201527b524551554553545f45585049524154494f4e5f424c4f434b5f41474560201b604082015260600190565b604051602001610c0e906020808252601d908201527f4352454154455f4f524445525f464541545552455f44495341424c4544000000604082015260600190565b604051602001610c0e906020808252601a908201527926a0ac2fa827a9a4aa24a7a72fa4a6a820a1aa2fa320a1aa27a960311b604082015260600190565b604051602001610c0e906020808252601f908201527f5649525455414c5f494e56454e544f52595f464f525f504f534954494f4e5300604082015260600190565b604051602001610c0e9060208082526017908201527614d055915117d0d05313109050d2d7d0d3d395149050d5604a1b604082015260600190565b604051602001610c0e9060208082526025908201527f4d41585f4f5241434c455f5245465f50524943455f444556494154494f4e5f4660408201526420a1aa27a960d91b606082015260800190565b604051602001610c0e9060208082526015908201527413525397d413d4d2551253d397d4d2569157d554d1605a1b604082015260600190565b604051602001610c0e9060208082526013908201527255495f4445504f5349545f4645455f5459504560681b604082015260600190565b604051602001610c0e9060208082526011908201527011115413d4d25517d1d054d7d312535255607a1b604082015260600190565b604051602001610c0e906020808252601c908201527b27a822a72fa4a72a22a922a9aa2fa922a9a2a92b22afa320a1aa27a960211b604082015260600190565b604051602001610c0e906020808252601990820152782127a92927aba4a723afa2ac2827a722a72a2fa320a1aa27a960391b604082015260600190565b604051602001610c0e90602080825260159082015274535741505f504154485f4d41524b45545f464c414760581b604082015260600190565b604051602001610c0e906020808252600d908201526c1413d4d2551253d397d31254d5609a1b604082015260600190565b604051602001610c0e906020808252601b908201527a21aaa6aaa620aa24ab22afa127a92927aba4a723afa320a1aa27a960291b604082015260600190565b604051602001610c0e906020808252600f908201526e15d2551211149055d05317d31254d5608a1b604082015260600190565b604051602001610c0e9060208082526014908201527355495f504f534954494f4e5f4645455f5459504560601b604082015260600190565b604051602001610c0e906020808252601d908201527f455845435554494f4e5f4741535f4645455f424153455f414d4f554e54000000604082015260600190565b604051602001610c0e9060208082526017908201527629aaa120a1a1a7aaa72a2fa7a92222a92fa0a1aa24a7a760491b604082015260600190565b604051602001610c0e906020808252600b908201526a1413d3d317d05353d5539560aa1b604082015260600190565b604051602001610c0e9060208082526026908201527f43554d554c41544956455f424f52524f57494e475f464143544f525f5550444160408201526515115117d05560d21b606082015260800190565b604051602001610c0e906020808252600e908201526d434f4c4c41544552414c5f53554d60901b604082015260600190565b604051602001610c0e9060208082526014908201527310d31052535050931157d1915157d05353d5539560621b604082015260600190565b604051602001610c0e9060208082526014908201527314d5d05417d3d491115497d1d054d7d31253525560621b604082015260600190565b604051602001610c0e9060208082526014908201527315d2551211149055d05317d1d054d7d31253525560621b604082015260600190565b604051602001610c0e906020808252601290820152711050d0d3d5539517d3d491115497d31254d560721b604082015260600190565b604051602001610c0e9060208082526022908201527f43414e43454c5f5749544844524157414c5f464541545552455f44495341424c604082015261115160f21b606082015260800190565b604051602001610c0e9060208082526016908201527555495f5749544844524157414c5f4645455f5459504560501b604082015260600190565b604051602001610c0e906020808252601f908201527f504f534954494f4e5f494d504143545f4558504f4e454e545f464143544f5200604082015260600190565b604051602001610c0e906020808252601c908201527b11561150d5551157d0511317d191505515549157d11254d05093115160221b604082015260600190565b604051602001610c0e9060208082526018908201527713525397d4139317d19050d513d497d05195115497d0511360421b604082015260600190565b604051602001610c0e906020808252600c908201526b2322a2afa922a1a2a4ab22a960a11b604082015260600190565b604051602001610c0e906020808252601f908201527f4352454154455f4445504f5349545f464541545552455f44495341424c454400604082015260600190565b604051602001610c0e9060208082526023908201527f4d41585f414c4c4f5745445f5355424143434f554e545f414354494f4e5f434f60408201526215539560ea1b606082015260800190565b604051602001610c0e9060208082526029908201527f4d494e5f48414e444c455f455845435554494f4e5f4552524f525f4741535f5460408201526813d7d193d495d0549160ba1b606082015260800190565b604051602001610c0e90602080825260119082015270504f534954494f4e5f4645455f5459504560781b604082015260600190565b604051602001610c0e906020808252601290820152711254d7d3505492d15517d11254d05093115160721b604082015260600190565b604051602001610c0e906020808252600590820152644e4f4e434560d81b604082015260600190565b604051602001610c0e906020808252601b908201527a1413d4d2551253d397d253541050d517d413d3d317d05353d55395602a1b604082015260600190565b604051602001610c0e906020808252818101527f455845435554455f4445504f5349545f464541545552455f44495341424c4544604082015260600190565b604051602001610c0e9060208082526023908201527f455845435554455f5749544844524157414c5f464541545552455f444953414260408201526213115160ea1b606082015260800190565b604051602001610c0e9060208082526010908201526f149150531512535157d191515117d25160821b604082015260600190565b604051602001610c0e906020808252600d908201526c535741505f4645455f5459504560981b604082015260600190565b604051602001610c0e906020808252601b908201527a13505617d413d3d317d05353d5539517d193d497d1115413d4d255602a1b604082015260600190565b604051602001610c0e906020808252600e908201526d2922a9a2a92b22afa320a1aa27a960911b604082015260600190565b604051602001610c0e906020808252600f908201526e484f4c44494e475f4144445245535360881b604082015260600190565b604051602001610c0e9060208082526023908201527f504f534954494f4e5f494d504143545f504f4f4c5f444953545249425554454460408201526217d05560ea1b606082015260800190565b604051602001610c0e906020808252600b908201526a13505492d15517d31254d560aa1b604082015260600190565b604051602001610c0e9060208082526022908201527f4352454154455f5749544844524157414c5f464541545552455f44495341424c604082015261115160f21b606082015260800190565b604051602001610c0e906020808252601d908201527f424f52524f57494e475f4645455f52454345495645525f464143544f52000000604082015260600190565b604051602001610c0e906020808252601b908201527a46554e44494e475f4645455f414d4f554e545f5045525f53495a4560281b604082015260600190565b604051602001610c0e9060208082526011908201527013505617d3d4115397d2539511549154d5607a1b604082015260600190565b604051602001610c0e906020808252601f908201527f4e41544956455f544f4b454e5f5452414e534645525f4741535f4c494d495400604082015260600190565b604051602001610c0e9060208082526032908201527f4d494e5f434f4c4c41544552414c5f464143544f525f464f525f4f50454e5f49604082015271272a22a922a9aa2fa6aaa62a24a82624a2a960711b606082015260800190565b604051602001610c0e906020808252600e908201526d11915157d0905510d217d31254d560921b604082015260600190565b604051602001610c0e906020808252600c908201526b11115413d4d25517d31254d560a21b604082015260600190565b604051602001610c0e90602080825260199082015278494e5f5354524943545f50524943455f464545445f4d4f444560381b604082015260600190565b604051602001610c0e906020808252601290820152714d494e5f4f5241434c455f5349474e45525360701b604082015260600190565b600060208083528351808285015260005b81811015612f5557858101830151858201604001528201612f39565b506000604082860101526040601f19601f830116850101925050509291505056fea2646970667358221220292968f2b0a7dd3516f91baa82d7ae15ebb3603e566389a6901431cdb01b163664736f6c63430008120033",
  "linkReferences": {},
  "deployedLinkReferences": {}
}