{
  "_format": "hh-sol-artifact-1",
  "contractName": "Role",
  "sourceName": "contracts/role/Role.sol",
  "abi": [
    {
      "inputs": [],
      "name": "ADL_KEEPER",
      "outputs": [
        {
          "internalType": "bytes32",
          "name": "",
          "type": "bytes32"
        }
      ],
      "stateMutability": "view",
      "type": "function"
    },
    {
      "inputs": [],
      "name": "CONFIG_KEEPER",
      "outputs": [
        {
          "internalType": "bytes32",
          "name": "",
          "type": "bytes32"
        }
      ],
      "stateMutability": "view",
      "type": "function"
    },
    {
      "inputs": [],
      "name": "CONTROLLER",
      "outputs": [
        {
          "internalType": "bytes32",
          "name": "",
          "type": "bytes32"
        }
      ],
      "stateMutability": "view",
      "type": "function"
    },
    {
      "inputs": [],
      "name": "FEE_DISTRIBUTION_KEEPER",
      "outputs": [
        {
          "internalType": "bytes32",
          "name": "",
          "type": "bytes32"
        }
      ],
      "stateMutability": "view",
      "type": "function"
    },
    {
      "inputs": [],
      "name": "FEE_KEEPER",
      "outputs": [
        {
          "internalType": "bytes32",
          "name": "",
          "type": "bytes32"
        }
      ],
      "stateMutability": "view",
      "type": "function"
    },
    {
      "inputs": [],
      "name": "FROZEN_ORDER_KEEPER",
      "outputs": [
        {
          "internalType": "bytes32",
          "name": "",
          "type": "bytes32"
        }
      ],
      "stateMutability": "view",
      "type": "function"
    },
    {
      "inputs": [],
      "name": "GOV_TOKEN_CONTROLLER",
      "outputs": [
        {
          "internalType": "bytes32",
          "name": "",
          "type": "bytes32"
        }
      ],
      "stateMutability": "view",
      "type": "function"
    },
    {
      "inputs": [],
      "name": "LIMITED_CONFIG_KEEPER",
      "outputs": [
        {
          "internalType": "bytes32",
          "name": "",
          "type": "bytes32"
        }
      ],
      "stateMutability": "view",
      "type": "function"
    },
    {
      "inputs": [],
      "name": "LIQUIDATION_KEEPER",
      "outputs": [
        {
          "internalType": "bytes32",
          "name": "",
          "type": "bytes32"
        }
      ],
      "stateMutability": "view",
      "type": "function"
    },
    {
      "inputs": [],
      "name": "MARKET_KEEPER",
      "outputs": [
        {
          "internalType": "bytes32",
          "name": "",
          "type": "bytes32"
        }
      ],
      "stateMutability": "view",
      "type": "function"
    },
    {
      "inputs": [],
      "name": "ORDER_KEEPER",
      "outputs": [
        {
          "internalType": "bytes32",
          "name": "",
          "type": "bytes32"
        }
      ],
      "stateMutability": "view",
      "type": "function"
    },
    {
      "inputs": [],
      "name": "PRICING_KEEPER",
      "outputs": [
        {
          "internalType": "bytes32",
          "name": "",
          "type": "bytes32"
        }
      ],
      "stateMutability": "view",
      "type": "function"
    },
    {
      "inputs": [],
      "name": "ROLE_ADMIN",
      "outputs": [
        {
          "internalType": "bytes32",
          "name": "",
          "type": "bytes32"
        }
      ],
      "stateMutability": "view",
      "type": "function"
    },
    {
      "inputs": [],
      "name": "ROUTER_PLUGIN",
      "outputs": [
        {
          "internalType": "bytes32",
          "name": "",
          "type": "bytes32"
        }
      ],
      "stateMutability": "view",
      "type": "function"
    },
    {
      "inputs": [],
      "name": "TIMELOCK_ADMIN",
      "outputs": [
        {
          "internalType": "bytes32",
          "name": "",
          "type": "bytes32"
        }
      ],
      "stateMutability": "view",
      "type": "function"
    },
    {
      "inputs": [],
      "name": "TIMELOCK_MULTISIG",
      "outputs": [
        {
          "internalType": "bytes32",
          "name": "",
          "type": "bytes32"
        }
      ],
      "stateMutability": "view",
      "type": "function"
    }
  ],
  "bytecode": "0x6104ed61003a600b82828239805160001a60731461002d57634e487b7160e01b600052600060045260246000fd5b30600052607381538281f3fe73000000000000000000000000000000000000000030146080604052600436106100da5760003560e01c80634479d97b146100df5780635fac3ab1146100f95780636ed0f6201461010157806375d3adbb14610109578063774fb4b8146101115780639b8b49f8146101195780639ecff61714610121578063a007423014610129578063c66aade114610131578063cf7fb1d014610139578063d391014b14610141578063e0fde20c14610149578063e2ff47b314610151578063ee0fc12114610159578063f13c5a4b14610161578063fd66316314610169575b600080fd5b6100e7610171565b60405190815260200160405180910390f35b6100e76101bf565b6100e76101f0565b6100e7610220565b6100e761025b565b6100e7610294565b6100e76102c5565b6100e76102f7565b6100e761032e565b6100e761035f565b6100e761038d565b6100e76103bb565b6100e76103f3565b6100e7610425565b6100e7610453565b6100e7610489565b6040516020016101a69060208082526011908201527054494d454c4f434b5f4d554c544953494760781b604082015260600190565b6040516020818303038152906040528051906020012081565b6040516020016101a6906020808252600d908201526c26a0a925a2aa2fa5a2a2a822a960991b604082015260600190565b6040516020016101a6906020808252600c908201526b27a92222a92fa5a2a2a822a960a11b604082015260600190565b6040516020016101a6906020808252601790820152762322a2afa224a9aa2924a12aaa24a7a72fa5a2a2a822a960491b604082015260600190565b6040516020016101a6906020808252601590820152742624a6a4aa22a22fa1a7a72324a3afa5a2a2a822a960591b604082015260600190565b6040516020016101a6906020808252600d908201526c2927aaaa22a92fa8262aa3a4a760991b604082015260600190565b6040516020016101a6906020808252600e908201526d282924a1a4a723afa5a2a2a822a960911b604082015260600190565b6040516020016101a690602080825260139082015272232927ad22a72fa7a92222a92fa5a2a2a822a960691b604082015260600190565b6040516020016101a6906020808252600d908201526c21a7a72324a3afa5a2a2a822a960991b604082015260600190565b6040516020016101a6906020808252600a90820152692322a2afa5a2a2a822a960b11b604082015260600190565b6040516020016101a6906020808252600a90820152692927a622afa0a226a4a760b11b604082015260600190565b6040516020016101a69060208082526014908201527323a7ab2faa27a5a2a72fa1a7a72a2927a62622a960611b604082015260600190565b6040516020016101a6906020808252600e908201526d2a24a6a2a627a1a5afa0a226a4a760911b604082015260600190565b6040516020016101a6906020808252600a908201526921a7a72a2927a62622a960b11b604082015260600190565b6040516020016101a6906020808252601290820152712624a8aaa4a220aa24a7a72fa5a2a2a822a960711b604082015260600190565b6040516020016101a6906020808252600a908201526920a2262fa5a2a2a822a960b11b60408201526060019056fea2646970667358221220f3e3031a6c9ccf218655be4e6e2bd4d4cd6a9f5ff6ee727c76b2908d705e0f4564736f6c63430008120033",
  "linkReferences": {},
  "deployedLinkReferences": {}
}