{
  "_format": "hh-sol-artifact-1",
  "contractName": "ChainlinkAggregator",
  "sourceName": "contracts/oracle/ChainlinkAggregator.sol",
  "abi": [
    {
      "inputs": [
        {
          "internalType": "uint8",
          "name": "_decimals",
          "type": "uint8"
        },
        {
          "internalType": "string",
          "name": "_description",
          "type": "string"
        }
      ],
      "stateMutability": "nonpayable",
      "type": "constructor"
    },
    {
      "anonymous": false,
      "inputs": [
        {
          "indexed": true,
          "internalType": "int256",
          "name": "current",
          "type": "int256"
        },
        {
          "indexed": true,
          "internalType": "uint256",
          "name": "roundId",
          "type": "uint256"
        },
        {
          "indexed": false,
          "internalType": "uint256",
          "name": "updatedAt",
          "type": "uint256"
        }
      ],
      "name": "AnswerUpdated",
      "type": "event"
    },
    {
      "anonymous": false,
      "inputs": [
        {
          "indexed": true,
          "internalType": "uint256",
          "name": "roundId",
          "type": "uint256"
        },
        {
          "indexed": true,
          "internalType": "address",
          "name": "startedBy",
          "type": "address"
        },
        {
          "indexed": false,
          "internalType": "uint256",
          "name": "startedAt",
          "type": "uint256"
        }
      ],
      "name": "NewRound",
      "type": "event"
    },
    {
      "anonymous": false,
      "inputs": [
        {
          "indexed": true,
          "internalType": "address",
          "name": "from",
          "type": "address"
        },
        {
          "indexed": true,
          "internalType": "address",
          "name": "to",
          "type": "address"
        }
      ],
      "name": "OwnershipTransferRequested",
      "type": "event"
    },
    {
      "anonymous": false,
      "inputs": [
        {
          "indexed": true,
          "internalType": "address",
          "name": "from",
          "type": "address"
        },
        {
          "indexed": true,
          "internalType": "address",
          "name": "to",
          "type": "address"
        }
      ],
      "name": "OwnershipTransferred",
      "type": "event"
    },
    {
      "inputs": [],
      "name": "acceptOwnership",
      "outputs": [],
      "stateMutability": "nonpayable",
      "type": "function"
    },
    {
      "inputs": [],
      "name": "decimals",
      "outputs": [
        {
          "internalType": "uint8",
          "name": "",
          "type": "uint8"
        }
      ],
      "stateMutability": "view",
      "type": "function"
    },
    {
      "inputs": [],
      "name": "description",
      "outputs": [
        {
          "internalType": "string",
          "name": "",
          "type": "string"
        }
      ],
      "stateMutability": "view",
      "type": "function"
    },
    {
      "inputs": [
        {
          "internalType": "uint256",
          "name": "_roundId",
          "type": "uint256"
        }
      ],
      "name": "getAnswer",
      "outputs": [
        {
          "internalType": "int256",
          "name": "",
          "type": "int256"
        }
      ],
      "stateMutability": "view",
      "type": "function"
    },
    {
      "inputs": [
        {
          "internalType": "uint80",
          "name": "_roundId",
          "type": "uint80"
        }
      ],
      "name": "getRoundData",
      "outputs": [
        {
          "internalType": "uint80",
          "name": "roundId",
          "type": "uint80"
        },
        {
          "internalType": "int256",
          "name": "answer",
          "type": "int256"
        },
        {
          "internalType": "uint256",
          "name": "startedAt",
          "type": "uint256"
        },
        {
          "internalType": "uint256",
          "name": "updatedAt",
          "type": "uint256"
        },
        {
          "internalType": "uint80",
          "name": "answeredInRound",
          "type": "uint80"
        }
      ],
      "stateMutability": "view",
      "type": "function"
    },
    {
      "inputs": [
        {
          "internalType": "uint256",
          "name": "_roundId",
          "type": "uint256"
        }
      ],
      "name": "getTimestamp",
      "outputs": [
        {
          "internalType": "uint256",
          "name": "",
          "type": "uint256"
        }
      ],
      "stateMutability": "view",
      "type": "function"
    },
    {
      "inputs": [],
      "name": "latestAnswer",
      "outputs": [
        {
          "internalType": "int256",
          "name": "",
          "type": "int256"
        }
      ],
      "stateMutability": "view",
      "type": "function"
    },
    {
      "inputs": [],
      "name": "latestRound",
      "outputs": [
        {
          "internalType": "uint256",
          "name": "",
          "type": "uint256"
        }
      ],
      "stateMutability": "view",
      "type": "function"
    },
    {
      "inputs": [],
      "name": "latestRoundData",
      "outputs": [
        {
          "internalType": "uint80",
          "name": "roundId",
          "type": "uint80"
        },
        {
          "internalType": "int256",
          "name": "answer",
          "type": "int256"
        },
        {
          "internalType": "uint256",
          "name": "startedAt",
          "type": "uint256"
        },
        {
          "internalType": "uint256",
          "name": "updatedAt",
          "type": "uint256"
        },
        {
          "internalType": "uint80",
          "name": "answeredInRound",
          "type": "uint80"
        }
      ],
      "stateMutability": "view",
      "type": "function"
    },
    {
      "inputs": [],
      "name": "latestTimestamp",
      "outputs": [
        {
          "internalType": "uint256",
          "name": "",
          "type": "uint256"
        }
      ],
      "stateMutability": "view",
      "type": "function"
    },
    {
      "inputs": [],
      "name": "owner",
      "outputs": [
        {
          "internalType": "address",
          "name": "",
          "type": "address"
        }
      ],
      "stateMutability": "view",
      "type": "function"
    },
    {
      "inputs": [
        {
          "internalType": "int192[]",
          "name": "answers",
          "type": "int192[]"
        }
      ],
      "name": "setLatestAnswer",
      "outputs": [],
      "stateMutability": "nonpayable",
      "type": "function"
    },
    {
      "inputs": [
        {
          "internalType": "address",
          "name": "_to",
          "type": "address"
        }
      ],
      "name": "transferOwnership",
      "outputs": [],
      "stateMutability": "nonpayable",
      "type": "function"
    },
    {
      "inputs": [],
      "name": "version",
      "outputs": [
        {
          "internalType": "uint256",
          "name": "",
          "type": "uint256"
        }
      ],
      "stateMutability": "view",
      "type": "function"
    }
  ],
  "bytecode": "0x60a06040523480156200001157600080fd5b5060405162000dd438038062000dd483398101604081905262000034916200008a565b600080546001600160a01b0319163317905560ff821660805260036200005b828262000209565b50506001805463ffffffff60a01b1916905550620002d5565b634e487b7160e01b600052604160045260246000fd5b600080604083850312156200009e57600080fd5b825160ff81168114620000b057600080fd5b602084810151919350906001600160401b0380821115620000d057600080fd5b818601915086601f830112620000e557600080fd5b815181811115620000fa57620000fa62000074565b604051601f8201601f19908116603f0116810190838211818310171562000125576200012562000074565b8160405282815289868487010111156200013e57600080fd5b600093505b8284101562000162578484018601518185018701529285019262000143565b60008684830101528096505050505050509250929050565b600181811c908216806200018f57607f821691505b602082108103620001b057634e487b7160e01b600052602260045260246000fd5b50919050565b601f8211156200020457600081815260208120601f850160051c81016020861015620001df5750805b601f850160051c820191505b818110156200020057828155600101620001eb565b5050505b505050565b81516001600160401b0381111562000225576200022562000074565b6200023d816200023684546200017a565b84620001b6565b602080601f8311600181146200027557600084156200025c5750858301515b600019600386901b1c1916600185901b17855562000200565b600085815260208120601f198616915b82811015620002a65788860151825594840194600190910190840162000285565b5085821015620002c55787850151600019600388901b60f8161c191681555b5050505050600190811b01905550565b608051610ae4620002f0600039600060c40152610ae46000f3fe608060405234801561001057600080fd5b50600436106100ba5760003560e01c8063313ce567146100bf57806350d25bcd146100fd57806354fd4d501461012e578063668a0f02146101365780637284e4161461014b57806379ba5097146101605780638205bf6a1461016a5780638da5cb5b1461019e5780639a6fc8f5146101c9578063b5ab58dc14610210578063b633620c14610223578063dd9b231414610236578063f2fde38b14610249578063feaf968c1461025c575b600080fd5b6100e67f000000000000000000000000000000000000000000000000000000000000000081565b60405160ff90911681526020015b60405180910390f35b600154600160a01b900463ffffffff1660009081526002602052604090205460170b5b6040519081526020016100f4565b610120600481565b600154600160a01b900463ffffffff16610120565b6101536102b2565b6040516100f491906107dd565b610168610344565b005b600154600160a01b900463ffffffff16600090815260026020526040902054600160c01b90046001600160401b0316610120565b6000546101b1906001600160a01b031681565b6040516001600160a01b0390911681526020016100f4565b6101dc6101d736600461082b565b6103f3565b604080516001600160501b03968716815260208101959095528401929092526060830152909116608082015260a0016100f4565b61012061021e36600461085b565b6104a4565b61012061023136600461085b565b6104d6565b6101686102443660046108a1565b610515565b610168610257366004610965565b610762565b6101dc600154600160a01b900463ffffffff16600081815260026020908152604091829020825180840190935254601781900b808452600160c01b9091046001600160401b031692909101829052919281908490565b6060600380546102c19061098e565b80601f01602080910402602001604051908101604052809291908181526020018280546102ed9061098e565b801561033a5780601f1061030f5761010080835404028352916020019161033a565b820191906000526020600020905b81548152906001019060200180831161031d57829003601f168201915b5050505050905090565b6001546001600160a01b0316331461039c5760405162461bcd60e51b815260206004820152601660248201527526bab9ba10313290383937b837b9b2b21037bbb732b960511b60448201526064015b60405180910390fd5b60008054336001600160a01b0319808316821784556001805490911690556040516001600160a01b0390921692909183917f8be0079c531659141344cd1fd0a4f28419497f9722a3daafe3b4186f6b6457e091a350565b600080600080600063ffffffff866001600160501b031611156040518060400160405280600f81526020016e139bc819185d18481c1c995cd95b9d608a1b815250906104525760405162461bcd60e51b815260040161039391906107dd565b5050505063ffffffff8316600090815260026020908152604091829020825180840190935254601781900b808452600160c01b9091046001600160401b03169290910182905293949092508291508490565b600063ffffffff8211156104ba57506000919050565b5063ffffffff1660009081526002602052604090205460170b90565b600063ffffffff8211156104ec57506000919050565b5063ffffffff16600090815260026020526040902054600160c01b90046001600160401b031690565b6000546001600160a01b0316331461053f5760405162461bcd60e51b8152600401610393906109c8565b60018054600160a01b900463ffffffff1690601461055c83610a0e565b91906101000a81548163ffffffff021916908363ffffffff1602179055505060005b6001825161058c9190610a31565b811015610632576000826105a1836001610a4a565b815181106105b1576105b1610a5d565b602002602001015160170b8383815181106105ce576105ce610a5d565b602002602001015160170b131590508061061f5760405162461bcd60e51b8152602060048201526012602482015271185b9cddd95c9cc81b9bdd081cdbdc9d195960721b6044820152606401610393565b508061062a81610a73565b91505061057e565b50600081600283516106449190610a8c565b8151811061065457610654610a5d565b602090810291909101810151604080518082018252601783900b81526001600160401b03428181168387019081526001805463ffffffff600160a01b91829004811660009081526002909a52878a2096519351909516600160c01b026001600160c01b03909316929092179094559254935194965091909204909116917f0109fc6f55cf40689f02fbaad7af7fe7bbac8a3d2186600afc7d3e10cac60271916107009190815260200190565b60405180910390a3600160149054906101000a900463ffffffff1663ffffffff168160170b7f0559884fd3a460db3073b7fc896cc77986f16e378210ded43186175bf646fc5f4260405161075691815260200190565b60405180910390a35050565b6000546001600160a01b0316331461078c5760405162461bcd60e51b8152600401610393906109c8565b600180546001600160a01b0319166001600160a01b0383811691821790925560008054604051929316917fed8889f560326eb138920d842192f0eb3dd22b4f139c87a2c57538e05bae12789190a350565b600060208083528351808285015260005b8181101561080a578581018301518582016040015282016107ee565b506000604082860101526040601f19601f8301168501019250505092915050565b60006020828403121561083d57600080fd5b81356001600160501b038116811461085457600080fd5b9392505050565b60006020828403121561086d57600080fd5b5035919050565b634e487b7160e01b600052604160045260246000fd5b8035601781900b811461089c57600080fd5b919050565b600060208083850312156108b457600080fd5b82356001600160401b03808211156108cb57600080fd5b818501915085601f8301126108df57600080fd5b8135818111156108f1576108f1610874565b8060051b604051601f19603f8301168101818110858211171561091657610916610874565b60405291825284820192508381018501918883111561093457600080fd5b938501935b828510156109595761094a8561088a565b84529385019392850192610939565b98975050505050505050565b60006020828403121561097757600080fd5b81356001600160a01b038116811461085457600080fd5b600181811c908216806109a257607f821691505b6020821081036109c257634e487b7160e01b600052602260045260246000fd5b50919050565b60208082526016908201527527b7363c9031b0b63630b1363290313c9037bbb732b960511b604082015260600190565b634e487b7160e01b600052601160045260246000fd5b600063ffffffff808316818103610a2757610a276109f8565b6001019392505050565b81810381811115610a4457610a446109f8565b92915050565b80820180821115610a4457610a446109f8565b634e487b7160e01b600052603260045260246000fd5b600060018201610a8557610a856109f8565b5060010190565b600082610aa957634e487b7160e01b600052601260045260246000fd5b50049056fea26469706673582212204c55d896077bee1a5c1d774e61541c3c080669010e3d36462b592016bd12ecac64736f6c63430008120033",
  "linkReferences": {},
  "deployedLinkReferences": {}
}