{
  "_format": "hh-sol-artifact-1",
  "contractName": "ExecuteDepositUtils",
  "sourceName": "contracts/deposit/ExecuteDepositUtils.sol",
  "abi": [
    {
      "inputs": [
        {
          "internalType": "address",
          "name": "market",
          "type": "address"
        }
      ],
      "name": "DisabledMarket",
      "type": "error"
    },
    {
      "inputs": [],
      "name": "EmptyDeposit",
      "type": "error"
    },
    {
      "inputs": [],
      "name": "EmptyDepositAmountsAfterSwap",
      "type": "error"
    },
    {
      "inputs": [],
      "name": "EmptyMarket",
      "type": "error"
    },
    {
      "inputs": [
        {
          "internalType": "uint256",
          "name": "minMarketTokens",
          "type": "uint256"
        },
        {
          "internalType": "uint256",
          "name": "expectedMinMarketTokens",
          "type": "uint256"
        }
      ],
      "name": "InvalidMinMarketTokensForFirstDeposit",
      "type": "error"
    },
    {
      "inputs": [
        {
          "internalType": "int256",
          "name": "poolValue",
          "type": "int256"
        }
      ],
      "name": "InvalidPoolValueForDeposit",
      "type": "error"
    },
    {
      "inputs": [
        {
          "internalType": "address",
          "name": "receiver",
          "type": "address"
        },
        {
          "internalType": "address",
          "name": "expectedReceiver",
          "type": "address"
        }
      ],
      "name": "InvalidReceiverForFirstDeposit",
      "type": "error"
    },
    {
      "inputs": [
        {
          "internalType": "address",
          "name": "market",
          "type": "address"
        }
      ],
      "name": "InvalidSwapMarket",
      "type": "error"
    },
    {
      "inputs": [
        {
          "internalType": "address",
          "name": "outputToken",
          "type": "address"
        },
        {
          "internalType": "address",
          "name": "expectedOutputToken",
          "type": "address"
        }
      ],
      "name": "InvalidSwapOutputToken",
      "type": "error"
    },
    {
      "inputs": [
        {
          "internalType": "uint256",
          "name": "poolAmount",
          "type": "uint256"
        },
        {
          "internalType": "uint256",
          "name": "maxPoolAmount",
          "type": "uint256"
        }
      ],
      "name": "MaxPoolAmountExceeded",
      "type": "error"
    },
    {
      "inputs": [
        {
          "internalType": "uint256",
          "name": "poolAmount",
          "type": "uint256"
        },
        {
          "internalType": "uint256",
          "name": "maxPoolAmountForDeposit",
          "type": "uint256"
        }
      ],
      "name": "MaxPoolAmountForDepositExceeded",
      "type": "error"
    },
    {
      "inputs": [
        {
          "internalType": "uint256[]",
          "name": "minOracleBlockNumbers",
          "type": "uint256[]"
        },
        {
          "internalType": "uint256[]",
          "name": "maxOracleBlockNumbers",
          "type": "uint256[]"
        },
        {
          "internalType": "uint256",
          "name": "blockNumber",
          "type": "uint256"
        }
      ],
      "name": "OracleBlockNumberNotWithinRange",
      "type": "error"
    },
    {
      "inputs": [
        {
          "internalType": "uint256",
          "name": "x",
          "type": "uint256"
        }
      ],
      "name": "PRBMathUD60x18__Exp2InputTooBig",
      "type": "error"
    },
    {
      "inputs": [
        {
          "internalType": "uint256",
          "name": "x",
          "type": "uint256"
        }
      ],
      "name": "PRBMathUD60x18__LogInputTooSmall",
      "type": "error"
    },
    {
      "inputs": [
        {
          "internalType": "uint256",
          "name": "prod1",
          "type": "uint256"
        }
      ],
      "name": "PRBMath__MulDivFixedPointOverflow",
      "type": "error"
    },
    {
      "inputs": [
        {
          "internalType": "int256",
          "name": "pnlToPoolFactor",
          "type": "int256"
        },
        {
          "internalType": "uint256",
          "name": "maxPnlFactor",
          "type": "uint256"
        }
      ],
      "name": "PnlFactorExceededForLongs",
      "type": "error"
    },
    {
      "inputs": [
        {
          "internalType": "int256",
          "name": "pnlToPoolFactor",
          "type": "int256"
        },
        {
          "internalType": "uint256",
          "name": "maxPnlFactor",
          "type": "uint256"
        }
      ],
      "name": "PnlFactorExceededForShorts",
      "type": "error"
    },
    {
      "inputs": [
        {
          "internalType": "address",
          "name": "token",
          "type": "address"
        },
        {
          "internalType": "address",
          "name": "market",
          "type": "address"
        }
      ],
      "name": "UnexpectedTokenForVirtualInventory",
      "type": "error"
    },
    {
      "inputs": [
        {
          "internalType": "int256",
          "name": "usdDelta",
          "type": "int256"
        },
        {
          "internalType": "uint256",
          "name": "poolUsd",
          "type": "uint256"
        }
      ],
      "name": "UsdDeltaExceedsPoolValue",
      "type": "error"
    },
    {
      "anonymous": false,
      "inputs": [
        {
          "indexed": false,
          "internalType": "uint256",
          "name": "pos",
          "type": "uint256"
        },
        {
          "indexed": false,
          "internalType": "uint256",
          "name": "value",
          "type": "uint256"
        }
      ],
      "name": "Debug",
      "type": "event"
    },
    {
      "inputs": [],
      "name": "RECEIVER_FOR_FIRST_DEPOSIT",
      "outputs": [
        {
          "internalType": "address",
          "name": "",
          "type": "address"
        }
      ],
      "stateMutability": "view",
      "type": "function"
    }
  ],
  "bytecode": "0x615e4d6200003b600b82828239805160001a60731461002e57634e487b7160e01b600052600060045260246000fd5b30600052607381538281f3fe73000000000000000000000000000000000000000030146080604052600436106100405760003560e01c80635f973d4f14610045578063f1b65c5114610067575b600080fd5b81801561005157600080fd5b50610065610060366004614b69565b610085565b005b61006f600181565b60405161007c9190614c99565b60405180910390f35b603f5a6100929190614cd9565b82610100018181516100a49190614ced565b9052508151608083015173__$b63e253a228f0e32f671cc49c7fc32477c$__916374b6fe13916100d385515190565b60405160e085901b6001600160e01b03191681526001600160a01b0393841660048201526024810192909252909116604482015260640160006040518083038186803b15801561012257600080fd5b505af4158015610136573d6000803e3d6000fd5b505050506101736040518060c001604052806000815260200160008152602001600081526020016000815260200160008152602001600081525090565b600061017e83515190565b6001600160a01b0316036101a5576040516395b66fe960e01b815260040160405180910390fd5b6101c68360a001518460c001516101c185602001516060015190565b610a8e565b82518251608001516000916101da91610aca565b90506101e7848483610b64565b60006101f7856060015183610c94565b85516020870151845160405163c468d13560e01b81526001600160a01b039384166004820152918316602483015291909116604482015290915073__$e53db83827f4e07ebc418caf7145b8c2d5$__9063c468d1359060640160006040518083038186803b15801561026857600080fd5b505af415801561027c573d6000803e3d6000fd5b505050506102d98560000151838360405160200161029990614d00565b604051602081830303815290604052805190602001206040516020016102be90614d00565b60405160208183030381529060405280519060200120610e0a565b61030c856102e9865160e0015190565b865160a00151602088015151865160408801518a5160600151610e8f565b610e8f565b83526103408561031f8651610100015190565b865160c001516020808901510151865160608801516103078b516060015190565b6020840152825115801561035657506020830151155b156103745760405163d1c3d5bd60e01b815260040160405180910390fd5b6103818160200151611077565b835161038d9190614d35565b8360400181815250506103a38160400151611077565b83602001516103b29190614d35565b83606001818152505061045360405180610100016040528087600001516001600160a01b0316815260200184815260200184604001516001600160a01b0316815260200184606001516001600160a01b031681526020016104168460200151611077565b81526020016104288460400151611077565b815260200161043a8660400151611099565b815260200161044c8660600151611099565b9052611107565b60a0840152600080516020615df8833981519152600a61047886602001516040015190565b604051610486929190614d4c565b60405180910390a18251156105825760006040518061014001604052808481526020016104b287515190565b6001600160a01b031681526020016104cc87516020015190565b6001600160a01b031681526020016104e687516060015190565b6001600160a01b0316815260200184604001516001600160a01b0316815260200184606001516001600160a01b0316815260200183602001518152602001836040015181526020018560000151815260200161055e8660a001518760400151886060015189604001516105599190614d5a565b6111e8565b9052905061056c86826111ff565b8460800181815161057d9190614d5a565b905250505b6020830151156106745760006040518061014001604052808481526020016105a987515190565b6001600160a01b031681526020016105c387516020015190565b6001600160a01b031681526020016105dd87516060015190565b6001600160a01b0316815260200184606001516001600160a01b0316815260200184604001516001600160a01b031681526020018360400151815260200183602001518152602001856020015181526020016106508660a001518760600151886060015189604001516105599190614d5a565b9052905061065e86826111ff565b8460800181815161066f9190614d5a565b905250505b600080516020615df883398151915260658460800151604051610698929190614d4c565b60405180910390a184516040516339b1348f60e01b815273__$e53db83827f4e07ebc418caf7145b8c2d5$__916339b1348f916106da91908690600401614da0565b60006040518083038186803b1580156106f257600080fd5b505af4158015610706573d6000803e3d6000fd5b5050505073__$c1a7af12cfab3fde53a677c13aea00f1f1$__6311f35ffd8660200151876080015161073788515190565b8751602089015160808a015160405160e088901b6001600160e01b03191681526001600160a01b03968716600482015260248101959095529490921660448401526064830152608482015260a481019190915260c40160006040518083038186803b1580156107a557600080fd5b505af41580156107b9573d6000803e3d6000fd5b50505050600073__$e53db83827f4e07ebc418caf7145b8c2d5$__63f2e2a4f58760000151858560000151866020015187604001516040516020016107fd90614d00565b6040516020818303038152906040528051906020012060016040518863ffffffff1660e01b81526004016108379796959493929190614dbd565b61016060405180830381865af4158015610855573d6000803e3d6000fd5b505050506040513d601f19601f820116820180604052508101906108799190614e2a565b9050600061088a84600001516119f3565b905073__$c1eebf06e53d0bd092f667687cf73e1ebf$__631382311188602001516040516020016108d69060208082526007908201526611115413d4d25560ca1b604082015260600190565b60408051601f1981840301815290829052805160209091012060808c015189516001600160e01b031960e087901b168452610918949389908990600401614f2f565b60006040518083038186803b15801561093057600080fd5b505af4158015610944573d6000803e3d6000fd5b505050506109506145cc565b6020810151610960906001611a57565b6109ac60006040518060400160405280601481526020017372656365697665644d61726b6574546f6b656e7360601b81525088608001518460200151611abc909392919063ffffffff16565b6109bb88608001518883611b0f565b73__$60bb1dd4670b1e26e5010aaaf2f65694d3$__634bf2a26d89600001518a602001518b604001516109f38c602001516080015190565b6101008e015160e08f01518e515160405160e089901b6001600160e01b03191681526001600160a01b0397881660048201529587166024870152938616604486015260648501929092526084840152831660a483015290911660c482015260e40160006040518083038186803b158015610a6c57600080fd5b505af4158015610a80573d6000803e3d6000fd5b505050505050505050505050565b610a99838383611bde565b610ac557828282604051633e0fa80560e11b8152600401610abc93929190614fb0565b60405180910390fd5b505050565b610ad26146bd565b60405163a8d8fff560e01b815260009073__$ff439aa65a80c9eec648f15db20b189505$__9063a8d8fff590610b0e9087908790600401614fe6565b608060405180830381865af4158015610b2b573d6000803e3d6000fd5b505050506040513d601f19601f82011682018060405250810190610b4f9190615000565b9050610b5b8482611c16565b90505b92915050565b6000610b7382600001516119f3565b90508015610b815750505050565b600084600001516001600160a01b031663bd02d0f5610ba38560000151611cdf565b6040518263ffffffff1660e01b8152600401610bc191815260200190565b602060405180830381865afa158015610bde573d6000803e3d6000fd5b505050506040513d601f19601f82011682018060405250810190610c029190615084565b905080600003610c13575050505050565b6001610c2185516020015190565b6001600160a01b031614610c52578351602001516001604051630efd1cd360e31b8152600401610abc929190614fe6565b80610c6285602001516040015190565b1015610c8d5760208401516040015181604051633f9c06ab60e01b8152600401610abc929190614d4c565b5050505050565b610c9c6146e4565b6040518060600160405280846001600160a01b0316635dcf719485602001516040518263ffffffff1660e01b8152600401610cd79190614c99565b6040805180830381865afa158015610cf3573d6000803e3d6000fd5b505050506040513d601f19601f82011682018060405250810190610d17919061509d565b8152602001846001600160a01b0316635dcf719485604001516040518263ffffffff1660e01b8152600401610d4c9190614c99565b6040805180830381865afa158015610d68573d6000803e3d6000fd5b505050506040513d601f19601f82011682018060405250810190610d8c919061509d565b8152602001846001600160a01b0316635dcf719485606001516040518263ffffffff1660e01b8152600401610dc19190614c99565b6040805180830381865afa158015610ddd573d6000803e3d6000fd5b505050506040513d601f19601f82011682018060405250810190610e01919061509d565b90529392505050565b6000806000610e1d888888600189611d78565b9250925092508215610e46578181604051630b92fb2560e41b8152600401610abc929190614d4c565b6000806000610e598b8b8b60008b611d78565b9250925092508215610e82578181604051632c0041a560e21b8152600401610abc929190614d4c565b5050505050505050505050565b600080610ea0896000015189611dcc565b905060008073__$2ebd8d293950cf319742e0db402ead4961$__635706dc466040518061018001604052808e600001516001600160a01b031681526020018e602001516001600160a01b031681526020018e606001516001600160a01b031681526020018e604001516001600160a01b031681526020018e6080015181526020018c6001600160a01b031681526020018b8152602001868152602001600081526020018a6001600160a01b03168152602001886001600160a01b03168152602001600015158152506040518263ffffffff1660e01b8152600401610f849190615125565b6040805180830381865af4158015610fa0573d6000803e3d6000fd5b505050506040513d601f19601f82011682018060405250810190610fc49190615200565b91509150856001600160a01b0316826001600160a01b031614610ffe578186604051636ba3dd8b60e01b8152600401610abc929190614fe6565b8a51604051633db3964d60e11b815273__$e53db83827f4e07ebc418caf7145b8c2d5$__91637b672c9a916110389190879060040161522e565b60006040518083038186803b15801561105057600080fd5b505af4158015611064573d6000803e3d6000fd5b50929d9c50505050505050505050505050565b600060028260000151836020015161108f9190614d5a565b610b5e9190614cd9565b60006001600160ff1b038211156111035760405162461bcd60e51b815260206004820152602860248201527f53616665436173743a2076616c756520646f65736e27742066697420696e2061604482015267371034b73a191a9b60c11b6064820152608401610abc565b5090565b60008061111383611e92565b9050600061112a8460000151856020015184611ee3565b90506000811261113b579392505050565b60008060006111568760000151886020015160000151612001565b9250925092508261116c57509195945050505050565b6000808860200151604001516001600160a01b031689604001516001600160a01b03160361119e5750829050816111a4565b50819050825b60006111b18a8484612199565b905060006111c88b600001518c6020015184611ee3565b90508781126111d757876111d9565b805b9b9a5050505050505050505050565b60006111f58385846122a7565b90505b9392505050565b60008061122c846000015184600001516000015185610100015160008761012001511387606001516122f0565b84516020808701518651516080880151855160405196975073__$00d18be641c3a4f9ed15a2e39383149bb3$__966383789c80969561126b9101615252565b60408051601f198184030181529082905280516020909101206001600160e01b031960e089901b1682526001600160a01b0396871660048301529486166024820152928516604484015293166064820152608481019290925260a482015260c40160006040518083038186803b1580156112e457600080fd5b505af41580156112f8573d6000803e3d6000fd5b5050505073__$00d18be641c3a4f9ed15a2e39383149bb3$__63214516ab85600001518660200151866060015187600001516000015188608001518760a0015160405160200161136f9060208082526013908201527255495f4445504f5349545f4645455f5459504560681b604082015260600190565b60408051808303601f1901815290829052805160209091012060e089901b6001600160e01b03191682526001600160a01b039788166004830152958716602482015293861660448501529185166064840152909316608482015260a481019290925260c482015260e40160006040518083038186803b1580156113f157600080fd5b505af4158015611405573d6000803e3d6000fd5b5050505073__$37ccc826b10054fe27f32c30ea3a599925$__638860ae4c8560200151866080015186600001516000015187608001518860c001516000015160405160200161145390615252565b60408051601f1981840301815282825280516020918201206001600160e01b031960e08b901b1684526001600160a01b039889166004850152602484019790975294871660448301529286166064820152608481019190915260a4810193909352865160c48401529086015160e48301528501516101048201526060850151909116610124820152608084015161014482015260a08401516101648201526101840160006040518083038186803b15801561150d57600080fd5b505af4158015611521573d6000803e3d6000fd5b5050505060008073__$e53db83827f4e07ebc418caf7145b8c2d5$__63f2e2a4f58760000151876000015189606001516001600160a01b0316635dcf71948a60000151602001516040518263ffffffff1660e01b81526004016115849190614c99565b6040805180830381865afa1580156115a0573d6000803e3d6000fd5b505050506040513d601f19601f820116820180604052508101906115c4919061509d565b8960000151604001516001600160a01b03168a608001516001600160a01b0316146115f3578960e001516115f9565b8960c001515b8a60000151606001516001600160a01b03168b608001516001600160a01b031614611628578a60e0015161162e565b8a60c001515b60405160200161163d90614d00565b6040516020818303038152906040528051906020012060016040518863ffffffff1660e01b81526004016116779796959493929190614dbd565b61016060405180830381865af4158015611695573d6000803e3d6000fd5b505050506040513d601f19601f820116820180604052508101906116b99190614e2a565b90506000816000015112156116e757805160405163adaa688d60e01b81526004810191909152602401610abc565b60006116f682600001516124c3565b865151909150600090611708906119f3565b835190915015801561171a5750600081115b1561173e57825160405163adaa688d60e01b81526004810191909152602401610abc565b60208801516080890151885151604051636a9231d960e11b815273__$c1eebf06e53d0bd092f667687cf73e1ebf$__9363d52463b2936117899391929091908990889060040161527c565b60006040518083038186803b1580156117a157600080fd5b505af41580156117b5573d6000803e3d6000fd5b5050505060008761012001511380156117cc575080155b156117da5760006101208801525b6000876101200151131561188d57600061181589600001518a602001518a60000151600001518b60a001518c60e001518d6101200151612515565b905061183d8860e001516020015161182c836124c3565b6118369190614d35565b8484612548565b6118479086614d5a565b895160208b01518a5160a08c0151939850611862938561259b565b508851885160a08a01516118779291906126ee565b8851885160a08a015161188b929190612735565b505b600087610120015112156118f15760006118c889600001518a602001518a60000151600001518b608001518c60c001518d6101200151612515565b90506118db6118d6826152ba565b6124c3565b866040018181516118ec9190614ced565b905250505b60c08701515160408601516119109161190991614d35565b8383612548565b61191a9085614d5a565b93506119548860000151896020015189600001518a6080015161194f8a602001518b6040015161194a9190614d5a565b611099565b61259b565b508751875160808901516119699291906126ee565b87518751608089015161197d929190612735565b86515160408089015190516340c10f1960e01b81526001600160a01b039182166004820152602481018790529116906340c10f1990604401600060405180830381600087803b1580156119cf57600080fd5b505af11580156119e3573d6000803e3d6000fd5b50959a9950505050505050505050565b6000816001600160a01b03166318160ddd6040518163ffffffff1660e01b8152600401602060405180830381865afa158015611a33573d6000803e3d6000fd5b505050506040513d601f19601f82011682018060405250810190610b5e9190615084565b806001600160401b03811115611a6f57611a6f614792565b604051908082528060200260200182016040528015611ab557816020015b604080518082019091526060815260006020820152815260200190600190039081611a8d5790505b5090915250565b8184600001518481518110611ad357611ad36152d6565b6020026020010151600001819052508084600001518481518110611af957611af96152d6565b6020026020010151602001818152505050505050565b611b23611b1e83516040015190565b61277c565b611b2c57505050565b8151604001516001600160a01b031663a02ba64d611b4f846020015160a0015190565b8585856040518563ffffffff1660e01b8152600401611b7093929190615c12565b600060405180830381600088803b158015611b8a57600080fd5b5087f193505050508015611b9c575060015b610ac5577fc88199840f217e7d43d02cf94a25815d58c5767e400ab42127814d4d6265c1bf8383604051611bd1929190615ce1565b60405180910390a1505050565b6000611bea84836127b3565b611bf6575060006111f8565b611c0083836127fd565b611c0c575060006111f8565b5060019392505050565b80516001600160a01b0316611c3e576040516302fde0d760e11b815260040160405180910390fd5b6000826001600160a01b0316637ae1cfca611c5c8460000151612847565b6040518263ffffffff1660e01b8152600401611c7a91815260200190565b602060405180830381865afa158015611c97573d6000803e3d6000fd5b505050506040513d601f19601f82011682018060405250810190611cbb9190615cfa565b90508015610ac55781516040516309f8c93760e01b8152610abc9190600401614c99565b6000604051602001611d2e9060208082526023908201527f4d494e5f4d41524b45545f544f4b454e535f464f525f46495253545f4445504f60408201526214d25560ea1b606082015260800190565b60408051601f198184030181528282528051602091820120908301526001600160a01b03841690820152606001604051602081830303815290604052805190602001209050919050565b600080600080611d8c89898989600161287f565b90506000611da08a878b600001518a6128cf565b905060008083138015611dba575081611db8846124c3565b115b9b929a50909850909650505050505050565b6060600082516001600160401b03811115611de957611de9614792565b604051908082528060200260200182016040528015611e2257816020015b611e0f6146bd565b815260200190600190039081611e075790505b50905060005b8351811015611e8a576000848281518110611e4557611e456152d6565b60200260200101519050611e59868261294a565b838381518110611e6b57611e6b6152d6565b6020026020010181905250508080611e8290615d17565b915050611e28565b509392505050565b611e9a614711565b6000611eb38360000151846020015185604001516129db565b90506000611ece8460000151856020015186606001516129db565b9050611edb848383612199565b949350505050565b600080611ef883600001518460200151612a79565b90506000611f0e84604001518560600151612a79565b60608501516040860151602087015187518951949550111591101514906000906001600160a01b0389169063bd02d0f590611f4890612a9b565b6040518263ffffffff1660e01b8152600401611f6691815260200190565b602060405180830381865afa158015611f83573d6000803e3d6000fd5b505050506040513d601f19601f82011682018060405250810190611fa79190615084565b90508115611fdf57865184841090600090611fc4908b9084612adc565b9050611fd286868386612b06565b96505050505050506111f8565b600080611ff08a8a60000151612b38565b91509150611fd28686848487612c4c565b600080600080856001600160a01b031663a6ed563e61201f87612c95565b6040518263ffffffff1660e01b815260040161203d91815260200190565b602060405180830381865afa15801561205a573d6000803e3d6000fd5b505050506040513d601f19601f8201168201806040525081019061207e9190615084565b90508061209657600080600093509350935050612192565b6001866001600160a01b031663bd02d0f56120b2846001612ccc565b6040518263ffffffff1660e01b81526004016120d091815260200190565b602060405180830381865afa1580156120ed573d6000803e3d6000fd5b505050506040513d601f19601f820116820180604052508101906121119190615084565b876001600160a01b031663bd02d0f561212b856000612ccc565b6040518263ffffffff1660e01b815260040161214991815260200190565b602060405180830381865afa158015612166573d6000803e3d6000fd5b505050506040513d601f19601f8201168201806040525081019061218a9190615084565b935093509350505b9250925092565b6121a1614711565b60008460800151846121b39190614d35565b905060008560a00151846121c79190614d35565b905060008660c001511280156121ec5750816121ea8760c001516118d6906152ba565b115b15612212578560c0015182604051632e94940960e01b8152600401610abc929190614d4c565b60008660e001511280156122355750806122338760e001516118d6906152ba565b115b1561225b578560e0015181604051632e94940960e01b8152600401610abc929190614d4c565b600061226b838860c00151612d58565b9050600061227d838960e00151612d58565b60408051608081018252958652602086019490945292840191909152506060820152949350505050565b6000806122bd856122b786612d8f565b85612da2565b9050600084136122de576122d081611099565b6122d9906152ba565b6122e7565b6122e781611099565b95945050505050565b6122f8614739565b612300614739565b6000876001600160a01b031663bd02d0f561231b8988612daf565b6040518263ffffffff1660e01b815260040161233991815260200190565b602060405180830381865afa158015612356573d6000803e3d6000fd5b505050506040513d601f19601f8201168201806040525081019061237a9190615084565b90506000886001600160a01b031663bd02d0f56040516020016123c99060208082526018908201527729aba0a82fa322a2afa922a1a2a4ab22a92fa320a1aa27a960411b604082015260600190565b604051602081830303815290604052805190602001206040518263ffffffff1660e01b81526004016123fd91815260200190565b602060405180830381865afa15801561241a573d6000803e3d6000fd5b505050506040513d601f19601f8201168201806040525081019061243e9190615084565b9050600061244c8884612e1e565b90506124588183612e1e565b8085526124659082614ced565b60208501526001600160a01b03861660608501526124838a87612e37565b60808501819052612495908990612e1e565b60a085018190526124a6828a614ced565b6124b09190614ced565b6040850152509198975050505050505050565b6000808212156111035760405162461bcd60e51b815260206004820181905260248201527f53616665436173743a2076616c7565206d75737420626520706f7369746976656044820152606401610abc565b6000806125258887878787612f7d565b905061253c88888888612537866152ba565b612fdf565b50979650505050505050565b600081158015612556575082155b1561256b576125648461309e565b90506111f8565b811580156125795750600083115b156125905761256461258b8585614d5a565b61309e565b6111f5828585612da2565b600080866001600160a01b03166332f85bbf6125bb8760000151876130af565b6040516001600160e01b031960e084901b16815260048101919091526024810186905260606044820152602260648201527f496e76616c69642073746174652c206e6567617469766520706f6f6c416d6f756084820152611b9d60f21b60a482015260c4016020604051808303816000875af115801561263f573d6000803e3d6000fd5b505050506040513d601f19601f820116820180604052508101906126639190615084565b9050612672878787878761311d565b50508451604051631daaefa160e01b815273__$c1eebf06e53d0bd092f667687cf73e1ebf$__91631daaefa1916126b3918a91899089908890600401615d30565b60006040518083038186803b1580156126cb57600080fd5b505af41580156126df573d6000803e3d6000fd5b50929998505050505050505050565b60006126fb8484846129db565b9050600061270e858560000151856132e5565b905080821115610c8d578181604051636e28a3a160e01b8152600401610abc929190614d4c565b60006127428484846129db565b905060006127558585600001518561335f565b905080821115610c8d578181604051636429ff3f60e01b8152600401610abc929190614d4c565b60006001600160a01b03821661279457506000919050565b6001600160a01b0382163b6127ab57506000919050565b506001919050565b6000805b8351811015611c0c57828482815181106127d3576127d36152d6565b602002602001015111156127eb576000915050610b5e565b806127f581615d17565b9150506127b7565b6000805b8351811015611c0c578284828151811061281d5761281d6152d6565b60200260200101511015612835576000915050610b5e565b8061283f81615d17565b915050612801565b6000604051602001611d2e906020808252601290820152711254d7d3505492d15517d11254d05093115160721b604082015260600190565b60008061289087878787871561337a565b9050806000036128a45760009150506122e7565b60006128b7888888600001518888613400565b90506128c3818361347d565b98975050505050505050565b6000846001600160a01b031663bd02d0f56128eb8686866134bc565b6040518263ffffffff1660e01b815260040161290991815260200190565b602060405180830381865afa158015612926573d6000803e3d6000fd5b505050506040513d601f19601f820116820180604052508101906122e79190615084565b6129526146bd565b60405163a8d8fff560e01b815260009073__$ff439aa65a80c9eec648f15db20b189505$__9063a8d8fff59061298e9087908790600401614fe6565b608060405180830381865af41580156129ab573d6000803e3d6000fd5b505050506040513d601f19601f820116820180604052508101906129cf9190615000565b9050610b5b848261354b565b6000806129f084604001518560600151613596565b905080856001600160a01b031663bd02d0f5612a108760000151876130af565b6040518263ffffffff1660e01b8152600401612a2e91815260200190565b602060405180830381865afa158015612a4b573d6000803e3d6000fd5b505050506040513d601f19601f82011682018060405250810190612a6f9190615084565b6122e79190614cd9565b6000818311612a9157612a8c8383614ced565b610b5b565b610b5b8284614ced565b6000604051602001611d2e906020808252601b908201527a29aba0a82fa4a6a820a1aa2fa2ac2827a722a72a2fa320a1aa27a960291b604082015260600190565b6000806000612aeb8686612b38565b9150915083612afa5780612afc565b815b9695505050505050565b600084841081612b2a612b1a8887876135c5565b612b258888886135c5565b612a79565b905060006128c382846135de565b6000806000846001600160a01b031663bd02d0f5612b57866001613601565b6040518263ffffffff1660e01b8152600401612b7591815260200190565b602060405180830381865afa158015612b92573d6000803e3d6000fd5b505050506040513d601f19601f82011682018060405250810190612bb69190615084565b90506000856001600160a01b031663bd02d0f5612bd4876000613601565b6040518263ffffffff1660e01b8152600401612bf291815260200190565b602060405180830381865afa158015612c0f573d6000803e3d6000fd5b505050506040513d601f19601f82011682018060405250810190612c339190615084565b905080821115612c41578091505b909590945092505050565b600080612c5a8786856135c5565b90506000612c698786866135c5565b90506000612c778383612a79565b90506000612c87828486116135de565b9a9950505050505050505050565b6000604051602001611d2e906020808252601190820152701592549515505317d3505492d15517d251607a1b604082015260600190565b6000604051602001612d0d906020808252601b908201527a5649525455414c5f494e56454e544f52595f464f525f535741505360281b604082015260600190565b60408051601f19818403018152828252805160209182012090830152810184905282151560608201526080015b60405160208183030381529060405280519060200120905092915050565b600080821315612d7c57612d6b82612d8f565b612d759084614d5a565b9050610b5e565b612d8582612d8f565b610b5b9084614ced565b6000808212156111035781600003610b5e565b60006111f5848484613639565b6000604051602001612de4906020808252600f908201526e29aba0a82fa322a2afa320a1aa27a960891b604082015260600190565b60408051601f198184030181528282528051602091820120908301526001600160a01b038516908201528215156060820152608001612d3a565b6000610b5b838368327cb2734119d3b7a9601e1b612da2565b600080836001600160a01b031663bd02d0f5604051602001612e7e9060208082526011908201527026a0ac2faaa4afa322a2afa320a1aa27a960791b604082015260600190565b604051602081830303815290604052805190602001206040518263ffffffff1660e01b8152600401612eb291815260200190565b602060405180830381865afa158015612ecf573d6000803e3d6000fd5b505050506040513d601f19601f82011682018060405250810190612ef39190615084565b90506000846001600160a01b031663bd02d0f5612f0f86613723565b6040518263ffffffff1660e01b8152600401612f2d91815260200190565b602060405180830381865afa158015612f4a573d6000803e3d6000fd5b505050506040513d601f19601f82011682018060405250810190612f6e9190615084565b9050818110611edb57816122e7565b6000806000831315612fc657612f968460200151611099565b612fa09084615d64565b90506000612fb261194a898989613756565b905080821315612fc0578091505b50612afc565b612fd4838560000151613771565b979650505050505050565b600080866001600160a01b0316638ca498b0612ffb87876137de565b856040518363ffffffff1660e01b8152600401613019929190614d4c565b6020604051808303816000875af1158015613038573d6000803e3d6000fd5b505050506040513d601f19601f8201168201806040525081019061305c9190615084565b604051630553bdb560e11b815290915073__$c1eebf06e53d0bd092f667687cf73e1ebf$__90630aa77b6a906126b39089908990899089908890600401615d30565b6000610b5e64e8d4a5100083614cd9565b60006040516020016130e0906020808252600b908201526a1413d3d317d05353d5539560aa1b604082015260600190565b60408051601f198184030181528282528051602091820120908301526001600160a01b038086169183019190915283166060820152608001612d3a565b6000806000876001600160a01b031663a6ed563e61313e8860000151612c95565b6040518263ffffffff1660e01b815260040161315c91815260200190565b602060405180830381865afa158015613179573d6000803e3d6000fd5b505050506040513d601f19601f8201168201806040525081019061319d9190615084565b9050806131b15760008092509250506132db565b60006131bd878761381b565b90506000896001600160a01b0316638ca498b06131da8585612ccc565b886040518363ffffffff1660e01b81526004016131f8929190614d4c565b6020604051808303816000875af1158015613217573d6000803e3d6000fd5b505050506040513d601f19601f8201168201806040525081019061323b9190615084565b885160405163a814bb6f60e01b81526001600160a01b03808d16600483015290911660248201528315156044820152606481018590526084810188905260a4810182905290915073__$c1eebf06e53d0bd092f667687cf73e1ebf$__9063a814bb6f9060c40160006040518083038186803b1580156132b957600080fd5b505af41580156132cd573d6000803e3d6000fd5b506001975092955050505050505b9550959350505050565b6000836001600160a01b031663bd02d0f56133008585613893565b6040518263ffffffff1660e01b815260040161331e91815260200190565b602060405180830381865afa15801561333b573d6000803e3d6000fd5b505050506040513d601f19601f820116820180604052508101906111f59190615084565b6000836001600160a01b031663bd02d0f561330085856138d4565b6000808361338c578560600151613392565b85604001515b905060006133a18888846129db565b9050600084156133cf57856133be578660400151602001516133c8565b8660200151602001515b90506133e9565b856133df576040870151516133e6565b6020870151515b90505b6133f38183614d35565b9998505050505050505050565b60008061341161194a888887613909565b9050600061342088888761395c565b905081158061342d575080155b1561343d576000925050506122e7565b600061344a8787876139a3565b9050600061345b61194a8385614d35565b90506000876134735761346e8286615d92565b6111d9565b6111d98583615d92565b60008061349261348c85612d8f565b846139da565b9050600084136134b3576134a581611099565b6134ae906152ba565b611edb565b611edb81611099565b60006040516020016134f0906020808252600e908201526d26a0ac2fa827262fa320a1aa27a960911b604082015260600190565b60408051601f1981840301815282825280516020918201209083015281018590526001600160a01b0384166060820152821515608082015260a0015b6040516020818303038152906040528051906020012090509392505050565b6135558282611c16565b80606001516001600160a01b031681604001516001600160a01b0316036135925780516040516332e6f44d60e21b8152610abc9190600401614c99565b5050565b6000816001600160a01b0316836001600160a01b0316146135b85760016135bb565b60025b60ff169392505050565b6000806135d285846139e8565b90506122e78185612e1e565b600081156135ef57612d7583611099565b6135f883611099565b612d75906152ba565b6000604051602001612de49060208082526012908201527129aba0a82fa4a6a820a1aa2fa320a1aa27a960711b604082015260600190565b60008080600019858709858702925082811083820303915050806000036136735783828161366957613669614cad565b04925050506111f8565b8084116136ba5760405162461bcd60e51b81526020600482015260156024820152744d6174683a206d756c446976206f766572666c6f7760581b6044820152606401610abc565b60008486880960026001871981018816978890046003810283188082028403028082028403028082028403028082028403028082028403029081029092039091026000889003889004909101858311909403939093029303949094049190911702949350505050565b6000604051602001611d2e906020808252600d908201526c2aa4afa322a2afa320a1aa27a960991b604082015260600190565b6000836001600160a01b031663bd02d0f561330085856137de565b6000808312156137ac5761378482611099565b61378d83611099565b6137979085615d92565b6137a2906001615db9565b612d759190615d64565b6137b582611099565b60016137c084611099565b6137ca9086615db9565b6137d49190615d92565b610b5b9190615d64565b60006040516020016130e09060208082526017908201527614d5d05417d253541050d517d413d3d317d05353d55395604a1b604082015260600190565b600082604001516001600160a01b0316826001600160a01b031614158015613859575082606001516001600160a01b0316826001600160a01b031614155b1561387b57825160405163785ee46960e01b8152610abc918491600401614fe6565b506040909101516001600160a01b0391821691161490565b60006040516020016130e0906020808252601b908201527a13505617d413d3d317d05353d5539517d193d497d1115413d4d255602a1b604082015260600190565b60006040516020016130e0906020808252600f908201526e13505617d413d3d317d05353d55395608a1b604082015260600190565b60008061391e84604001518560600151613596565b9050600061393786866000015187604001518786613a47565b9050600061395087876000015188606001518887613a47565b9050612fd48183614d5a565b60008061397184604001518560600151613596565b9050600061398a86866000015187604001518786613acd565b9050600061395087876000015188606001518887613acd565b600082156139c257816139b7578351612564565b5060208301516111f8565b816139d15783602001516111f5565b50509051919050565b6000610b5b83836000613aea565b600068327cb2734119d3b7a9601e1b831015613a0657506000610b5e565b68327cb2734119d3b7a9601e1b8203613a20575081610b5e565b6000613a3c613a2e8561309e565b613a378561309e565b613b32565b9050611edb81613b72565b600081866001600160a01b031663bd02d0f5613a64888888613b83565b6040518263ffffffff1660e01b8152600401613a8291815260200190565b602060405180830381865afa158015613a9f573d6000803e3d6000fd5b505050506040513d601f19601f82011682018060405250810190613ac39190615084565b612afc9190614cd9565b600081866001600160a01b031663bd02d0f5613a64888888613bfb565b600083600003613afc575060006111f8565b8115613b1b576125648468327cb2734119d3b7a9601e1b856001613c38565b6111f58468327cb2734119d3b7a9601e1b85613639565b600082600003613b58578115613b49576000612d75565b50670de0b6b3a7640000610b5e565b610b5b613b6d613b6785613c89565b84613d3f565b613d4b565b6000610b5e64e8d4a5100083614d35565b6000604051602001613bb6906020808252600d908201526c13d4115397d2539511549154d5609a1b604082015260600190565b60408051601f198184030181528282528051602091820120908301526001600160a01b038087169183019190915284166060820152821515608082015260a00161352c565b6000604051602001613bb6906020808252601790820152764f50454e5f494e5445524553545f494e5f544f4b454e5360481b604082015260600190565b600080613c46868686613639565b90506001836002811115613c5c57613c5c615de1565b148015613c79575060008480613c7457613c74614cad565b868809115b156122e757612afc600182614d5a565b6000670de0b6b3a7640000821015613cb757604051633621413760e21b815260048101839052602401610abc565b6000613ccc670de0b6b3a76400008404613d91565b670de0b6b3a764000081029250905082811c670de0b6b3a763ffff198101613cf5575050919050565b6706f05b59d3b200005b8015613d3757670de0b6b3a7640000828002049150671bc16d674ec800008210613d2f579283019260019190911c905b60011c613cff565b505050919050565b6000610b5b8383613e74565b6000680a688906bd8b0000008210613d7957604051634a4f26f160e01b815260048101839052602401610abc565b670de0b6b3a7640000604083901b046111f881613f3a565b6000600160801b8210613db157608091821c91613dae9082614d5a565b90505b600160401b8210613dcf57604091821c91613dcc9082614d5a565b90505b600160201b8210613ded57602091821c91613dea9082614d5a565b90505b620100008210613e0a57601091821c91613e079082614d5a565b90505b6101008210613e2657600891821c91613e239082614d5a565b90505b60108210613e4157600491821c91613e3e9082614d5a565b90505b60048210613e5c57600291821c91613e599082614d5a565b90505b60028210613e6f57610b5e600182614d5a565b919050565b60008080600019848609848602925082811083820303915050670de0b6b3a76400008110613eb85760405163698d9a0160e11b815260048101829052602401610abc565b600080670de0b6b3a764000086880991506706f05b59d3b1ffff8211905082600003613ef65780670de0b6b3a7640000850401945050505050610b5e565b620400008285030493909111909103600160ee1b02919091177faccb18165bd6fe31ae1cf318dc5b51eee0e1ba569b88cd74c1773b91fac106690201905092915050565b600160bf1b6001603f1b821615613f5a5768016a09e667f3bcc9090260401c5b6001603e1b821615613f75576801306fe0a31b7152df0260401c5b6001603d1b821615613f90576801172b83c7d517adce0260401c5b6001603c1b821615613fab5768010b5586cf9890f62a0260401c5b6001603b1b821615613fc6576801059b0d31585743ae0260401c5b6001603a1b821615613fe157680102c9a3e778060ee70260401c5b600160391b821615613ffc5768010163da9fb33356d80260401c5b600160381b82161561401757680100b1afa5abcbed610260401c5b600160371b8216156140325768010058c86da1c09ea20260401c5b600160361b82161561404d576801002c605e2e8cec500260401c5b600160351b82161561406857680100162f3904051fa10260401c5b600160341b821615614083576801000b175effdc76ba0260401c5b600160331b82161561409e57680100058ba01fb9f96d0260401c5b600160321b8216156140b95768010002c5cc37da94920260401c5b600160311b8216156140d4576801000162e525ee05470260401c5b600160301b8216156140ef5768010000b17255775c040260401c5b6001602f1b82161561410a576801000058b91b5bc9ae0260401c5b6001602e1b82161561412557680100002c5c89d5ec6d0260401c5b6001602d1b8216156141405768010000162e43f4f8310260401c5b6001602c1b82161561415b57680100000b1721bcfc9a0260401c5b6001602b1b8216156141765768010000058b90cf1e6e0260401c5b6001602a1b821615614191576801000002c5c863b73f0260401c5b600160291b8216156141ac57680100000162e430e5a20260401c5b600160281b8216156141c7576801000000b1721835510260401c5b600160271b8216156141e257680100000058b90c0b490260401c5b600160261b8216156141fd5768010000002c5c8601cc0260401c5b600160251b821615614218576801000000162e42fff00260401c5b600160241b8216156142335768010000000b17217fbb0260401c5b600160231b82161561424e576801000000058b90bfce0260401c5b600160221b82161561426957680100000002c5c85fe30260401c5b600160211b8216156142845768010000000162e42ff10260401c5b600160201b82161561429f57680100000000b17217f80260401c5b63800000008216156142ba5768010000000058b90bfc0260401c5b63400000008216156142d5576801000000002c5c85fe0260401c5b63200000008216156142f057680100000000162e42ff0260401c5b631000000082161561430b576801000000000b17217f0260401c5b630800000082161561432657680100000000058b90c00260401c5b63040000008216156143415768010000000002c5c8600260401c5b630200000082161561435c576801000000000162e4300260401c5b63010000008216156143775768010000000000b172180260401c5b62800000821615614391576801000000000058b90c0260401c5b624000008216156143ab57680100000000002c5c860260401c5b622000008216156143c55768010000000000162e430260401c5b621000008216156143df57680100000000000b17210260401c5b620800008216156143f95768010000000000058b910260401c5b62040000821615614413576801000000000002c5c80260401c5b6202000082161561442d57680100000000000162e40260401c5b620100008216156144465761b172600160401b010260401c5b61800082161561445e576158b9600160401b010260401c5b61400082161561447657612c5d600160401b010260401c5b61200082161561448e5761162e600160401b010260401c5b6110008216156144a657610b17600160401b010260401c5b6108008216156144be5761058c600160401b010260401c5b6104008216156144d6576102c6600160401b010260401c5b6102008216156144ee57610163600160401b010260401c5b6101008216156145055760b1600160401b010260401c5b608082161561451b576059600160401b010260401c5b604082161561453157602c600160401b010260401c5b6020821615614547576016600160401b010260401c5b601082161561455d57600b600160401b010260401c5b6008821615614573576006600160401b010260401c5b6004821615614589576003600160401b010260401c5b600282161561459f576001600160401b010260401c5b60018216156145b5576001600160401b010260401c5b670de0b6b3a76400000260409190911c60bf031c90565b604080516101208101909152606060e082018181526101008301919091528190815260200161460e604051806040016040528060608152602001606081525090565b8152602001614630604051806040016040528060608152602001606081525090565b8152602001614652604051806040016040528060608152602001606081525090565b8152602001614674604051806040016040528060608152602001606081525090565b8152602001614696604051806040016040528060608152602001606081525090565b81526020016146b8604051806040016040528060608152602001606081525090565b905290565b60408051608081018252600080825260208201819052918101829052606081019190915290565b60405180606001604052806146f7614778565b8152602001614704614778565b81526020016146b8614778565b6040518060800160405280600081526020016000815260200160008152602001600081525090565b6040518060c0016040528060008152602001600081526020016000815260200160006001600160a01b0316815260200160008152602001600081525090565b604051806040016040528060008152602001600081525090565b634e487b7160e01b600052604160045260246000fd5b604051606081016001600160401b03811182821017156147ca576147ca614792565b60405290565b60405161012081016001600160401b03811182821017156147ca576147ca614792565b60405161016081016001600160401b03811182821017156147ca576147ca614792565b604051601f8201601f191681016001600160401b038111828210171561483e5761483e614792565b604052919050565b6001600160a01b038116811461485b57600080fd5b50565b8035613e6f81614846565b60006001600160401b0382111561488257614882614792565b5060051b60200190565b600082601f83011261489d57600080fd5b813560206148b26148ad83614869565b614816565b82815260059290921b840181019181810190868411156148d157600080fd5b8286015b848110156148ec57803583529183019183016148d5565b509695505050505050565b600082601f83011261490857600080fd5b813560206149186148ad83614869565b82815260059290921b8401810191818101908684111561493757600080fd5b8286015b848110156148ec57803561494e81614846565b835291830191830161493b565b600060c0828403121561496d57600080fd5b60405160c081016001600160401b038111828210171561498f5761498f614792565b8060405250809150823581526020830135602082015260408301356040820152606083013560608201526080830135608082015260a083013560a08201525092915050565b801515811461485b57600080fd5b6000602082840312156149f457600080fd5b604051602081016001600160401b0381118282101715614a1657614a16614792565b6040529050808235614a27816149d4565b905292915050565b6000610100808385031215614a4357600080fd5b614a4b6147a8565b915082356001600160401b0380821115614a6457600080fd5b908401906101208287031215614a7957600080fd5b614a816147d0565b614a8a8361485e565b8152614a986020840161485e565b6020820152614aa96040840161485e565b6040820152614aba6060840161485e565b6060820152614acb6080840161485e565b6080820152614adc60a0840161485e565b60a0820152614aed60c0840161485e565b60c082015260e083013582811115614b0457600080fd5b614b10888286016148f7565b60e0830152508383013582811115614b2757600080fd5b614b33888286016148f7565b858301525080855250505050614b4c836020840161495b565b6020820152614b5e8360e084016149e2565b604082015292915050565b60008060408385031215614b7c57600080fd5b82356001600160401b0380821115614b9357600080fd5b908401906101208287031215614ba857600080fd5b614bb06147d0565b614bb98361485e565b8152614bc76020840161485e565b6020820152614bd86040840161485e565b6040820152614be96060840161485e565b60608201526080830135608082015260a083013582811115614c0a57600080fd5b614c168882860161488c565b60a08301525060c083013582811115614c2e57600080fd5b614c3a8882860161488c565b60c083015250614c4c60e0840161485e565b60e0820152610100808401358183015250809450506020850135915080821115614c7557600080fd5b50614c8285828601614a2f565b9150509250929050565b6001600160a01b03169052565b6001600160a01b0391909116815260200190565b634e487b7160e01b600052601260045260246000fd5b634e487b7160e01b600052601160045260246000fd5b600082614ce857614ce8614cad565b500490565b81810381811115610b5e57610b5e614cc3565b6020808252601b908201527a4d41585f504e4c5f464143544f525f464f525f4445504f5349545360281b604082015260600190565b8082028115828204841417610b5e57610b5e614cc3565b918252602082015260400190565b80820180821115610b5e57610b5e614cc3565b80516001600160a01b03908116835260208083015182169084015260408083015182169084015260609182015116910152565b6001600160a01b038316815260a081016111f86020830184614d6d565b6001600160a01b03881681526101a08101614ddb6020830189614d6d565b865160a083015260209687015160c0830152855160e083015294860151610100820152835161012082015292909401516101408301526101608201529115156101809092019190915292915050565b60006101608284031215614e3d57600080fd5b614e456147f3565b825181526020830151602082015260408301516040820152606083015160608201526080830151608082015260a083015160a082015260c083015160c082015260e083015160e08201526101008084015181830152506101208084015181830152506101408084015181830152508091505092915050565b805182526020810151602083015260408101516040830152606081015160608301526080810151608083015260a081015160a083015260c081015160c083015260e081015160e08301526101008082015181840152506101208082015181840152506101408082015181840152505050565b6001600160a01b0387811682526020820187905260408201869052841660608201526102008101614f636080830185614ebd565b826101e0830152979650505050505050565b600081518084526020808501945080840160005b83811015614fa557815187529582019590820190600101614f89565b509495945050505050565b606081526000614fc36060830186614f75565b8281036020840152614fd58186614f75565b915050826040830152949350505050565b6001600160a01b0392831681529116602082015260400190565b60006080828403121561501257600080fd5b604051608081016001600160401b038111828210171561503457615034614792565b604052825161504281614846565b8152602083015161505281614846565b6020820152604083015161506581614846565b6040820152606083015161507881614846565b60608201529392505050565b60006020828403121561509657600080fd5b5051919050565b6000604082840312156150af57600080fd5b604080519081016001600160401b03811182821017156150d1576150d1614792565b604052825181526020928301519281019290925250919050565b600081518084526020808501945080840160005b83811015614fa557615112878351614d6d565b60809690960195908201906001016150ff565b60208152615137602082018351614c8c565b6000602083015161514b6040840182614c8c565b50604083015161515e6060840182614c8c565b5060608301516151716080840182614c8c565b50608083015160a083015260a083015161518e60c0840182614c8c565b5060c083015160e083015260e083015161018061010081818601526151b76101a08601846150eb565b90860151610120868101919091528601519092506101406151da81870183614c8c565b86015190506101606151ee86820183614c8c565b90950151151593019290925250919050565b6000806040838503121561521357600080fd5b825161521e81614846565b6020939093015192949293505050565b6001600160a01b03831681526040602082018190526000906111f5908301846150eb565b60208082526010908201526f4445504f5349545f4645455f5459504560801b604082015260600190565b6001600160a01b03868116825260208201869052841660408201526101e081016152a96060830185614ebd565b826101c08301529695505050505050565b6000600160ff1b82016152cf576152cf614cc3565b5060000390565b634e487b7160e01b600052603260045260246000fd5b600081518084526020808501945080840160005b83811015614fa55781516001600160a01b031687529582019590820190600101615300565b6000610100825181855261533c8286018251614c8c565b602081015161012061535081880183614c8c565b60408301519150615365610140880183614c8c565b6060830151915061537a610160880183614c8c565b6080830151915061538f610180880183614c8c565b60a083015191506153a46101a0880183614c8c565b60c083015191506153b96101c0880183614c8c565b60e08301519150806101e0880152506153d66102208701826152ec565b9282015186840360ff19016102008801529290506153f481846152ec565b92505050602083015161543f6020860182805182526020810151602083015260408101516040830152606081015160608301526080810151608083015260a081015160a08301525050565b5060408301518051151560e0860152611e8a565b6000815180845260005b818110156154795760208185018101518683018201520161545d565b506000602082860101526020601f19601f83011685010191505092915050565b600081518084526020808501808196508360051b8101915082860160005b858110156155075782840389528151604081518187526154d982880182615453565b915050868201519150858103878701526154f381836152ec565b9a87019a95505050908401906001016154b7565b5091979650505050505050565b60006040808401835182865281815180845260608801915060608160051b89010193506020808401935060005b8281101561558b57898603605f190184528451805188885261556589890182615453565b918401516001600160a01b03169784019790975295509381019392810192600101615541565b50808801519550888503818a0152505050506122e78183615499565b600081518084526020808501808196508360051b810191508286016000805b86811015615639578385038a528251604081518188526155e882890182615453565b92890151888403898b01528051808552908a01938693508a0191505b808310156156245783518252928901926001929092019190890190615604565b509b88019b96505050918501916001016155c6565b509298975050505050505050565b60006040808401835182865281815180845260608801915060608160051b89010193506020808401935060005b828110156156b557898603605f190184528451805188885261569889890182615453565b918401519784019790975295509381019392810192600101615674565b50808801519550888503818a0152505050506122e781836155a7565b60006040808401835182865281815180845260608801915060608160051b89010193506020808401935060005b828110156156b557898603605f190184528451805188885261572289890182615453565b9184015197840197909752955093810193928101926001016156fe565b600081518084526020808501808196508360051b810191508286016000805b86811015615639578385038a5282516040815181885261578082890182615453565b92890151888403898b01528051808552908a01938693508a0191505b808310156157be5783511515825292890192600192909201919089019061579c565b509b88019b965050509185019160010161575e565b60006040808401835182865281815180845260608801915060608160051b89010193506020808401935060005b8281101561584357898603605f190184528451805188885261582489890182615453565b9184015115159784019790975295509381019392810192600101615800565b50808801519550888503818a0152505050506122e7818361573f565b600081518084526020808501808196508360051b810191508286016000805b86811015615639578385038a528251604081518188526158a082890182615453565b92890151888403898b01528051808552908a01938693508a0191505b808310156158dc57835182529289019260019290920191908901906158bc565b509b88019b965050509185019160010161587e565b60006040808401835182865281815180845260608801915060608160051b89010193506020808401935060005b8281101561595f57898603605f190184528451805188885261594289890182615453565b91840151978401979097529550938101939281019260010161591e565b50808801519550888503818a0152505050506122e7818361585f565b600081518084526020808501808196506005915083821b81018387016000805b87811015615a26578484038b528251604081518187526159bd82880182615453565b928a0151878403888c01528051808552908b019392508a83019150808a1b83018b01865b82811015615a0f57601f198583030184526159fd828751615453565b958d0195938d019391506001016159e1565b509e8b019e9750505093880193505060010161599b565b50919998505050505050505050565b60006040808401835182865281815180845260608801915060608160051b89010193506020808401935060005b82811015615ab257898603605f1901845284518051888852615a8689890182615453565b9184015188830389860152919050615a9e8183615453565b975050509381019392810192600101615a62565b50808801519550888503818a0152505050506122e7818361597b565b600081518084526020808501808196506005915083821b81018387016000805b87811015615a26578484038b52825160408151818752615b1082880182615453565b928a0151878403888c01528051808552908b019392508a83019150808a1b83018b01865b82811015615b6257601f19858303018452615b50828751615453565b958d0195938d01939150600101615b34565b509e8b019e97505050938801935050600101615aee565b60006040808401835182865281815180845260608801915060608160051b89010193506020808401935060005b82811015615bf657898603605f1901845284518051888852615bca89890182615453565b9184015188830389860152919050615be28183615453565b975050509381019392810192600101615ba6565b50808801519550888503818a0152505050506122e78183615ace565b838152606060208201526000615c2b6060830185615325565b8281036040840152835160e08252615c4660e0830182615514565b905060208501518282036020840152615c5f8282615647565b91505060408501518282036040840152615c7982826156d1565b91505060608501518282036060840152615c9382826157d3565b91505060808501518282036080840152615cad82826158f1565b91505060a085015182820360a0840152615cc78282615a35565b91505060c085015182820360c08401526128c38282615b79565b8281526040602082015260006111f56040830184615325565b600060208284031215615d0c57600080fd5b8151610b5b816149d4565b600060018201615d2957615d29614cc3565b5060010190565b6001600160a01b03958616815293851660208501529190931660408301526060820192909252608081019190915260a00190565b600082615d7357615d73614cad565b600160ff1b821460001984141615615d8d57615d8d614cc3565b500590565b8181036000831280158383131683831282161715615db257615db2614cc3565b5092915050565b8082018281126000831280158216821582161715615dd957615dd9614cc3565b505092915050565b634e487b7160e01b600052602160045260246000fdfead7c87b11456fab3d69245f95442061bce96cb3c345293507ec8bae59023990fa2646970667358221220048db3f48ad6f6ec08961ef5316ae8b840fa23f0786b4651096cd0d7e16bc12e64736f6c63430008120033",
  "linkReferences": {
    "contracts/deposit/DepositEventUtils.sol": {
      "DepositEventUtils": [
        {
          "length": 20,
          "start": 1863
        }
      ]
    },
    "contracts/deposit/DepositStoreUtils.sol": {
      "DepositStoreUtils": [
        {
          "length": 20,
          "start": 235
        }
      ]
    },
    "contracts/fee/FeeUtils.sol": {
      "FeeUtils": [
        {
          "length": 20,
          "start": 4737
        },
        {
          "length": 20,
          "start": 4921
        }
      ]
    },
    "contracts/gas/GasUtils.sol": {
      "GasUtils": [
        {
          "length": 20,
          "start": 2552
        }
      ]
    },
    "contracts/market/MarketEventUtils.sol": {
      "MarketEventUtils": [
        {
          "length": 20,
          "start": 2249
        },
        {
          "length": 20,
          "start": 6037
        },
        {
          "length": 20,
          "start": 9920
        },
        {
          "length": 20,
          "start": 12457
        },
        {
          "length": 20,
          "start": 12991
        }
      ]
    },
    "contracts/market/MarketStoreUtils.sol": {
      "MarketStoreUtils": [
        {
          "length": 20,
          "start": 2847
        },
        {
          "length": 20,
          "start": 10655
        }
      ]
    },
    "contracts/market/MarketUtils.sol": {
      "MarketUtils": [
        {
          "length": 20,
          "start": 622
        },
        {
          "length": 20,
          "start": 1772
        },
        {
          "length": 20,
          "start": 2044
        },
        {
          "length": 20,
          "start": 4170
        },
        {
          "length": 20,
          "start": 5477
        }
      ]
    },
    "contracts/pricing/SwapPricingUtils.sol": {
      "SwapPricingUtils": [
        {
          "length": 20,
          "start": 5190
        }
      ]
    },
    "contracts/swap/SwapUtils.sol": {
      "SwapUtils": [
        {
          "length": 20,
          "start": 3810
        }
      ]
    }
  },
  "deployedLinkReferences": {
    "contracts/deposit/DepositEventUtils.sol": {
      "DepositEventUtils": [
        {
          "length": 20,
          "start": 1804
        }
      ]
    },
    "contracts/deposit/DepositStoreUtils.sol": {
      "DepositStoreUtils": [
        {
          "length": 20,
          "start": 176
        }
      ]
    },
    "contracts/fee/FeeUtils.sol": {
      "FeeUtils": [
        {
          "length": 20,
          "start": 4678
        },
        {
          "length": 20,
          "start": 4862
        }
      ]
    },
    "contracts/gas/GasUtils.sol": {
      "GasUtils": [
        {
          "length": 20,
          "start": 2493
        }
      ]
    },
    "contracts/market/MarketEventUtils.sol": {
      "MarketEventUtils": [
        {
          "length": 20,
          "start": 2190
        },
        {
          "length": 20,
          "start": 5978
        },
        {
          "length": 20,
          "start": 9861
        },
        {
          "length": 20,
          "start": 12398
        },
        {
          "length": 20,
          "start": 12932
        }
      ]
    },
    "contracts/market/MarketStoreUtils.sol": {
      "MarketStoreUtils": [
        {
          "length": 20,
          "start": 2788
        },
        {
          "length": 20,
          "start": 10596
        }
      ]
    },
    "contracts/market/MarketUtils.sol": {
      "MarketUtils": [
        {
          "length": 20,
          "start": 563
        },
        {
          "length": 20,
          "start": 1713
        },
        {
          "length": 20,
          "start": 1985
        },
        {
          "length": 20,
          "start": 4111
        },
        {
          "length": 20,
          "start": 5418
        }
      ]
    },
    "contracts/pricing/SwapPricingUtils.sol": {
      "SwapPricingUtils": [
        {
          "length": 20,
          "start": 5131
        }
      ]
    },
    "contracts/swap/SwapUtils.sol": {
      "SwapUtils": [
        {
          "length": 20,
          "start": 3751
        }
      ]
    }
  }
}