{
  "_format": "hh-sol-artifact-1",
  "contractName": "ChainlinkAggregator4Supra",
  "sourceName": "contracts/oracle/ChainlinkAggregator4Supra.sol",
  "abi": [
    {
      "inputs": [
        {
          "internalType": "uint8",
          "name": "_decimals",
          "type": "uint8"
        },
        {
          "internalType": "string",
          "name": "_description",
          "type": "string"
        }
      ],
      "stateMutability": "nonpayable",
      "type": "constructor"
    },
    {
      "anonymous": false,
      "inputs": [
        {
          "indexed": true,
          "internalType": "int256",
          "name": "current",
          "type": "int256"
        },
        {
          "indexed": true,
          "internalType": "uint256",
          "name": "roundId",
          "type": "uint256"
        },
        {
          "indexed": false,
          "internalType": "uint256",
          "name": "updatedAt",
          "type": "uint256"
        }
      ],
      "name": "AnswerUpdated",
      "type": "event"
    },
    {
      "anonymous": false,
      "inputs": [
        {
          "indexed": true,
          "internalType": "uint256",
          "name": "roundId",
          "type": "uint256"
        },
        {
          "indexed": true,
          "internalType": "address",
          "name": "startedBy",
          "type": "address"
        },
        {
          "indexed": false,
          "internalType": "uint256",
          "name": "startedAt",
          "type": "uint256"
        }
      ],
      "name": "NewRound",
      "type": "event"
    },
    {
      "anonymous": false,
      "inputs": [
        {
          "indexed": true,
          "internalType": "address",
          "name": "from",
          "type": "address"
        },
        {
          "indexed": true,
          "internalType": "address",
          "name": "to",
          "type": "address"
        }
      ],
      "name": "OwnershipTransferRequested",
      "type": "event"
    },
    {
      "anonymous": false,
      "inputs": [
        {
          "indexed": true,
          "internalType": "address",
          "name": "from",
          "type": "address"
        },
        {
          "indexed": true,
          "internalType": "address",
          "name": "to",
          "type": "address"
        }
      ],
      "name": "OwnershipTransferred",
      "type": "event"
    },
    {
      "inputs": [],
      "name": "acceptOwnership",
      "outputs": [],
      "stateMutability": "nonpayable",
      "type": "function"
    },
    {
      "inputs": [],
      "name": "decimals",
      "outputs": [
        {
          "internalType": "uint8",
          "name": "",
          "type": "uint8"
        }
      ],
      "stateMutability": "view",
      "type": "function"
    },
    {
      "inputs": [],
      "name": "description",
      "outputs": [
        {
          "internalType": "string",
          "name": "",
          "type": "string"
        }
      ],
      "stateMutability": "view",
      "type": "function"
    },
    {
      "inputs": [
        {
          "internalType": "uint256",
          "name": "_roundId",
          "type": "uint256"
        }
      ],
      "name": "getAnswer",
      "outputs": [
        {
          "internalType": "int256",
          "name": "",
          "type": "int256"
        }
      ],
      "stateMutability": "view",
      "type": "function"
    },
    {
      "inputs": [
        {
          "internalType": "uint80",
          "name": "_roundId",
          "type": "uint80"
        }
      ],
      "name": "getRoundData",
      "outputs": [
        {
          "internalType": "uint80",
          "name": "roundId",
          "type": "uint80"
        },
        {
          "internalType": "int256",
          "name": "answer",
          "type": "int256"
        },
        {
          "internalType": "uint256",
          "name": "startedAt",
          "type": "uint256"
        },
        {
          "internalType": "uint256",
          "name": "updatedAt",
          "type": "uint256"
        },
        {
          "internalType": "uint80",
          "name": "answeredInRound",
          "type": "uint80"
        }
      ],
      "stateMutability": "view",
      "type": "function"
    },
    {
      "inputs": [
        {
          "internalType": "uint256",
          "name": "_roundId",
          "type": "uint256"
        }
      ],
      "name": "getTimestamp",
      "outputs": [
        {
          "internalType": "uint256",
          "name": "",
          "type": "uint256"
        }
      ],
      "stateMutability": "view",
      "type": "function"
    },
    {
      "inputs": [],
      "name": "latestAnswer",
      "outputs": [
        {
          "internalType": "int256",
          "name": "",
          "type": "int256"
        }
      ],
      "stateMutability": "view",
      "type": "function"
    },
    {
      "inputs": [],
      "name": "latestAnswerOracle",
      "outputs": [
        {
          "internalType": "int256",
          "name": "",
          "type": "int256"
        }
      ],
      "stateMutability": "view",
      "type": "function"
    },
    {
      "inputs": [],
      "name": "latestRound",
      "outputs": [
        {
          "internalType": "uint256",
          "name": "",
          "type": "uint256"
        }
      ],
      "stateMutability": "view",
      "type": "function"
    },
    {
      "inputs": [],
      "name": "latestRoundData",
      "outputs": [
        {
          "internalType": "uint80",
          "name": "roundId",
          "type": "uint80"
        },
        {
          "internalType": "int256",
          "name": "answer",
          "type": "int256"
        },
        {
          "internalType": "uint256",
          "name": "startedAt",
          "type": "uint256"
        },
        {
          "internalType": "uint256",
          "name": "updatedAt",
          "type": "uint256"
        },
        {
          "internalType": "uint80",
          "name": "answeredInRound",
          "type": "uint80"
        }
      ],
      "stateMutability": "view",
      "type": "function"
    },
    {
      "inputs": [],
      "name": "latestRoundOracle",
      "outputs": [
        {
          "internalType": "uint256",
          "name": "",
          "type": "uint256"
        }
      ],
      "stateMutability": "view",
      "type": "function"
    },
    {
      "inputs": [],
      "name": "latestTimestamp",
      "outputs": [
        {
          "internalType": "uint256",
          "name": "",
          "type": "uint256"
        }
      ],
      "stateMutability": "view",
      "type": "function"
    },
    {
      "inputs": [],
      "name": "latestTimestampOracle",
      "outputs": [
        {
          "internalType": "uint256",
          "name": "",
          "type": "uint256"
        }
      ],
      "stateMutability": "view",
      "type": "function"
    },
    {
      "inputs": [],
      "name": "owner",
      "outputs": [
        {
          "internalType": "address",
          "name": "",
          "type": "address"
        }
      ],
      "stateMutability": "view",
      "type": "function"
    },
    {
      "inputs": [
        {
          "internalType": "address",
          "name": "adapter",
          "type": "address"
        },
        {
          "internalType": "uint64",
          "name": "idx",
          "type": "uint64"
        }
      ],
      "name": "setAdapterInfo",
      "outputs": [],
      "stateMutability": "nonpayable",
      "type": "function"
    },
    {
      "inputs": [
        {
          "internalType": "bool",
          "name": "enabled",
          "type": "bool"
        }
      ],
      "name": "setEnableAdapter",
      "outputs": [],
      "stateMutability": "nonpayable",
      "type": "function"
    },
    {
      "inputs": [
        {
          "internalType": "int192[]",
          "name": "answers",
          "type": "int192[]"
        }
      ],
      "name": "setLatestAnswer",
      "outputs": [],
      "stateMutability": "nonpayable",
      "type": "function"
    },
    {
      "inputs": [
        {
          "internalType": "address",
          "name": "_to",
          "type": "address"
        }
      ],
      "name": "transferOwnership",
      "outputs": [],
      "stateMutability": "nonpayable",
      "type": "function"
    },
    {
      "inputs": [],
      "name": "version",
      "outputs": [
        {
          "internalType": "uint256",
          "name": "",
          "type": "uint256"
        }
      ],
      "stateMutability": "view",
      "type": "function"
    }
  ],
  "bytecode": "0x60a06040523480156200001157600080fd5b50604051620012803803806200128083398101604081905262000034916200008a565b600080546001600160a01b0319163317905560ff821660805260046200005b828262000209565b50506001805463ffffffff60a01b1916905550620002d5565b634e487b7160e01b600052604160045260246000fd5b600080604083850312156200009e57600080fd5b825160ff81168114620000b057600080fd5b602084810151919350906001600160401b0380821115620000d057600080fd5b818601915086601f830112620000e557600080fd5b815181811115620000fa57620000fa62000074565b604051601f8201601f19908116603f0116810190838211818310171562000125576200012562000074565b8160405282815289868487010111156200013e57600080fd5b600093505b8284101562000162578484018601518185018701529285019262000143565b60008684830101528096505050505050509250929050565b600181811c908216806200018f57607f821691505b602082108103620001b057634e487b7160e01b600052602260045260246000fd5b50919050565b601f8211156200020457600081815260208120601f850160051c81016020861015620001df5750805b601f850160051c820191505b818110156200020057828155600101620001eb565b5050505b505050565b81516001600160401b0381111562000225576200022562000074565b6200023d816200023684546200017a565b84620001b6565b602080601f8311600181146200027557600084156200025c5750858301515b600019600386901b1c1916600185901b17855562000200565b600085815260208120601f198616915b82811015620002a65788860151825594840194600190910190840162000285565b5085821015620002c55787850151600019600388901b60f8161c191681555b5050505050600190811b01905550565b608051610f7b620003056000396000818160fb015281816105640152818161075e0152610aa10152610f7b6000f3fe608060405234801561001057600080fd5b50600436106100f15760003560e01c8063313ce567146100f657806350d25bcd1461013457806354fd4d5014610165578063648a587e1461016d578063668a0f02146101825780637284e4161461019757806374d9adda146101ac57806379ba5097146101bf5780638205bf6a146101c75780638da5cb5b146101fb5780638e58c088146102265780639a6fc8f51461022e578063b5ab58dc14610275578063b633620c14610288578063b958d9711461029b578063dd9b2314146102a3578063e1647f2b146102b6578063f2fde38b146102be578063feaf968c146102d1575b600080fd5b61011d7f000000000000000000000000000000000000000000000000000000000000000081565b60405160ff90911681526020015b60405180910390f35b600154600160a01b900463ffffffff1660009081526003602052604090205460170b5b60405190815260200161012b565b610157600481565b61018061017b366004610bd0565b610327565b005b600154600160a01b900463ffffffff16610157565b61019f61038f565b60405161012b9190610c13565b6101806101ba366004610c61565b610421565b610180610469565b600154600160a01b900463ffffffff16600090815260036020526040902054600160c01b90046001600160401b0316610157565b60005461020e906001600160a01b031681565b6040516001600160a01b03909116815260200161012b565b610157610513565b61024161023c366004610c8a565b6105eb565b604080516001600160501b03968716815260208101959095528401929092526060830152909116608082015260a00161012b565b610157610283366004610cb3565b61069c565b610157610296366004610cb3565b6106ce565b61015761070d565b6101806102b1366004610cf4565b610803565b610157610a50565b6101806102cc366004610db8565b610b39565b610241600154600160a01b900463ffffffff16600081815260036020908152604091829020825180840190935254601781900b808452600160c01b9091046001600160401b031692909101829052919281908490565b6000546001600160a01b0316331461035a5760405162461bcd60e51b815260040161035190610dd3565b60405180910390fd5b600280546001600160401b03909216600160a01b026001600160e01b03199092166001600160a01b0390931692909217179055565b60606004805461039e90610e03565b80601f01602080910402602001604051908101604052809291908181526020018280546103ca90610e03565b80156104175780601f106103ec57610100808354040283529160200191610417565b820191906000526020600020905b8154815290600101906020018083116103fa57829003601f168201915b5050505050905090565b6000546001600160a01b0316331461044b5760405162461bcd60e51b815260040161035190610dd3565b60018054911515600160c01b0260ff60c01b19909216919091179055565b6001546001600160a01b031633146104bc5760405162461bcd60e51b815260206004820152601660248201527526bab9ba10313290383937b837b9b2b21037bbb732b960511b6044820152606401610351565b60008054336001600160a01b0319808316821784556001805490911690556040516001600160a01b0390921692909183917f8be0079c531659141344cd1fd0a4f28419497f9722a3daafe3b4186f6b6457e091a350565b600154600090600160c01b900460ff16156105d757600254604051633a8fb6ed60e11b81526000916001600160a01b0381169163751f6dda9161058c91600160a01b9091046001600160401b0316907f000000000000000000000000000000000000000000000000000000000000000090600401610e3d565b608060405180830381865afa1580156105a9573d6000803e3d6000fd5b505050506040513d601f19601f820116820180604052508101906105cd9190610e59565b5091949350505050565b50600154600160a01b900463ffffffff1690565b600080600080600063ffffffff866001600160501b031611156040518060400160405280600f81526020016e139bc819185d18481c1c995cd95b9d608a1b8152509061064a5760405162461bcd60e51b81526004016103519190610c13565b5050505063ffffffff8316600090815260036020908152604091829020825180840190935254601781900b808452600160c01b9091046001600160401b03169290910182905293949092508291508490565b600063ffffffff8211156106b257506000919050565b5063ffffffff1660009081526003602052604090205460170b90565b600063ffffffff8211156106e457506000919050565b5063ffffffff16600090815260036020526040902054600160c01b90046001600160401b031690565b600154600090600160c01b900460ff16156107d057600254604051633a8fb6ed60e11b81526000916001600160a01b0381169163751f6dda9161078691600160a01b9091046001600160401b0316907f000000000000000000000000000000000000000000000000000000000000000090600401610e3d565b608060405180830381865afa1580156107a3573d6000803e3d6000fd5b505050506040513d601f19601f820116820180604052508101906107c79190610e59565b50949350505050565b50600154600160a01b900463ffffffff16600090815260036020526040902054600160c01b90046001600160401b031690565b6000546001600160a01b0316331461082d5760405162461bcd60e51b815260040161035190610dd3565b60018054600160a01b900463ffffffff1690601461084a83610ea5565b91906101000a81548163ffffffff021916908363ffffffff1602179055505060005b6001825161087a9190610ec8565b8110156109205760008261088f836001610ee1565b8151811061089f5761089f610ef4565b602002602001015160170b8383815181106108bc576108bc610ef4565b602002602001015160170b131590508061090d5760405162461bcd60e51b8152602060048201526012602482015271185b9cddd95c9cc81b9bdd081cdbdc9d195960721b6044820152606401610351565b508061091881610f0a565b91505061086c565b50600081600283516109329190610f23565b8151811061094257610942610ef4565b602090810291909101810151604080518082018252601783900b81526001600160401b03428181168387019081526001805463ffffffff600160a01b91829004811660009081526003909a52878a2096519351909516600160c01b026001600160c01b03909316929092179094559254935194965091909204909116917f0109fc6f55cf40689f02fbaad7af7fe7bbac8a3d2186600afc7d3e10cac60271916109ee9190815260200190565b60405180910390a3600160149054906101000a900463ffffffff1663ffffffff168160170b7f0559884fd3a460db3073b7fc896cc77986f16e378210ded43186175bf646fc5f42604051610a4491815260200190565b60405180910390a35050565b600154600090600160c01b900460ff1615610b1357600254604051633a8fb6ed60e11b81526000916001600160a01b0381169163751f6dda91610ac991600160a01b9091046001600160401b0316907f000000000000000000000000000000000000000000000000000000000000000090600401610e3d565b608060405180830381865afa158015610ae6573d6000803e3d6000fd5b505050506040513d601f19601f82011682018060405250810190610b0a9190610e59565b95945050505050565b50600154600160a01b900463ffffffff1660009081526003602052604090205460170b90565b6000546001600160a01b03163314610b635760405162461bcd60e51b815260040161035190610dd3565b600180546001600160a01b0319166001600160a01b0383811691821790925560008054604051929316917fed8889f560326eb138920d842192f0eb3dd22b4f139c87a2c57538e05bae12789190a350565b80356001600160a01b0381168114610bcb57600080fd5b919050565b60008060408385031215610be357600080fd5b610bec83610bb4565b915060208301356001600160401b0381168114610c0857600080fd5b809150509250929050565b600060208083528351808285015260005b81811015610c4057858101830151858201604001528201610c24565b506000604082860101526040601f19601f8301168501019250505092915050565b600060208284031215610c7357600080fd5b81358015158114610c8357600080fd5b9392505050565b600060208284031215610c9c57600080fd5b81356001600160501b0381168114610c8357600080fd5b600060208284031215610cc557600080fd5b5035919050565b634e487b7160e01b600052604160045260246000fd5b8035601781900b8114610bcb57600080fd5b60006020808385031215610d0757600080fd5b82356001600160401b0380821115610d1e57600080fd5b818501915085601f830112610d3257600080fd5b813581811115610d4457610d44610ccc565b8060051b604051601f19603f83011681018181108582111715610d6957610d69610ccc565b604052918252848201925083810185019188831115610d8757600080fd5b938501935b82851015610dac57610d9d85610ce2565b84529385019392850192610d8c565b98975050505050505050565b600060208284031215610dca57600080fd5b610c8382610bb4565b60208082526016908201527527b7363c9031b0b63630b1363290313c9037bbb732b960511b604082015260600190565b600181811c90821680610e1757607f821691505b602082108103610e3757634e487b7160e01b600052602260045260246000fd5b50919050565b6001600160401b0392909216825260ff16602082015260400190565b60008060008060808587031215610e6f57600080fd5b505082516020840151604085015160609095015191969095509092509050565b634e487b7160e01b600052601160045260246000fd5b600063ffffffff808316818103610ebe57610ebe610e8f565b6001019392505050565b81810381811115610edb57610edb610e8f565b92915050565b80820180821115610edb57610edb610e8f565b634e487b7160e01b600052603260045260246000fd5b600060018201610f1c57610f1c610e8f565b5060010190565b600082610f4057634e487b7160e01b600052601260045260246000fd5b50049056fea2646970667358221220892d06fb7e16ca376b1a1ac1001572bc4971e05d9c5041e94a2810087e238fda64736f6c63430008120033",
  "linkReferences": {},
  "deployedLinkReferences": {}
}