{
  "_format": "hh-sol-artifact-1",
  "contractName": "ChainlinkAggregator4Supra_Bak",
  "sourceName": "contracts/oracle/ChainlinkAggregator4Supra_Bak.sol",
  "abi": [
    {
      "inputs": [
        {
          "internalType": "uint8",
          "name": "_decimals",
          "type": "uint8"
        },
        {
          "internalType": "string",
          "name": "_description",
          "type": "string"
        }
      ],
      "stateMutability": "nonpayable",
      "type": "constructor"
    },
    {
      "anonymous": false,
      "inputs": [
        {
          "indexed": true,
          "internalType": "int256",
          "name": "current",
          "type": "int256"
        },
        {
          "indexed": true,
          "internalType": "uint256",
          "name": "roundId",
          "type": "uint256"
        },
        {
          "indexed": false,
          "internalType": "uint256",
          "name": "updatedAt",
          "type": "uint256"
        }
      ],
      "name": "AnswerUpdated",
      "type": "event"
    },
    {
      "anonymous": false,
      "inputs": [
        {
          "indexed": true,
          "internalType": "uint256",
          "name": "roundId",
          "type": "uint256"
        },
        {
          "indexed": true,
          "internalType": "address",
          "name": "startedBy",
          "type": "address"
        },
        {
          "indexed": false,
          "internalType": "uint256",
          "name": "startedAt",
          "type": "uint256"
        }
      ],
      "name": "NewRound",
      "type": "event"
    },
    {
      "anonymous": false,
      "inputs": [
        {
          "indexed": true,
          "internalType": "address",
          "name": "from",
          "type": "address"
        },
        {
          "indexed": true,
          "internalType": "address",
          "name": "to",
          "type": "address"
        }
      ],
      "name": "OwnershipTransferRequested",
      "type": "event"
    },
    {
      "anonymous": false,
      "inputs": [
        {
          "indexed": true,
          "internalType": "address",
          "name": "from",
          "type": "address"
        },
        {
          "indexed": true,
          "internalType": "address",
          "name": "to",
          "type": "address"
        }
      ],
      "name": "OwnershipTransferred",
      "type": "event"
    },
    {
      "inputs": [],
      "name": "acceptOwnership",
      "outputs": [],
      "stateMutability": "nonpayable",
      "type": "function"
    },
    {
      "inputs": [],
      "name": "decimals",
      "outputs": [
        {
          "internalType": "uint8",
          "name": "",
          "type": "uint8"
        }
      ],
      "stateMutability": "view",
      "type": "function"
    },
    {
      "inputs": [],
      "name": "description",
      "outputs": [
        {
          "internalType": "string",
          "name": "",
          "type": "string"
        }
      ],
      "stateMutability": "view",
      "type": "function"
    },
    {
      "inputs": [
        {
          "internalType": "uint256",
          "name": "_roundId",
          "type": "uint256"
        }
      ],
      "name": "getAnswer",
      "outputs": [
        {
          "internalType": "int256",
          "name": "",
          "type": "int256"
        }
      ],
      "stateMutability": "view",
      "type": "function"
    },
    {
      "inputs": [
        {
          "internalType": "uint80",
          "name": "_roundId",
          "type": "uint80"
        }
      ],
      "name": "getRoundData",
      "outputs": [
        {
          "internalType": "uint80",
          "name": "roundId",
          "type": "uint80"
        },
        {
          "internalType": "int256",
          "name": "answer",
          "type": "int256"
        },
        {
          "internalType": "uint256",
          "name": "startedAt",
          "type": "uint256"
        },
        {
          "internalType": "uint256",
          "name": "updatedAt",
          "type": "uint256"
        },
        {
          "internalType": "uint80",
          "name": "answeredInRound",
          "type": "uint80"
        }
      ],
      "stateMutability": "view",
      "type": "function"
    },
    {
      "inputs": [
        {
          "internalType": "uint256",
          "name": "_roundId",
          "type": "uint256"
        }
      ],
      "name": "getTimestamp",
      "outputs": [
        {
          "internalType": "uint256",
          "name": "",
          "type": "uint256"
        }
      ],
      "stateMutability": "view",
      "type": "function"
    },
    {
      "inputs": [],
      "name": "latestAnswer",
      "outputs": [
        {
          "internalType": "int256",
          "name": "",
          "type": "int256"
        }
      ],
      "stateMutability": "view",
      "type": "function"
    },
    {
      "inputs": [],
      "name": "latestRound",
      "outputs": [
        {
          "internalType": "uint256",
          "name": "",
          "type": "uint256"
        }
      ],
      "stateMutability": "view",
      "type": "function"
    },
    {
      "inputs": [],
      "name": "latestRoundData",
      "outputs": [
        {
          "internalType": "uint80",
          "name": "roundId",
          "type": "uint80"
        },
        {
          "internalType": "int256",
          "name": "answer",
          "type": "int256"
        },
        {
          "internalType": "uint256",
          "name": "startedAt",
          "type": "uint256"
        },
        {
          "internalType": "uint256",
          "name": "updatedAt",
          "type": "uint256"
        },
        {
          "internalType": "uint80",
          "name": "answeredInRound",
          "type": "uint80"
        }
      ],
      "stateMutability": "view",
      "type": "function"
    },
    {
      "inputs": [],
      "name": "latestTimestamp",
      "outputs": [
        {
          "internalType": "uint256",
          "name": "",
          "type": "uint256"
        }
      ],
      "stateMutability": "view",
      "type": "function"
    },
    {
      "inputs": [],
      "name": "owner",
      "outputs": [
        {
          "internalType": "address",
          "name": "",
          "type": "address"
        }
      ],
      "stateMutability": "view",
      "type": "function"
    },
    {
      "inputs": [
        {
          "internalType": "address",
          "name": "adapter",
          "type": "address"
        },
        {
          "internalType": "uint64",
          "name": "idx",
          "type": "uint64"
        }
      ],
      "name": "setAdapterInfo",
      "outputs": [],
      "stateMutability": "nonpayable",
      "type": "function"
    },
    {
      "inputs": [
        {
          "internalType": "bool",
          "name": "enabled",
          "type": "bool"
        }
      ],
      "name": "setEnableAdapter",
      "outputs": [],
      "stateMutability": "nonpayable",
      "type": "function"
    },
    {
      "inputs": [
        {
          "internalType": "int192[]",
          "name": "answers",
          "type": "int192[]"
        }
      ],
      "name": "setLatestAnswer",
      "outputs": [],
      "stateMutability": "nonpayable",
      "type": "function"
    },
    {
      "inputs": [
        {
          "internalType": "address",
          "name": "_to",
          "type": "address"
        }
      ],
      "name": "transferOwnership",
      "outputs": [],
      "stateMutability": "nonpayable",
      "type": "function"
    },
    {
      "inputs": [],
      "name": "version",
      "outputs": [
        {
          "internalType": "uint256",
          "name": "",
          "type": "uint256"
        }
      ],
      "stateMutability": "view",
      "type": "function"
    }
  ],
  "bytecode": "0x60a06040523480156200001157600080fd5b50604051620013ca380380620013ca83398101604081905262000034916200008a565b600080546001600160a01b0319163317905560ff821660805260046200005b828262000209565b50506001805463ffffffff60a01b1916905550620002d5565b634e487b7160e01b600052604160045260246000fd5b600080604083850312156200009e57600080fd5b825160ff81168114620000b057600080fd5b602084810151919350906001600160401b0380821115620000d057600080fd5b818601915086601f830112620000e557600080fd5b815181811115620000fa57620000fa62000074565b604051601f8201601f19908116603f0116810190838211818310171562000125576200012562000074565b8160405282815289868487010111156200013e57600080fd5b600093505b8284101562000162578484018601518185018701529285019262000143565b60008684830101528096505050505050509250929050565b600181811c908216806200018f57607f821691505b602082108103620001b057634e487b7160e01b600052602260045260246000fd5b50919050565b601f8211156200020457600081815260208120601f850160051c81016020861015620001df5750805b601f850160051c820191505b818110156200020057828155600101620001eb565b5050505b505050565b81516001600160401b0381111562000225576200022562000074565b6200023d816200023684546200017a565b84620001b6565b602080601f8311600181146200027557600084156200025c5750858301515b600019600386901b1c1916600185901b17855562000200565b600085815260208120601f198616915b82811015620002a65788860151825594840194600190910190840162000285565b5085821015620002c55787850151600019600388901b60f8161c191681555b5050505050600190811b01905550565b6080516110b7620003136000396000818160da0152818161029d015281816103ee0152818161064a0152818161074c0152610c0f01526110b76000f3fe608060405234801561001057600080fd5b50600436106100d05760003560e01c8063313ce567146100d557806350d25bcd1461011357806354fd4d5014610129578063648a587e14610131578063668a0f02146101465780637284e4161461014e57806374d9adda1461016357806379ba5097146101765780638205bf6a1461017e5780638da5cb5b146101865780639a6fc8f5146101b1578063b5ab58dc146101f8578063b633620c1461020b578063dd9b23141461021e578063f2fde38b14610231578063feaf968c14610244575b600080fd5b6100fc7f000000000000000000000000000000000000000000000000000000000000000081565b60405160ff90911681526020015b60405180910390f35b61011b61024c565b60405190815260200161010a565b61011b600481565b61014461013f366004610d0c565b610335565b005b61011b61039d565b610156610475565b60405161010a9190610d4f565b610144610171366004610d9d565b610507565b61014461054f565b61011b6105f9565b600054610199906001600160a01b031681565b6040516001600160a01b03909116815260200161010a565b6101c46101bf366004610dc6565b6106ef565b604080516001600160501b03968716815260208101959095528401929092526060830152909116608082015260a00161010a565b61011b610206366004610def565b610879565b61011b610219366004610def565b6108ab565b61014461022c366004610e30565b6108ea565b61014461023f366004610ef4565b610b37565b6101c4610bb2565b600154600090600160c01b900460ff161561030f57600254604051633a8fb6ed60e11b81526000916001600160a01b0381169163751f6dda916102c591600160a01b9091046001600160401b0316907f000000000000000000000000000000000000000000000000000000000000000090600401610f0f565b608060405180830381865afa1580156102e2573d6000803e3d6000fd5b505050506040513d601f19601f820116820180604052508101906103069190610f2b565b95945050505050565b50600154600160a01b900463ffffffff1660009081526003602052604090205460170b90565b6000546001600160a01b031633146103685760405162461bcd60e51b815260040161035f90610f61565b60405180910390fd5b600280546001600160401b03909216600160a01b026001600160e01b03199092166001600160a01b0390931692909217179055565b600154600090600160c01b900460ff161561046157600254604051633a8fb6ed60e11b81526000916001600160a01b0381169163751f6dda9161041691600160a01b9091046001600160401b0316907f000000000000000000000000000000000000000000000000000000000000000090600401610f0f565b608060405180830381865afa158015610433573d6000803e3d6000fd5b505050506040513d601f19601f820116820180604052508101906104579190610f2b565b5091949350505050565b50600154600160a01b900463ffffffff1690565b60606004805461048490610f91565b80601f01602080910402602001604051908101604052809291908181526020018280546104b090610f91565b80156104fd5780601f106104d2576101008083540402835291602001916104fd565b820191906000526020600020905b8154815290600101906020018083116104e057829003601f168201915b5050505050905090565b6000546001600160a01b031633146105315760405162461bcd60e51b815260040161035f90610f61565b60018054911515600160c01b0260ff60c01b19909216919091179055565b6001546001600160a01b031633146105a25760405162461bcd60e51b815260206004820152601660248201527526bab9ba10313290383937b837b9b2b21037bbb732b960511b604482015260640161035f565b60008054336001600160a01b0319808316821784556001805490911690556040516001600160a01b0390921692909183917f8be0079c531659141344cd1fd0a4f28419497f9722a3daafe3b4186f6b6457e091a350565b600154600090600160c01b900460ff16156106bc57600254604051633a8fb6ed60e11b81526000916001600160a01b0381169163751f6dda9161067291600160a01b9091046001600160401b0316907f000000000000000000000000000000000000000000000000000000000000000090600401610f0f565b608060405180830381865afa15801561068f573d6000803e3d6000fd5b505050506040513d601f19601f820116820180604052508101906106b39190610f2b565b50949350505050565b50600154600160a01b900463ffffffff16600090815260036020526040902054600160c01b90046001600160401b031690565b6000806000806000600160189054906101000a900460ff16156107ce57600254604051633a8fb6ed60e11b8152600091829182916001600160a01b0381169163751f6dda9161077491600160a01b9091046001600160401b0316907f000000000000000000000000000000000000000000000000000000000000000090600401610f0f565b608060405180830381865afa158015610791573d6000803e3d6000fd5b505050506040513d601f19601f820116820180604052508101906107b59190610f2b565b929a509198509096508695508894506108709350505050565b60408051808201909152600f81526e139bc819185d18481c1c995cd95b9d608a1b602082015263ffffffff6001600160501b03881611156108225760405162461bcd60e51b815260040161035f9190610d4f565b5050505063ffffffff8316600090815260036020908152604091829020825180840190935254601781900b808452600160c01b9091046001600160401b031692909101829052849350915080835b91939590929450565b600063ffffffff82111561088f57506000919050565b5063ffffffff1660009081526003602052604090205460170b90565b600063ffffffff8211156108c157506000919050565b5063ffffffff16600090815260036020526040902054600160c01b90046001600160401b031690565b6000546001600160a01b031633146109145760405162461bcd60e51b815260040161035f90610f61565b60018054600160a01b900463ffffffff1690601461093183610fe1565b91906101000a81548163ffffffff021916908363ffffffff1602179055505060005b600182516109619190611004565b811015610a075760008261097683600161101d565b8151811061098657610986611030565b602002602001015160170b8383815181106109a3576109a3611030565b602002602001015160170b13159050806109f45760405162461bcd60e51b8152602060048201526012602482015271185b9cddd95c9cc81b9bdd081cdbdc9d195960721b604482015260640161035f565b50806109ff81611046565b915050610953565b5060008160028351610a19919061105f565b81518110610a2957610a29611030565b602090810291909101810151604080518082018252601783900b81526001600160401b03428181168387019081526001805463ffffffff600160a01b91829004811660009081526003909a52878a2096519351909516600160c01b026001600160c01b03909316929092179094559254935194965091909204909116917f0109fc6f55cf40689f02fbaad7af7fe7bbac8a3d2186600afc7d3e10cac6027191610ad59190815260200190565b60405180910390a3600160149054906101000a900463ffffffff1663ffffffff168160170b7f0559884fd3a460db3073b7fc896cc77986f16e378210ded43186175bf646fc5f42604051610b2b91815260200190565b60405180910390a35050565b6000546001600160a01b03163314610b615760405162461bcd60e51b815260040161035f90610f61565b600180546001600160a01b0319166001600160a01b0383811691821790925560008054604051929316917fed8889f560326eb138920d842192f0eb3dd22b4f139c87a2c57538e05bae12789190a350565b6000806000806000600160189054906101000a900460ff1615610c9157600254604051633a8fb6ed60e11b8152600091829182916001600160a01b0381169163751f6dda91610c3791600160a01b9091046001600160401b0316907f000000000000000000000000000000000000000000000000000000000000000090600401610f0f565b608060405180830381865afa158015610c54573d6000803e3d6000fd5b505050506040513d601f19601f82011682018060405250810190610c789190610f2b565b929a50919850909650869550889450610ce99350505050565b5050600154600160a01b900463ffffffff16600081815260036020908152604091829020825180840190935254601781900b808452600160c01b9091046001600160401b031692909101829052919450909250905080835b9091929394565b80356001600160a01b0381168114610d0757600080fd5b919050565b60008060408385031215610d1f57600080fd5b610d2883610cf0565b915060208301356001600160401b0381168114610d4457600080fd5b809150509250929050565b600060208083528351808285015260005b81811015610d7c57858101830151858201604001528201610d60565b506000604082860101526040601f19601f8301168501019250505092915050565b600060208284031215610daf57600080fd5b81358015158114610dbf57600080fd5b9392505050565b600060208284031215610dd857600080fd5b81356001600160501b0381168114610dbf57600080fd5b600060208284031215610e0157600080fd5b5035919050565b634e487b7160e01b600052604160045260246000fd5b8035601781900b8114610d0757600080fd5b60006020808385031215610e4357600080fd5b82356001600160401b0380821115610e5a57600080fd5b818501915085601f830112610e6e57600080fd5b813581811115610e8057610e80610e08565b8060051b604051601f19603f83011681018181108582111715610ea557610ea5610e08565b604052918252848201925083810185019188831115610ec357600080fd5b938501935b82851015610ee857610ed985610e1e565b84529385019392850192610ec8565b98975050505050505050565b600060208284031215610f0657600080fd5b610dbf82610cf0565b6001600160401b0392909216825260ff16602082015260400190565b60008060008060808587031215610f4157600080fd5b505082516020840151604085015160609095015191969095509092509050565b60208082526016908201527527b7363c9031b0b63630b1363290313c9037bbb732b960511b604082015260600190565b600181811c90821680610fa557607f821691505b602082108103610fc557634e487b7160e01b600052602260045260246000fd5b50919050565b634e487b7160e01b600052601160045260246000fd5b600063ffffffff808316818103610ffa57610ffa610fcb565b6001019392505050565b8181038181111561101757611017610fcb565b92915050565b8082018082111561101757611017610fcb565b634e487b7160e01b600052603260045260246000fd5b60006001820161105857611058610fcb565b5060010190565b60008261107c57634e487b7160e01b600052601260045260246000fd5b50049056fea2646970667358221220812ed781d9c7519e1130646833262b8adf0182f4320970fd4a2050a409a658f264736f6c63430008120033",
  "linkReferences": {},
  "deployedLinkReferences": {}
}