{
  "_format": "hh-sol-artifact-1",
  "contractName": "Config",
  "sourceName": "contracts/config/Config.sol",
  "abi": [
    {
      "inputs": [
        {
          "internalType": "contract RoleStore",
          "name": "_roleStore",
          "type": "address"
        },
        {
          "internalType": "contract DataStore",
          "name": "_dataStore",
          "type": "address"
        },
        {
          "internalType": "contract EventEmitter",
          "name": "_eventEmitter",
          "type": "address"
        }
      ],
      "stateMutability": "nonpayable",
      "type": "constructor"
    },
    {
      "inputs": [
        {
          "internalType": "bytes32",
          "name": "baseKey",
          "type": "bytes32"
        }
      ],
      "name": "InvalidBaseKey",
      "type": "error"
    },
    {
      "inputs": [
        {
          "internalType": "uint256",
          "name": "value",
          "type": "uint256"
        }
      ],
      "name": "InvalidClaimableFactor",
      "type": "error"
    },
    {
      "inputs": [
        {
          "internalType": "bytes32",
          "name": "baseKey",
          "type": "bytes32"
        },
        {
          "internalType": "uint256",
          "name": "value",
          "type": "uint256"
        }
      ],
      "name": "InvalidFeeFactor",
      "type": "error"
    },
    {
      "inputs": [
        {
          "internalType": "address",
          "name": "msgSender",
          "type": "address"
        },
        {
          "internalType": "string",
          "name": "role",
          "type": "string"
        }
      ],
      "name": "Unauthorized",
      "type": "error"
    },
    {
      "inputs": [],
      "name": "MAX_FEE_FACTOR",
      "outputs": [
        {
          "internalType": "uint256",
          "name": "",
          "type": "uint256"
        }
      ],
      "stateMutability": "view",
      "type": "function"
    },
    {
      "inputs": [
        {
          "internalType": "bytes32",
          "name": "",
          "type": "bytes32"
        }
      ],
      "name": "allowedBaseKeys",
      "outputs": [
        {
          "internalType": "bool",
          "name": "",
          "type": "bool"
        }
      ],
      "stateMutability": "view",
      "type": "function"
    },
    {
      "inputs": [
        {
          "internalType": "bytes32",
          "name": "",
          "type": "bytes32"
        }
      ],
      "name": "allowedLimitedBaseKeys",
      "outputs": [
        {
          "internalType": "bool",
          "name": "",
          "type": "bool"
        }
      ],
      "stateMutability": "view",
      "type": "function"
    },
    {
      "inputs": [],
      "name": "dataStore",
      "outputs": [
        {
          "internalType": "contract DataStore",
          "name": "",
          "type": "address"
        }
      ],
      "stateMutability": "view",
      "type": "function"
    },
    {
      "inputs": [],
      "name": "eventEmitter",
      "outputs": [
        {
          "internalType": "contract EventEmitter",
          "name": "",
          "type": "address"
        }
      ],
      "stateMutability": "view",
      "type": "function"
    },
    {
      "inputs": [
        {
          "internalType": "bytes[]",
          "name": "data",
          "type": "bytes[]"
        }
      ],
      "name": "multicall",
      "outputs": [
        {
          "internalType": "bytes[]",
          "name": "results",
          "type": "bytes[]"
        }
      ],
      "stateMutability": "nonpayable",
      "type": "function"
    },
    {
      "inputs": [],
      "name": "roleStore",
      "outputs": [
        {
          "internalType": "contract RoleStore",
          "name": "",
          "type": "address"
        }
      ],
      "stateMutability": "view",
      "type": "function"
    },
    {
      "inputs": [
        {
          "internalType": "bytes32",
          "name": "baseKey",
          "type": "bytes32"
        },
        {
          "internalType": "bytes",
          "name": "data",
          "type": "bytes"
        },
        {
          "internalType": "address",
          "name": "value",
          "type": "address"
        }
      ],
      "name": "setAddress",
      "outputs": [],
      "stateMutability": "nonpayable",
      "type": "function"
    },
    {
      "inputs": [
        {
          "internalType": "bytes32",
          "name": "baseKey",
          "type": "bytes32"
        },
        {
          "internalType": "bytes",
          "name": "data",
          "type": "bytes"
        },
        {
          "internalType": "bool",
          "name": "value",
          "type": "bool"
        }
      ],
      "name": "setBool",
      "outputs": [],
      "stateMutability": "nonpayable",
      "type": "function"
    },
    {
      "inputs": [
        {
          "internalType": "bytes32",
          "name": "baseKey",
          "type": "bytes32"
        },
        {
          "internalType": "bytes",
          "name": "data",
          "type": "bytes"
        },
        {
          "internalType": "bytes32",
          "name": "value",
          "type": "bytes32"
        }
      ],
      "name": "setBytes32",
      "outputs": [],
      "stateMutability": "nonpayable",
      "type": "function"
    },
    {
      "inputs": [
        {
          "internalType": "address",
          "name": "market",
          "type": "address"
        },
        {
          "internalType": "address",
          "name": "token",
          "type": "address"
        },
        {
          "internalType": "uint256",
          "name": "timeKey",
          "type": "uint256"
        },
        {
          "internalType": "address",
          "name": "account",
          "type": "address"
        },
        {
          "internalType": "uint256",
          "name": "factor",
          "type": "uint256"
        }
      ],
      "name": "setClaimableCollateralFactorForAccount",
      "outputs": [],
      "stateMutability": "nonpayable",
      "type": "function"
    },
    {
      "inputs": [
        {
          "internalType": "address",
          "name": "market",
          "type": "address"
        },
        {
          "internalType": "address",
          "name": "token",
          "type": "address"
        },
        {
          "internalType": "uint256",
          "name": "timeKey",
          "type": "uint256"
        },
        {
          "internalType": "uint256",
          "name": "factor",
          "type": "uint256"
        }
      ],
      "name": "setClaimableCollateralFactorForTime",
      "outputs": [],
      "stateMutability": "nonpayable",
      "type": "function"
    },
    {
      "inputs": [
        {
          "internalType": "bytes32",
          "name": "baseKey",
          "type": "bytes32"
        },
        {
          "internalType": "bytes",
          "name": "data",
          "type": "bytes"
        },
        {
          "internalType": "int256",
          "name": "value",
          "type": "int256"
        }
      ],
      "name": "setInt",
      "outputs": [],
      "stateMutability": "nonpayable",
      "type": "function"
    },
    {
      "inputs": [
        {
          "internalType": "address",
          "name": "market",
          "type": "address"
        },
        {
          "internalType": "uint256",
          "name": "minPositionImpactPoolAmount",
          "type": "uint256"
        },
        {
          "internalType": "uint256",
          "name": "positionImpactPoolDistributionRate",
          "type": "uint256"
        }
      ],
      "name": "setPositionImpactDistributionRate",
      "outputs": [],
      "stateMutability": "nonpayable",
      "type": "function"
    },
    {
      "inputs": [
        {
          "internalType": "bytes32",
          "name": "baseKey",
          "type": "bytes32"
        },
        {
          "internalType": "bytes",
          "name": "data",
          "type": "bytes"
        },
        {
          "internalType": "uint256",
          "name": "value",
          "type": "uint256"
        }
      ],
      "name": "setUint",
      "outputs": [],
      "stateMutability": "nonpayable",
      "type": "function"
    }
  ],
  "bytecode": "0x60e06040523480156200001157600080fd5b50604051620069fa380380620069fa8339810160408190526200003491620029e6565b60016000556001600160a01b0380841660805282811660a052811660c0526200005c6200006f565b62000066620027f2565b50505062002b33565b6001806000604051602001620000a8906020808252600f908201526e484f4c44494e475f4144445245535360881b604082015260600190565b60405160208183030381529060405280519060200120815260200190815260200160002060006101000a81548160ff02191690831515021790555060018060006040516020016200012a906020808252601e908201527f4d494e5f48414e444c455f455845435554494f4e5f4552524f525f4741530000604082015260600190565b60405160208183030381529060405280519060200120815260200190815260200160002060006101000a81548160ff0219169083151502179055506001806000604051602001620001be9060208082526029908201527f4d494e5f48414e444c455f455845435554494f4e5f4552524f525f4741535f5460408201526813d7d193d495d0549160ba1b606082015260800190565b60405160208183030381529060405280519060200120815260200190815260200160002060006101000a81548160ff02191690831515021790555060018060006040516020016200023e906020808252818101527f4d494e5f4144444954494f4e414c5f4741535f464f525f455845435554494f4e604082015260600190565b60405160208183030381529060405280519060200120815260200190815260200160002060006101000a81548160ff0219169083151502179055506001806000604051602001620002b5906020808252601290820152711254d7d3505492d15517d11254d05093115160721b604082015260600190565b60405160208183030381529060405280519060200120815260200190815260200160002060006101000a81548160ff0219169083151502179055506001806000604051602001620003379060208082526014908201527f4d41585f535741505f504154485f4c454e475448000000000000000000000000604082015260600190565b60405160208183030381529060405280519060200120815260200190815260200160002060006101000a81548160ff0219169083151502179055506001806000604051602001620003b99060208082526016908201527f4d41585f43414c4c4241434b5f4741535f4c494d495400000000000000000000604082015260600190565b60405160208183030381529060405280519060200120815260200190815260200160002060006101000a81548160ff02191690831515021790555060018060006040516020016200043b9060208082526015908201527f4d494e5f504f534954494f4e5f53495a455f5553440000000000000000000000604082015260600190565b60405160208183030381529060405280519060200120815260200190815260200160002060006101000a81548160ff0219169083151502179055506001806000604051602001620004d1906020808252602b908201527f4d41585f504f534954494f4e5f494d504143545f464143544f525f464f525f4c60408201526a49515549444154494f4e5360a81b606082015260800190565b60405160208183030381529060405280519060200120815260200190815260200160002060006101000a81548160ff0219169083151502179055506001806000604051602001620005229062002a3a565b60405160208183030381529060405280519060200120815260200190815260200160002060006101000a81548160ff0219169083151502179055506001806000604051602001620005739062002a63565b60405160208183030381529060405280519060200120815260200190815260200160002060006101000a81548160ff0219169083151502179055506001806000604051602001620005c49062002a9a565b60405160208183030381529060405280519060200120815260200190815260200160002060006101000a81548160ff0219169083151502179055506001806000604051602001620006529060208082526023908201527f4d494e5f4d41524b45545f544f4b454e535f464f525f46495253545f4445504f60408201526214d25560ea1b606082015260800190565b60405160208183030381529060405280519060200120815260200190815260200160002060006101000a81548160ff0219169083151502179055506001806000604051602001620006d4906020808252601f908201527f4352454154455f4445504f5349545f464541545552455f44495341424c454400604082015260600190565b60405160208183030381529060405280519060200120815260200190815260200160002060006101000a81548160ff021916908315150217905550600180600060405160200162000756906020808252601f908201527f43414e43454c5f4445504f5349545f464541545552455f44495341424c454400604082015260600190565b60405160208183030381529060405280519060200120815260200190815260200160002060006101000a81548160ff0219169083151502179055506001806000604051602001620007d6906020808252818101527f455845435554455f4445504f5349545f464541545552455f44495341424c4544604082015260600190565b60405160208183030381529060405280519060200120815260200190815260200160002060006101000a81548160ff0219169083151502179055506001806000604051602001620008639060208082526022908201527f4352454154455f5749544844524157414c5f464541545552455f44495341424c604082015261115160f21b606082015260800190565b60405160208183030381529060405280519060200120815260200190815260200160002060006101000a81548160ff0219169083151502179055506001806000604051602001620008f09060208082526022908201527f43414e43454c5f5749544844524157414c5f464541545552455f44495341424c604082015261115160f21b606082015260800190565b60405160208183030381529060405280519060200120815260200190815260200160002060006101000a81548160ff02191690831515021790555060018060006040516020016200097e9060208082526023908201527f455845435554455f5749544844524157414c5f464541545552455f444953414260408201526213115160ea1b606082015260800190565b60405160208183030381529060405280519060200120815260200190815260200160002060006101000a81548160ff021916908315150217905550600180600060405160200162000a00906020808252601d908201527f4352454154455f4f524445525f464541545552455f44495341424c4544000000604082015260600190565b60405160208183030381529060405280519060200120815260200190815260200160002060006101000a81548160ff021916908315150217905550600180600060405160200162000a82906020808252601e908201527f455845435554455f4f524445525f464541545552455f44495341424c45440000604082015260600190565b60405160208183030381529060405280519060200120815260200190815260200160002060006101000a81548160ff021916908315150217905550600180600060405160200162000b04906020808252601c908201527f455845435554455f41444c5f464541545552455f44495341424c454400000000604082015260600190565b60405160208183030381529060405280519060200120815260200190815260200160002060006101000a81548160ff021916908315150217905550600180600060405160200162000b86906020808252601d908201527f5550444154455f4f524445525f464541545552455f44495341424c4544000000604082015260600190565b60405160208183030381529060405280519060200120815260200190815260200160002060006101000a81548160ff021916908315150217905550600180600060405160200162000c08906020808252601d908201527f43414e43454c5f4f524445525f464541545552455f44495341424c4544000000604082015260600190565b60405160208183030381529060405280519060200120815260200190815260200160002060006101000a81548160ff021916908315150217905550600180600060405160200162000c969060208082526023908201527f434c41494d5f46554e44494e475f464545535f464541545552455f444953414260408201526213115160ea1b606082015260800190565b60405160208183030381529060405280519060200120815260200190815260200160002060006101000a81548160ff021916908315150217905550600180600060405160200162000d229060208082526021908201527f434c41494d5f434f4c4c41544552414c5f464541545552455f44495341424c456040820152601160fa1b606082015260800190565b60405160208183030381529060405280519060200120815260200190815260200160002060006101000a81548160ff021916908315150217905550600180600060405160200162000db59060208082526028908201527f434c41494d5f414646494c494154455f524557415244535f464541545552455f604082015267111254d05093115160c21b606082015260800190565b60405160208183030381529060405280519060200120815260200190815260200160002060006101000a81548160ff021916908315150217905550600180600060405160200162000e37906020808252601e908201527f434c41494d5f55495f464545535f464541545552455f44495341424c45440000604082015260600190565b60405160208183030381529060405280519060200120815260200190815260200160002060006101000a81548160ff021916908315150217905550600180600060405160200162000eb9906020808252601b908201527f5355424143434f554e545f464541545552455f44495341424c45440000000000604082015260600190565b60405160208183030381529060405280519060200120815260200190815260200160002060006101000a81548160ff021916908315150217905550600180600060405160200162000f3b906020808252601e908201527f4d494e5f4f5241434c455f424c4f434b5f434f4e4649524d4154494f4e530000604082015260600190565b60405160208183030381529060405280519060200120815260200190815260200160002060006101000a81548160ff021916908315150217905550600180600060405160200162000fbd9060208082526014908201527f4d41585f4f5241434c455f50524943455f414745000000000000000000000000604082015260600190565b60405160208183030381529060405280519060200120815260200190815260200160002060006101000a81548160ff02191690831515021790555060018060006040516020016200104d9060208082526025908201527f4d41585f4f5241434c455f5245465f50524943455f444556494154494f4e5f4660408201526420a1aa27a960d91b606082015260800190565b60405160208183030381529060405280519060200120815260200190815260200160002060006101000a81548160ff0219169083151502179055506001806000604051602001620010cf906020808252601c908201527f504f534954494f4e5f4645455f52454345495645525f464143544f5200000000604082015260600190565b60405160208183030381529060405280519060200120815260200190815260200160002060006101000a81548160ff0219169083151502179055506001806000604051602001620011519060208082526018908201527f535741505f4645455f52454345495645525f464143544f520000000000000000604082015260600190565b60405160208183030381529060405280519060200120815260200190815260200160002060006101000a81548160ff0219169083151502179055506001806000604051602001620011d3906020808252601d908201527f424f52524f57494e475f4645455f52454345495645525f464143544f52000000604082015260600190565b60405160208183030381529060405280519060200120815260200190815260200160002060006101000a81548160ff0219169083151502179055506001806000604051602001620012249062002ac5565b60405160208183030381529060405280519060200120815260200190815260200160002060006101000a81548160ff0219169083151502179055506001806000604051602001620012b29060208082526023908201527f455354494d415445445f4741535f4645455f4d554c5449504c4945525f4641436040820152622a27a960e91b606082015260800190565b60405160208183030381529060405280519060200120815260200190815260200160002060006101000a81548160ff0219169083151502179055506001806000604051602001620013039062002afc565b60405160208183030381529060405280519060200120815260200190815260200160002060006101000a81548160ff0219169083151502179055506001806000604051602001620013919060208082526023908201527f455845435554494f4e5f4741535f4645455f4d554c5449504c4945525f4641436040820152622a27a960e91b606082015260800190565b60405160208183030381529060405280519060200120815260200190815260200160002060006101000a81548160ff0219169083151502179055506001806000604051602001620014079060208082526011908201527011115413d4d25517d1d054d7d312535255607a1b604082015260600190565b60405160208183030381529060405280519060200120815260200190815260200160002060006101000a81548160ff02191690831515021790555060018060006200145c6200295160201b62001d891760201c565b815260200190815260200160002060006101000a81548160ff0219169083151502179055506001806000604051602001620014c89060208082526015908201527f53494e474c455f535741505f4741535f4c494d49540000000000000000000000604082015260600190565b60405160208183030381529060405280519060200120815260200190815260200160002060006101000a81548160ff02191690831515021790555060018060006040516020016200154a9060208082526018908201527f494e4352454153455f4f524445525f4741535f4c494d49540000000000000000604082015260600190565b60405160208183030381529060405280519060200120815260200190815260200160002060006101000a81548160ff0219169083151502179055506001806000604051602001620015cc9060208082526018908201527f44454352454153455f4f524445525f4741535f4c494d49540000000000000000604082015260600190565b60405160208183030381529060405280519060200120815260200190815260200160002060006101000a81548160ff02191690831515021790555060018060006040516020016200164e9060208082526014908201527f535741505f4f524445525f4741535f4c494d4954000000000000000000000000604082015260600190565b60405160208183030381529060405280519060200120815260200190815260200160002060006101000a81548160ff0219169083151502179055506001806000604051602001620016d09060208082526018908201527f544f4b454e5f5452414e534645525f4741535f4c494d49540000000000000000604082015260600190565b60405160208183030381529060405280519060200120815260200190815260200160002060006101000a81548160ff021916908315150217905550600180600060405160200162001752906020808252601f908201527f4e41544956455f544f4b454e5f5452414e534645525f4741535f4c494d495400604082015260600190565b60405160208183030381529060405280519060200120815260200190815260200160002060006101000a81548160ff0219169083151502179055506001806000604051602001620017d4906020808252601c908201527f524551554553545f45585049524154494f4e5f424c4f434b5f41474500000000604082015260600190565b60405160208183030381529060405280519060200120815260200190815260200160002060006101000a81548160ff0219169083151502179055506001806000604051602001620018569060208082526015908201527f4d494e5f434f4c4c41544552414c5f464143544f520000000000000000000000604082015260600190565b60405160208183030381529060405280519060200120815260200190815260200160002060006101000a81548160ff0219169083151502179055506001806000604051602001620018f39060208082526032908201527f4d494e5f434f4c4c41544552414c5f464143544f525f464f525f4f50454e5f49604082015271272a22a922a9aa2fa6aaa62a24a82624a2a960711b606082015260800190565b60405160208183030381529060405280519060200120815260200190815260200160002060006101000a81548160ff02191690831515021790555060018060006040516020016200196a9060208082526012908201527113525397d0d3d31310551154905317d554d160721b604082015260600190565b60405160208183030381529060405280519060200120815260200190815260200160002060006101000a81548160ff0219169083151502179055506001806000604051602001620019df9060208082526010908201526f1592549515505317d513d2d15397d25160821b604082015260600190565b60405160208183030381529060405280519060200120815260200190815260200160002060006101000a81548160ff021916908315150217905550600180600060405160200162001a55906020808252601190820152701592549515505317d3505492d15517d251607a1b604082015260600190565b60405160208183030381529060405280519060200120815260200190815260200160002060006101000a81548160ff021916908315150217905550600180600060405160200162001ad7906020808252601b908201527f5649525455414c5f494e56454e544f52595f464f525f53574150530000000000604082015260600190565b60405160208183030381529060405280519060200120815260200190815260200160002060006101000a81548160ff021916908315150217905550600180600060405160200162001b59906020808252601f908201527f5649525455414c5f494e56454e544f52595f464f525f504f534954494f4e5300604082015260600190565b60405160208183030381529060405280519060200120815260200190815260200160002060006101000a81548160ff021916908315150217905550600180600060405160200162001bdb9060208082526016908201527f504f534954494f4e5f494d504143545f464143544f5200000000000000000000604082015260600190565b60405160208183030381529060405280519060200120815260200190815260200160002060006101000a81548160ff021916908315150217905550600180600060405160200162001c5d906020808252601f908201527f504f534954494f4e5f494d504143545f4558504f4e454e545f464143544f5200604082015260600190565b60405160208183030381529060405280519060200120815260200190815260200160002060006101000a81548160ff021916908315150217905550600180600060405160200162001cdf906020808252601a908201527f4d41585f504f534954494f4e5f494d504143545f464143544f52000000000000604082015260600190565b60405160208183030381529060405280519060200120815260200190815260200160002060006101000a81548160ff021916908315150217905550600180600060405160200162001d619060208082526013908201527f504f534954494f4e5f4645455f464143544f5200000000000000000000000000604082015260600190565b60405160208183030381529060405280519060200120815260200190815260200160002060006101000a81548160ff021916908315150217905550600180600060405160200162001dd89060208082526012908201527129aba0a82fa4a6a820a1aa2fa320a1aa27a960711b604082015260600190565b60405160208183030381529060405280519060200120815260200190815260200160002060006101000a81548160ff021916908315150217905550600180600060405160200162001e5a906020808252601b908201527f535741505f494d504143545f4558504f4e454e545f464143544f520000000000604082015260600190565b60405160208183030381529060405280519060200120815260200190815260200160002060006101000a81548160ff021916908315150217905550600180600060405160200162001ece906020808252600f908201526e29aba0a82fa322a2afa320a1aa27a960891b604082015260600190565b60405160208183030381529060405280519060200120815260200190815260200160002060006101000a81548160ff021916908315150217905550600180600060405160200162001f449060208082526011908201527026a0ac2faaa4afa322a2afa320a1aa27a960791b604082015260600190565b60405160208183030381529060405280519060200120815260200190815260200160002060006101000a81548160ff021916908315150217905550600180600060405160200162001fb4906020808252600b908201526a4f5241434c455f5459504560a81b604082015260600190565b60405160208183030381529060405280519060200120815260200190815260200160002060006101000a81548160ff021916908315150217905550600180600060405160200162002027906020808252600e908201526d2922a9a2a92b22afa320a1aa27a960911b604082015260600190565b60405160208183030381529060405280519060200120815260200190815260200160002060006101000a81548160ff0219169083151502179055506001806000604051602001620020a9906020808252601c908201527f4f50454e5f494e5445524553545f524553455256455f464143544f5200000000604082015260600190565b60405160208183030381529060405280519060200120815260200190815260200160002060006101000a81548160ff02191690831515021790555060018060006040516020016200211c906020808252600e908201526d26a0ac2fa827262fa320a1aa27a960911b604082015260600190565b60405160208183030381529060405280519060200120815260200190815260200160002060006101000a81548160ff02191690831515021790555060018060006040516020016200219e9060208082526018908201527f4d494e5f504e4c5f464143544f525f41465445525f41444c0000000000000000604082015260600190565b60405160208183030381529060405280519060200120815260200190815260200160002060006101000a81548160ff021916908315150217905550600180600060405160200162002211906020808252600e908201526d232aa72224a723afa320a1aa27a960911b604082015260600190565b60405160208183030381529060405280519060200120815260200190815260200160002060006101000a81548160ff0219169083151502179055506001806000604051602001620022939060208082526017908201527f46554e44494e475f4558504f4e454e545f464143544f52000000000000000000604082015260600190565b60405160208183030381529060405280519060200120815260200190815260200160002060006101000a81548160ff0219169083151502179055506001806000604051602001620023209060208082526022908201527f46554e44494e475f494e4352454153455f464143544f525f5045525f5345434f604082015261139160f21b606082015260800190565b60405160208183030381529060405280519060200120815260200190815260200160002060006101000a81548160ff0219169083151502179055506001806000604051602001620023ad9060208082526022908201527f46554e44494e475f44454352454153455f464143544f525f5045525f5345434f604082015261139160f21b606082015260800190565b60405160208183030381529060405280519060200120815260200190815260200160002060006101000a81548160ff02191690831515021790555060018060006040516020016200242f906020808252601d908201527f4d494e5f46554e44494e475f464143544f525f5045525f5345434f4e44000000604082015260600190565b60405160208183030381529060405280519060200120815260200190815260200160002060006101000a81548160ff0219169083151502179055506001806000604051602001620024b1906020808252601d908201527f4d41585f46554e44494e475f464143544f525f5045525f5345434f4e44000000604082015260600190565b60405160208183030381529060405280519060200120815260200190815260200160002060006101000a81548160ff021916908315150217905550600180600060405160200162002533906020808252601c908201527f5448524553484f4c445f464f525f535441424c455f46554e44494e4700000000604082015260600190565b60405160208183030381529060405280519060200120815260200190815260200160002060006101000a81548160ff0219169083151502179055506001806000604051602001620025b5906020808252601e908201527f5448524553484f4c445f464f525f44454352454153455f46554e44494e470000604082015260600190565b60405160208183030381529060405280519060200120815260200190815260200160002060006101000a81548160ff02191690831515021790555060018060006040516020016200262a9060208082526010908201526f2127a92927aba4a723afa320a1aa27a960811b604082015260600190565b60405160208183030381529060405280519060200120815260200190815260200160002060006101000a81548160ff0219169083151502179055506001806000604051602001620026ac9060208082526019908201527f424f52524f57494e475f4558504f4e454e545f464143544f5200000000000000604082015260600190565b60405160208183030381529060405280519060200120815260200190815260200160002060006101000a81548160ff02191690831515021790555060018060006040516020016200273a9060208082526023908201527f534b49505f424f52524f57494e475f4645455f464f525f534d414c4c45525f5360408201526249444560e81b606082015260800190565b60405160208183030381529060405280519060200120815260200190815260200160002060006101000a81548160ff0219169083151502179055506001806000604051602001620027bc906020808252601d908201527f50524943455f464545445f4845415254424541545f4455524154494f4e000000604082015260600190565b60408051808303601f19018152918152815160209283012083529082019290925201600020805460ff1916911515919091179055565b600160026000604051602001620028099062002ac5565b60405160208183030381529060405280519060200120815260200190815260200160002060006101000a81548160ff0219169083151502179055506001600260006040516020016200285b9062002afc565b60405160208183030381529060405280519060200120815260200190815260200160002060006101000a81548160ff021916908315150217905550600160026000604051602001620028ad9062002a3a565b60405160208183030381529060405280519060200120815260200190815260200160002060006101000a81548160ff021916908315150217905550600160026000604051602001620028ff9062002a63565b60405160208183030381529060405280519060200120815260200190815260200160002060006101000a81548160ff021916908315150217905550600160026000604051602001620027bc9062002a9a565b6000604051602001620029959060208082526014908201527f5749544844524157414c5f4741535f4c494d4954000000000000000000000000604082015260600190565b60408051601f198184030181528282528051602091820120908301520160405160208183030381529060405280519060200120905090565b6001600160a01b0381168114620029e357600080fd5b50565b600080600060608486031215620029fc57600080fd5b835162002a0981620029cd565b602085015190935062002a1c81620029cd565b604085015190925062002a2f81620029cd565b809150509250925092565b6020808252600f908201526e13505617d413d3d317d05353d55395608a1b604082015260600190565b6020808252601b908201527f4d41585f504f4f4c5f414d4f554e545f464f525f4445504f5349540000000000604082015260600190565b60208082526011908201527013505617d3d4115397d2539511549154d5607a1b604082015260600190565b6020808252601d908201527f455354494d415445445f4741535f4645455f424153455f414d4f554e54000000604082015260600190565b6020808252601d908201527f455845435554494f4e5f4741535f4645455f424153455f414d4f554e54000000604082015260600190565b60805160a05160c051613db762002c43600039600081816101bb015281816105970152818161085f01528181610c1801528181610e2e0152818161120001528181611555015281816119eb01528181611a7b0152611cf801526000818161018101528181610452015281816106c401528181610ac901528181610cc0015281816110a0015281816114050152818161189801528181611a5301528181611af90152611b93015260008181610142015281816102840152818161033f01528181610904015281816109bf01528181610ed201528181610f8d01528181611239015281816112f4015281816116d30152818161178e01528181611e5601528181611f43015261220d0152613db76000f3fe608060405234801561001057600080fd5b50600436106100c55760003560e01c8063039f2ca6146100ca57806306850ad9146100df57806313a39b5214610117578063160d0ce61461012a5780634a4a7b041461013d578063660d0d671461017c5780636a0a6cca146101a35780639ff78c30146101b6578063a43f85c5146101dd578063aa0179a5146101f0578063ac9650d814610203578063af4937fc14610223578063c830360214610239578063f70f0da21461025c578063ffe478f31461026f575b600080fd5b6100dd6100d8366004612c1f565b610282565b005b6101026100ed366004612c6e565b60016020526000908152604090205460ff1681565b60405190151581526020015b60405180910390f35b6100dd610125366004612c9c565b610611565b6100dd610138366004612cf7565b610902565b6101647f000000000000000000000000000000000000000000000000000000000000000081565b6040516001600160a01b03909116815260200161010e565b6101647f000000000000000000000000000000000000000000000000000000000000000081565b6100dd6101b1366004612d51565b610c4f565b6101647f000000000000000000000000000000000000000000000000000000000000000081565b6100dd6101eb366004612c1f565b610ed0565b6100dd6101fe366004612da5565b611237565b610216610211366004612df4565b61158c565b60405161010e9190612f0d565b61022b6116ab565b60405190815260200161010e565b610102610247366004612c6e565b60026020526000908152604090205460ff1681565b6100dd61026a366004612c1f565b6116d1565b6100dd61027d366004612f27565b611a22565b7f00000000000000000000000000000000000000000000000000000000000000006001600160a01b031663ac4ab3fb336040516020016102c190612f5c565b604051602081830303815290604052805190602001206040518363ffffffff1660e01b81526004016102f4929190612f8b565b602060405180830381865afa158015610311573d6000803e3d6000fd5b505050506040513d601f19601f820116820180604052508101906103359190612fa4565b1580156103f257507f00000000000000000000000000000000000000000000000000000000000000006001600160a01b031663ac4ab3fb3360405160200161037c90612fc1565b604051602081830303815290604052805190602001206040518363ffffffff1660e01b81526004016103af929190612f8b565b602060405180830381865afa1580156103cc573d6000803e3d6000fd5b505050506040513d601f19601f820116820180604052508101906103f09190612fa4565b155b1561041b573360405163a35b150b60e01b81526004016104129190612fe8565b60405180910390fd5b610423611dfb565b61042c83611e54565b60006104388484612047565b6040516309d23b6160e31b81529091506001600160a01b037f00000000000000000000000000000000000000000000000000000000000000001690634e91db0890610489908490869060040161302b565b6020604051808303816000875af11580156104a8573d6000803e3d6000fd5b505050506040513d601f19601f820116820180604052508101906104cc9190613039565b506104d5612a6b565b60808101516104e590600261208a565b604080518082019091526007815266626173654b657960c81b6020820152608082015161051591600090886120ef565b60408051808201909152600581526476616c756560d81b6020820152608082015161054391600190866120ef565b60a0810151610553906001612142565b6040805180820190915260048152636461746160e01b602082015260a082015161058091600090876121a4565b604051630937807960e21b81526001600160a01b037f000000000000000000000000000000000000000000000000000000000000000016906324de01e4906105ce9088908590600401613915565b600060405180830381600087803b1580156105e857600080fd5b505af11580156105fc573d6000803e3d6000fd5b50505050505061060c6001600055565b505050565b61066460405160200161062390612fc1565b604051602081830303815290604052805190602001206040518060400160405280600d81526020016c21a7a72324a3afa5a2a2a822a960991b8152506121f6565b61066c611dfb565b68327cb2734119d3b7a9601e1b81111561069c57604051636c2738d360e01b815260048101829052602401610412565b60006106aa868686866122aa565b604051637152429d60e11b81529091506001600160a01b037f0000000000000000000000000000000000000000000000000000000000000000169063e2a4853a906106fb908490869060040161302b565b6020604051808303816000875af115801561071a573d6000803e3d6000fd5b505050506040513d601f19601f8201168201806040525081019061073e9190613039565b50610747612a6b565b805161075490600361208a565b6040805180820190915260068152651b585c9ad95d60d21b60208201528151610780916000908a612322565b6040805180820190915260058152643a37b5b2b760d91b602082015281516107ab9160019089612322565b6040805180820190915260078152661858d8dbdd5b9d60ca1b602082015281516107d89160029087612322565b60208101516107e890600261208a565b61082360006040518060400160405280600781526020016674696d654b657960c81b8152508784602001516120ef909392919063ffffffff16565b61085d6001604051806040016040528060068152602001653330b1ba37b960d11b8152508584602001516120ef909392919063ffffffff16565b7f00000000000000000000000000000000000000000000000000000000000000006001600160a01b03166363d163636108958961237f565b61089e8961237f565b846040518463ffffffff1660e01b81526004016108bd93929190613957565b600060405180830381600087803b1580156108d757600080fd5b505af11580156108eb573d6000803e3d6000fd5b5050505050506108fb6001600055565b5050505050565b7f00000000000000000000000000000000000000000000000000000000000000006001600160a01b031663ac4ab3fb3360405160200161094190612f5c565b604051602081830303815290604052805190602001206040518363ffffffff1660e01b8152600401610974929190612f8b565b602060405180830381865afa158015610991573d6000803e3d6000fd5b505050506040513d601f19601f820116820180604052508101906109b59190612fa4565b158015610a7257507f00000000000000000000000000000000000000000000000000000000000000006001600160a01b031663ac4ab3fb336040516020016109fc90612fc1565b604051602081830303815290604052805190602001206040518363ffffffff1660e01b8152600401610a2f929190612f8b565b602060405180830381865afa158015610a4c573d6000803e3d6000fd5b505050506040513d601f19601f82011682018060405250810190610a709190612fa4565b155b15610a92573360405163a35b150b60e01b81526004016104129190612fe8565b610a9a611dfb565b610aa383611e54565b6000610aaf8484612047565b60405163ca446dd960e01b81529091506001600160a01b037f0000000000000000000000000000000000000000000000000000000000000000169063ca446dd990610b0090849086906004016139b9565b6020604051808303816000875af1158015610b1f573d6000803e3d6000fd5b505050506040513d601f19601f82011682018060405250810190610b4391906139d0565b50610b4c612a6b565b6080810151610b5c90600161208a565b604080518082019091526007815266626173654b657960c81b60208201526080820151610b8c91600090886120ef565b60a0810151610b9c906001612142565b6040805180820190915260048152636461746160e01b602082015260a0820151610bc991600090876121a4565b8051610bd690600161208a565b60408051808201909152600581526476616c756560d81b60208201528151610c019160009086612322565b604051630937807960e21b81526001600160a01b037f000000000000000000000000000000000000000000000000000000000000000016906324de01e4906105ce90889085906004016139ed565b610c6160405160200161062390612fc1565b610c69611dfb565b68327cb2734119d3b7a9601e1b811115610c9957604051636c2738d360e01b815260048101829052602401610412565b6000610ca685858561238b565b604051637152429d60e11b81529091506001600160a01b037f0000000000000000000000000000000000000000000000000000000000000000169063e2a4853a90610cf7908490869060040161302b565b6020604051808303816000875af1158015610d16573d6000803e3d6000fd5b505050506040513d601f19601f82011682018060405250810190610d3a9190613039565b50610d43612a6b565b8051610d5090600261208a565b6040805180820190915260068152651b585c9ad95d60d21b60208201528151610d7c9160009089612322565b6040805180820190915260058152643a37b5b2b760d91b60208201528151610da79160019088612322565b6020810151610db790600261208a565b610df260006040518060400160405280600781526020016674696d654b657960c81b8152508684602001516120ef909392919063ffffffff16565b610e2c6001604051806040016040528060068152602001653330b1ba37b960d11b8152508584602001516120ef909392919063ffffffff16565b7f00000000000000000000000000000000000000000000000000000000000000006001600160a01b03166363d16363610e648861237f565b610e6d8861237f565b846040518463ffffffff1660e01b8152600401610e8c93929190613a27565b600060405180830381600087803b158015610ea657600080fd5b505af1158015610eba573d6000803e3d6000fd5b505050505050610eca6001600055565b50505050565b7f00000000000000000000000000000000000000000000000000000000000000006001600160a01b031663ac4ab3fb33604051602001610f0f90612f5c565b604051602081830303815290604052805190602001206040518363ffffffff1660e01b8152600401610f42929190612f8b565b602060405180830381865afa158015610f5f573d6000803e3d6000fd5b505050506040513d601f19601f82011682018060405250810190610f839190612fa4565b15801561104057507f00000000000000000000000000000000000000000000000000000000000000006001600160a01b031663ac4ab3fb33604051602001610fca90612fc1565b604051602081830303815290604052805190602001206040518363ffffffff1660e01b8152600401610ffd929190612f8b565b602060405180830381865afa15801561101a573d6000803e3d6000fd5b505050506040513d601f19601f8201168201806040525081019061103e9190612fa4565b155b15611060573360405163a35b150b60e01b81526004016104129190612fe8565b611068611dfb565b61107183611e54565b600061107d8484612047565b905061108984836123f3565b604051637152429d60e11b81526001600160a01b037f0000000000000000000000000000000000000000000000000000000000000000169063e2a4853a906110d7908490869060040161302b565b6020604051808303816000875af11580156110f6573d6000803e3d6000fd5b505050506040513d601f19601f8201168201806040525081019061111a9190613039565b50611123612a6b565b608081015161113390600161208a565b604080518082019091526007815266626173654b657960c81b6020820152608082015161116391600090886120ef565b60a0810151611173906001612142565b6040805180820190915260048152636461746160e01b602082015260a08201516111a091600090876121a4565b60208101516111b090600161208a565b6111e960006040518060400160405280600581526020016476616c756560d81b8152508584602001516120ef909392919063ffffffff16565b604051630937807960e21b81526001600160a01b037f000000000000000000000000000000000000000000000000000000000000000016906324de01e4906105ce9088908590600401613a86565b7f00000000000000000000000000000000000000000000000000000000000000006001600160a01b031663ac4ab3fb3360405160200161127690612f5c565b604051602081830303815290604052805190602001206040518363ffffffff1660e01b81526004016112a9929190612f8b565b602060405180830381865afa1580156112c6573d6000803e3d6000fd5b505050506040513d601f19601f820116820180604052508101906112ea9190612fa4565b1580156113a757507f00000000000000000000000000000000000000000000000000000000000000006001600160a01b031663ac4ab3fb3360405160200161133190612fc1565b604051602081830303815290604052805190602001206040518363ffffffff1660e01b8152600401611364929190612f8b565b602060405180830381865afa158015611381573d6000803e3d6000fd5b505050506040513d601f19601f820116820180604052508101906113a59190612fa4565b155b156113c7573360405163a35b150b60e01b81526004016104129190612fe8565b6113cf611dfb565b6113d883611e54565b60006113e48484612047565b60405163abfdcced60e01b81526004810182905283151560248201529091507f00000000000000000000000000000000000000000000000000000000000000006001600160a01b03169063abfdcced906044016020604051808303816000875af1158015611456573d6000803e3d6000fd5b505050506040513d601f19601f8201168201806040525081019061147a9190612fa4565b50611483612a6b565b608081015161149390600161208a565b604080518082019091526007815266626173654b657960c81b602082015260808201516114c391600090886120ef565b60a08101516114d3906001612142565b6040805180820190915260048152636461746160e01b602082015260a082015161150091600090876121a4565b606081015161151090600161208a565b60408051808201909152600581526476616c756560d81b6020820152606082015161153e916000908661286a565b604051630937807960e21b81526001600160a01b037f000000000000000000000000000000000000000000000000000000000000000016906324de01e4906105ce9088908590600401613abd565b6060816001600160401b038111156115a6576115a6612b5c565b6040519080825280602002602001820160405280156115d957816020015b60608152602001906001900390816115c45790505b50905060005b828110156116a357600080308686858181106115fd576115fd613af4565b905060200281019061160f9190613b0a565b60405161161d929190613b57565b600060405180830381855af49150503d8060008114611658576040519150601f19603f3d011682016040523d82523d6000602084013e61165d565b606091505b50915091508161167057611670816128bf565b8084848151811061168357611683613af4565b60200260200101819052505050808061169b90613b7d565b9150506115df565b505b92915050565b60646116c468327cb2734119d3b7a9601e1b6005613b96565b6116ce9190613bad565b81565b7f00000000000000000000000000000000000000000000000000000000000000006001600160a01b031663ac4ab3fb3360405160200161171090612f5c565b604051602081830303815290604052805190602001206040518363ffffffff1660e01b8152600401611743929190612f8b565b602060405180830381865afa158015611760573d6000803e3d6000fd5b505050506040513d601f19601f820116820180604052508101906117849190612fa4565b15801561184157507f00000000000000000000000000000000000000000000000000000000000000006001600160a01b031663ac4ab3fb336040516020016117cb90612fc1565b604051602081830303815290604052805190602001206040518363ffffffff1660e01b81526004016117fe929190612f8b565b602060405180830381865afa15801561181b573d6000803e3d6000fd5b505050506040513d601f19601f8201168201806040525081019061183f9190612fa4565b155b15611861573360405163a35b150b60e01b81526004016104129190612fe8565b611869611dfb565b61187283611e54565b600061187e8484612047565b6040516303e49bed60e41b81529091506001600160a01b037f00000000000000000000000000000000000000000000000000000000000000001690633e49bed0906118cf908490869060040161302b565b6020604051808303816000875af11580156118ee573d6000803e3d6000fd5b505050506040513d601f19601f820116820180604052508101906119129190613039565b5061191b612a6b565b608081015161192b90600161208a565b604080518082019091526007815266626173654b657960c81b6020820152608082015161195b91600090886120ef565b60a081015161196b906001612142565b6040805180820190915260048152636461746160e01b602082015260a082015161199891600090876121a4565b60408101516119a890600161208a565b604080518082018252600581526476616c756560d81b6020820152908201516119d491600090866120ef565b604051630937807960e21b81526001600160a01b037f000000000000000000000000000000000000000000000000000000000000000016906324de01e4906105ce9088908590600401613bcf565b611a3460405160200161062390612fc1565b611a3c611dfb565b60405163c468d13560e01b81526001600160a01b037f0000000000000000000000000000000000000000000000000000000000000000811660048301527f0000000000000000000000000000000000000000000000000000000000000000811660248301528416604482015273__$e53db83827f4e07ebc418caf7145b8c2d5$__9063c468d1359060640160006040518083038186803b158015611adf57600080fd5b505af4158015611af3573d6000803e3d6000fd5b505050507f00000000000000000000000000000000000000000000000000000000000000006001600160a01b031663e2a4853a611b2f856128f8565b846040518363ffffffff1660e01b8152600401611b4d92919061302b565b6020604051808303816000875af1158015611b6c573d6000803e3d6000fd5b505050506040513d601f19601f82011682018060405250810190611b909190613039565b507f00000000000000000000000000000000000000000000000000000000000000006001600160a01b031663e2a4853a611bc985612980565b836040518363ffffffff1660e01b8152600401611be792919061302b565b6020604051808303816000875af1158015611c06573d6000803e3d6000fd5b505050506040513d601f19601f82011682018060405250810190611c2a9190613039565b50611c33612a6b565b8051611c4090600161208a565b6040805180820190915260068152651b585c9ad95d60d21b60208201528151611c6c9160009087612322565b6020810151611c7c90600261208a565b611ccb60006040518060400160405280601b81526020017a1b5a5b941bdcda5d1a5bdb925b5c1858dd141bdbdb105b5bdd5b9d602a1b8152508584602001516120ef909392919063ffffffff16565b611cf66001604051806060016040528060228152602001613d606022913960208401519190856120ef565b7f00000000000000000000000000000000000000000000000000000000000000006001600160a01b03166324de01e4611d2e8661237f565b836040518363ffffffff1660e01b8152600401611d4c929190613c05565b600060405180830381600087803b158015611d6657600080fd5b505af1158015611d7a573d6000803e3d6000fd5b505050505061060c6001600055565b6000604051602001611dc39060208082526014908201527315d2551211149055d05317d1d054d7d31253525560621b604082015260600190565b60408051601f198184030181528282528051602091820120908301520160405160208183030381529060405280519060200120905090565b600260005403611e4d5760405162461bcd60e51b815260206004820152601f60248201527f5265656e7472616e637947756172643a207265656e7472616e742063616c6c006044820152606401610412565b6002600055565b7f00000000000000000000000000000000000000000000000000000000000000006001600160a01b031663ac4ab3fb33604051602001611e9390612fc1565b604051602081830303815290604052805190602001206040518363ffffffff1660e01b8152600401611ec6929190612f8b565b602060405180830381865afa158015611ee3573d6000803e3d6000fd5b505050506040513d601f19601f82011682018060405250810190611f079190612fa4565b15611f415760008181526001602052604090205460ff16611f3e5760405163eb19d3f560e01b815260048101829052602401610412565b50565b7f00000000000000000000000000000000000000000000000000000000000000006001600160a01b031663ac4ab3fb33604051602001611f8090612f5c565b604051602081830303815290604052805190602001206040518363ffffffff1660e01b8152600401611fb3929190612f8b565b602060405180830381865afa158015611fd0573d6000803e3d6000fd5b505050506040513d601f19601f82011682018060405250810190611ff49190612fa4565b1561202b5760008181526002602052604090205460ff16611f3e5760405163eb19d3f560e01b815260048101829052602401610412565b60405163eb19d3f560e01b815260048101829052602401610412565b600081516000036120595750816116a5565b828260405160200161206c929190613c60565b60405160208183030381529060405280519060200120905092915050565b806001600160401b038111156120a2576120a2612b5c565b6040519080825280602002602001820160405280156120e857816020015b6040805180820190915260608152600060208201528152602001906001900390816120c05790505b5090915250565b818460000151848151811061210657612106613af4565b602002602001015160000181905250808460000151848151811061212c5761212c613af4565b6020026020010151602001818152505050505050565b806001600160401b0381111561215a5761215a612b5c565b6040519080825280602002602001820160405280156120e857816020015b604080518082019091526060808252602082015281526020019060019003908161217857505090915250565b81846000015184815181106121bb576121bb613af4565b60200260200101516000018190525080846000015184815181106121e1576121e1613af4565b60200260200101516020018190525050505050565b60405163ac4ab3fb60e01b81526001600160a01b037f0000000000000000000000000000000000000000000000000000000000000000169063ac4ab3fb906122449033908690600401612f8b565b602060405180830381865afa158015612261573d6000803e3d6000fd5b505050506040513d601f19601f820116820180604052508101906122859190612fa4565b6122a657338160405163a35b150b60e01b8152600401610412929190613c86565b5050565b60006040516020016122bb90613caa565b60408051601f198184030181528282528051602091820120908301526001600160a01b0380881691830191909152808616606083015260808201859052831660a082015260c001604051602081830303815290604052805190602001209050949350505050565b818460000151848151811061233957612339613af4565b602002602001015160000181905250808460000151848151811061235f5761235f613af4565b6020908102919091018101516001600160a01b0390921691015250505050565b6001600160a01b031690565b600060405160200161239c90613caa565b60408051808303601f190181528282528051602091820120818401526001600160a01b03968716838301529490951660608201526080808201939093528451808203909301835260a0019093528051910120919050565b604051602001612425906020808252600e908201526d232aa72224a723afa320a1aa27a960911b604082015260600190565b6040516020818303038152906040528051906020012082148061249057506040516020016124779060208082526010908201526f2127a92927aba4a723afa320a1aa27a960811b604082015260600190565b6040516020818303038152906040528051906020012082145b156124dc5760646124ae68327cb2734119d3b7a9601e1b6001613b96565b6124b89190613bad565b8111156124dc578181604051633384d6fd60e21b815260040161041292919061302b565b60405160200161250f906020808252600f908201526e29aba0a82fa322a2afa320a1aa27a960891b604082015260600190565b6040516020818303038152906040528051906020012082148061257d5750604051602001612564906020808252601390820152722827a9a4aa24a7a72fa322a2afa320a1aa27a960691b604082015260600190565b6040516020818303038152906040528051906020012082145b806125d157506040516020016125b89060208082526011908201527026a0ac2faaa4afa322a2afa320a1aa27a960791b604082015260600190565b6040516020818303038152906040528051906020012082145b1561261d5760646125ef68327cb2734119d3b7a9601e1b6005613b96565b6125f99190613bad565b81111561261d578181604051633384d6fd60e21b815260040161041292919061302b565b60405160200161265d906020808252601c908201527b2827a9a4aa24a7a72fa322a2afa922a1a2a4ab22a92fa320a1aa27a960211b604082015260600190565b604051602081830303815290604052805190602001208214806126d057506040516020016126b79060208082526018908201527729aba0a82fa322a2afa922a1a2a4ab22a92fa320a1aa27a960411b604082015260600190565b6040516020818303038152906040528051906020012082145b806127305750604051602001612717906020808252601d908201527f424f52524f57494e475f4645455f52454345495645525f464143544f52000000604082015260600190565b6040516020818303038152906040528051906020012082145b80612788575060405160200161276f9060208082526015908201527426a4a72fa1a7a62620aa22a920a62fa320a1aa27a960591b604082015260600190565b6040516020818303038152906040528051906020012082145b806127d957506040516020016127c0906020808252600e908201526d26a0ac2fa827262fa320a1aa27a960911b604082015260600190565b6040516020818303038152906040528051906020012082145b80612834575060405160200161281b9060208082526018908201527713525397d4139317d19050d513d497d05195115497d0511360421b604082015260600190565b6040516020818303038152906040528051906020012082145b156122a65768327cb2734119d3b7a9601e1b8111156122a6578181604051633384d6fd60e21b815260040161041292919061302b565b818460000151848151811061288157612881613af4565b60200260200101516000018190525080846000015184815181106128a7576128a7613af4565b60209081029190910181015191151591015250505050565b6000806128cb836129d2565b9150915080156128ef578160405162461bcd60e51b81526004016104129190613cdf565b61060c83612a62565b600060405160200161293b906020808252601f908201527f4d494e5f504f534954494f4e5f494d504143545f504f4f4c5f414d4f554e5400604082015260600190565b60405160208183030381529060405280519060200120826040516020016129639291906139b9565b604051602081830303815290604052805190602001209050919050565b600060405160200161293b9060208082526026908201527f504f534954494f4e5f494d504143545f504f4f4c5f444953545249425554494f6040820152654e5f5241544560d01b606082015260800190565b606060006044835110156129f9575050604080516020810190915260008082529092909150565b6000612a06846020015190565b90506307b9e43360e51b6001600160e01b0319821601612a455760048401935083806020019051810190612a3a9190613cf2565b946001945092505050565b600060405180602001604052806000815250909250925050915091565b80518060208301fd5b604080516101208101909152606060e0820181815261010083019190915281908152602001612aad604051806040016040528060608152602001606081525090565b8152602001612acf604051806040016040528060608152602001606081525090565b8152602001612af1604051806040016040528060608152602001606081525090565b8152602001612b13604051806040016040528060608152602001606081525090565b8152602001612b35604051806040016040528060608152602001606081525090565b8152602001612b57604051806040016040528060608152602001606081525090565b905290565b634e487b7160e01b600052604160045260246000fd5b604051601f8201601f191681016001600160401b0381118282101715612b9a57612b9a612b5c565b604052919050565b60006001600160401b03821115612bbb57612bbb612b5c565b50601f01601f191660200190565b600082601f830112612bda57600080fd5b8135612bed612be882612ba2565b612b72565b818152846020838601011115612c0257600080fd5b816020850160208301376000918101602001919091529392505050565b600080600060608486031215612c3457600080fd5b8335925060208401356001600160401b03811115612c5157600080fd5b612c5d86828701612bc9565b925050604084013590509250925092565b600060208284031215612c8057600080fd5b5035919050565b6001600160a01b0381168114611f3e57600080fd5b600080600080600060a08688031215612cb457600080fd5b8535612cbf81612c87565b94506020860135612ccf81612c87565b9350604086013592506060860135612ce681612c87565b949793965091946080013592915050565b600080600060608486031215612d0c57600080fd5b8335925060208401356001600160401b03811115612d2957600080fd5b612d3586828701612bc9565b9250506040840135612d4681612c87565b809150509250925092565b60008060008060808587031215612d6757600080fd5b8435612d7281612c87565b93506020850135612d8281612c87565b93969395505050506040820135916060013590565b8015158114611f3e57600080fd5b600080600060608486031215612dba57600080fd5b8335925060208401356001600160401b03811115612dd757600080fd5b612de386828701612bc9565b9250506040840135612d4681612d97565b60008060208385031215612e0757600080fd5b82356001600160401b0380821115612e1e57600080fd5b818501915085601f830112612e3257600080fd5b813581811115612e4157600080fd5b8660208260051b8501011115612e5657600080fd5b60209290920196919550909350505050565b60005b83811015612e83578181015183820152602001612e6b565b50506000910152565b60008151808452612ea4816020860160208601612e68565b601f01601f19169290920160200192915050565b600081518084526020808501808196508360051b8101915082860160005b85811015612f00578284038952612eee848351612e8c565b98850198935090840190600101612ed6565b5091979650505050505050565b602081526000612f206020830184612eb8565b9392505050565b600080600060608486031215612f3c57600080fd5b8335612f4781612c87565b95602085013595506040909401359392505050565b6020808252601590820152742624a6a4aa22a22fa1a7a72324a3afa5a2a2a822a960591b604082015260600190565b6001600160a01b03929092168252602082015260400190565b600060208284031215612fb657600080fd5b8151612f2081612d97565b6020808252600d908201526c21a7a72324a3afa5a2a2a822a960991b604082015260600190565b6001600160a01b03919091168152604060208201819052601790820152762624a6a4aa22a210179021a7a72324a39025a2a2a822a960491b606082015260800190565b918252602082015260400190565b60006020828403121561304b57600080fd5b5051919050565b600081518084526020808501808196508360051b810191508286016000805b868110156130ed578385038a5282516040815181885261309382890182612e8c565b92890151888403898b01528051808552908a01938693508a0191505b808310156130d85783516001600160a01b031682529289019260019290920191908901906130af565b509b88019b9650505091850191600101613071565b509298975050505050505050565b60006040808401835182865281815180845260608801915060608160051b89010193506020808401935060005b8281101561317257898603605f190184528451805188885261314c89890182612e8c565b918401516001600160a01b03169784019790975295509381019392810192600101613128565b50808801519550888503818a01525050505061318e8183613052565b95945050505050565b600081518084526020808501808196508360051b810191508286016000805b868110156130ed578385038a528251604081518188526131d882890182612e8c565b92890151888403898b01528051808552908a01938693508a0191505b8083101561321457835182529289019260019290920191908901906131f4565b509b88019b96505050918501916001016131b6565b60006040808401835182865281815180845260608801915060608160051b89010193506020808401935060005b8281101561329757898603605f190184528451805188885261327a89890182612e8c565b918401519784019790975295509381019392810192600101613256565b50808801519550888503818a01525050505061318e8183613197565b600081518084526020808501808196508360051b810191508286016000805b868110156130ed578385038a528251604081518188526132f482890182612e8c565b92890151888403898b01528051808552908a01938693508a0191505b808310156133305783518252928901926001929092019190890190613310565b509b88019b96505050918501916001016132d2565b60006040808401835182865281815180845260608801915060608160051b89010193506020808401935060005b828110156133b357898603605f190184528451805188885261339689890182612e8c565b918401519784019790975295509381019392810192600101613372565b50808801519550888503818a01525050505061318e81836132b3565b600081518084526020808501808196508360051b810191508286016000805b868110156130ed578385038a5282516040815181885261341082890182612e8c565b92890151888403898b01528051808552908a01938693508a0191505b8083101561344e5783511515825292890192600192909201919089019061342c565b509b88019b96505050918501916001016133ee565b60006040808401835182865281815180845260608801915060608160051b89010193506020808401935060005b828110156134d357898603605f19018452845180518888526134b489890182612e8c565b9184015115159784019790975295509381019392810192600101613490565b50808801519550888503818a01525050505061318e81836133cf565b600081518084526020808501808196508360051b810191508286016000805b868110156130ed578385038a5282516040815181885261353082890182612e8c565b92890151888403898b01528051808552908a01938693508a0191505b8083101561356c578351825292890192600192909201919089019061354c565b509b88019b965050509185019160010161350e565b60006040808401835182865281815180845260608801915060608160051b89010193506020808401935060005b828110156135ef57898603605f19018452845180518888526135d289890182612e8c565b9184015197840197909752955093810193928101926001016135ae565b50808801519550888503818a01525050505061318e81836134ef565b600081518084526020808501808196508360051b8101915082860160005b85811015612f0057828403895281516040815181875261364b82880182612e8c565b915050868201519150858103878701526136658183612eb8565b9a87019a9550505090840190600101613629565b60006040808401835182865281815180845260608801915060608160051b89010193506020808401935060005b828110156136f657898603605f19018452845180518888526136ca89890182612e8c565b91840151888303898601529190506136e28183612e8c565b9750505093810193928101926001016136a6565b50808801519550888503818a01525050505061318e818361360b565b600081518084526020808501808196506005915083821b81018387016000805b878110156137bd578484038b5282516040815181875261375482880182612e8c565b928a0151878403888c01528051808552908b019392508a83019150808a1b83018b01865b828110156137a657601f19858303018452613794828751612e8c565b958d0195938d01939150600101613778565b509e8b019e97505050938801935050600101613732565b50919998505050505050505050565b60006040808401835182865281815180845260608801915060608160051b89010193506020808401935060005b8281101561384957898603605f190184528451805188885261381d89890182612e8c565b91840151888303898601529190506138358183612e8c565b9750505093810193928101926001016137f9565b50808801519550888503818a01525050505061318e8183613712565b6000815160e0845261387a60e08501826130fb565b9050602083015184820360208601526138938282613229565b915050604083015184820360408601526138ad8282613345565b915050606083015184820360608601526138c78282613463565b915050608083015184820360808601526138e18282613581565b91505060a083015184820360a08601526138fb8282613679565b91505060c083015184820360c086015261318e82826137cc565b60608152600a60608201526929b2ba213cba32b9999960b11b608082015282602082015260a06040820152600061394f60a0830184613865565b949350505050565b60808152602660808201527f536574436c61696d61626c65436f6c6c61746572616c466163746f72466f724160a08201526518d8dbdd5b9d60d21b60c082015283602082015282604082015260e06060820152600061318e60e0830184613865565b9182526001600160a01b0316602082015260400190565b6000602082840312156139e257600080fd5b8151612f2081612c87565b60608152600a6060820152695365744164647265737360b01b608082015282602082015260a06040820152600061394f60a0830184613865565b60808152602360808201527f536574436c61696d61626c65436f6c6c61746572616c466163746f72466f725460a082015262696d6560e81b60c082015283602082015282604082015260e06060820152600061318e60e0830184613865565b60608152600760608201526614d95d155a5b9d60ca1b608082015282602082015260a06040820152600061394f60a0830184613865565b60608152600760608201526614d95d109bdbdb60ca1b608082015282602082015260a06040820152600061394f60a0830184613865565b634e487b7160e01b600052603260045260246000fd5b6000808335601e19843603018112613b2157600080fd5b8301803591506001600160401b03821115613b3b57600080fd5b602001915036819003821315613b5057600080fd5b9250929050565b8183823760009101908152919050565b634e487b7160e01b600052601160045260246000fd5b600060018201613b8f57613b8f613b67565b5060010190565b80820281158282048414176116a5576116a5613b67565b600082613bca57634e487b7160e01b600052601260045260246000fd5b500490565b60608152600660608201526514d95d125b9d60d21b608082015282602082015260a06040820152600061394f60a0830184613865565b60608152602560608201527f536574506f736974696f6e496d70616374506f6f6c446973747269627574696f6080820152646e5261746560d81b60a082015282602082015260c06040820152600061394f60c0830184613865565b82815260008251613c78816020850160208701612e68565b919091016020019392505050565b6001600160a01b038316815260406020820181905260009061394f90830184612e8c565b6020808252601b908201527a21a620a4a6a0a12622afa1a7a62620aa22a920a62fa320a1aa27a960291b604082015260600190565b602081526000612f206020830184612e8c565b600060208284031215613d0457600080fd5b81516001600160401b03811115613d1a57600080fd5b8201601f81018413613d2b57600080fd5b8051613d39612be882612ba2565b818152856020838501011115613d4e57600080fd5b61318e826020830160208601612e6856fe706f736974696f6e496d70616374506f6f6c446973747269627574696f6e52617465a2646970667358221220d51557cb5bf56e66bf4c4c65f4c1459a6f5f0c733670cc99a3c29779f435b9b964736f6c63430008120033",
  "linkReferences": {
    "contracts/market/MarketUtils.sol": {
      "MarketUtils": [
        {
          "length": 20,
          "start": 18157
        }
      ]
    }
  },
  "deployedLinkReferences": {
    "contracts/market/MarketUtils.sol": {
      "MarketUtils": [
        {
          "length": 20,
          "start": 6826
        }
      ]
    }
  }
}