{
  "_format": "hh-sol-artifact-1",
  "contractName": "PythPricer",
  "sourceName": "contracts/pyth/PythPricer.sol",
  "abi": [
    {
      "inputs": [],
      "name": "contractAddress",
      "outputs": [
        {
          "internalType": "address",
          "name": "",
          "type": "address"
        }
      ],
      "stateMutability": "view",
      "type": "function"
    },
    {
      "inputs": [
        {
          "internalType": "bytes32",
          "name": "priceId",
          "type": "bytes32"
        }
      ],
      "name": "getPrice",
      "outputs": [
        {
          "components": [
            {
              "internalType": "int64",
              "name": "price",
              "type": "int64"
            },
            {
              "internalType": "uint64",
              "name": "conf",
              "type": "uint64"
            },
            {
              "internalType": "int32",
              "name": "expo",
              "type": "int32"
            },
            {
              "internalType": "uint256",
              "name": "publishTime",
              "type": "uint256"
            }
          ],
          "internalType": "struct PythStructs.Price",
          "name": "",
          "type": "tuple"
        }
      ],
      "stateMutability": "view",
      "type": "function"
    },
    {
      "inputs": [],
      "name": "getPriceBTC",
      "outputs": [
        {
          "components": [
            {
              "internalType": "int64",
              "name": "price",
              "type": "int64"
            },
            {
              "internalType": "uint64",
              "name": "conf",
              "type": "uint64"
            },
            {
              "internalType": "int32",
              "name": "expo",
              "type": "int32"
            },
            {
              "internalType": "uint256",
              "name": "publishTime",
              "type": "uint256"
            }
          ],
          "internalType": "struct PythStructs.Price",
          "name": "",
          "type": "tuple"
        }
      ],
      "stateMutability": "view",
      "type": "function"
    },
    {
      "inputs": [],
      "name": "getPriceETH",
      "outputs": [
        {
          "components": [
            {
              "internalType": "int64",
              "name": "price",
              "type": "int64"
            },
            {
              "internalType": "uint64",
              "name": "conf",
              "type": "uint64"
            },
            {
              "internalType": "int32",
              "name": "expo",
              "type": "int32"
            },
            {
              "internalType": "uint256",
              "name": "publishTime",
              "type": "uint256"
            }
          ],
          "internalType": "struct PythStructs.Price",
          "name": "",
          "type": "tuple"
        }
      ],
      "stateMutability": "view",
      "type": "function"
    },
    {
      "inputs": [],
      "name": "getPriceUSDC",
      "outputs": [
        {
          "components": [
            {
              "internalType": "int64",
              "name": "price",
              "type": "int64"
            },
            {
              "internalType": "uint64",
              "name": "conf",
              "type": "uint64"
            },
            {
              "internalType": "int32",
              "name": "expo",
              "type": "int32"
            },
            {
              "internalType": "uint256",
              "name": "publishTime",
              "type": "uint256"
            }
          ],
          "internalType": "struct PythStructs.Price",
          "name": "",
          "type": "tuple"
        }
      ],
      "stateMutability": "view",
      "type": "function"
    },
    {
      "inputs": [],
      "name": "getPriceUSDT",
      "outputs": [
        {
          "components": [
            {
              "internalType": "int64",
              "name": "price",
              "type": "int64"
            },
            {
              "internalType": "uint64",
              "name": "conf",
              "type": "uint64"
            },
            {
              "internalType": "int32",
              "name": "expo",
              "type": "int32"
            },
            {
              "internalType": "uint256",
              "name": "publishTime",
              "type": "uint256"
            }
          ],
          "internalType": "struct PythStructs.Price",
          "name": "",
          "type": "tuple"
        }
      ],
      "stateMutability": "view",
      "type": "function"
    }
  ],
  "bytecode": "0x6080604052600080546001600160a01b03191673a2aa501b19aff244d90cc15a4cf739d2725b572917905534801561003657600080fd5b50610479806100466000396000f3fe608060405234801561001057600080fd5b50600436106100625760003560e01c8063039ba6be1461006757806331d98b3f146100ba5780635ba7c62e146100cd578063bcb52863146100d5578063f6b4dfb4146100dd578063fa192be014610108575b600080fd5b61006f610110565b6040516100b19190815160070b81526020808301516001600160401b03169082015260408083015160030b908201526060918201519181019190915260800190565b60405180910390f35b61006f6100c836600461036d565b6101b1565b61006f61022f565b61006f61028c565b6000546100f0906001600160a01b031681565b6040516001600160a01b0390911681526020016100b1565b61006f6102e9565b610118610346565b6000546040516331d98b3f60e01b81527fff61491a931112ddf1bd8147cd1b641375f79f5825126d665480874634fd0ace600482018190526001600160a01b03909216919082906331d98b3f906024015b608060405180830381865afa158015610186573d6000803e3d6000fd5b505050506040513d601f19601f820116820180604052508101906101aa91906103b4565b9250505090565b6101b9610346565b6000546040516331d98b3f60e01b8152600481018490526001600160a01b039091169081906331d98b3f90602401608060405180830381865afa158015610204573d6000803e3d6000fd5b505050506040513d601f19601f8201168201806040525081019061022891906103b4565b9392505050565b610237610346565b6000546040516331d98b3f60e01b81527fe62df6c8b4a85fe1a67db44dc12de5db330f7ac66b72dc658afedf0f4a415b43600482018190526001600160a01b03909216919082906331d98b3f90602401610169565b610294610346565b6000546040516331d98b3f60e01b81527f2b89b9dc8fdf9f34709a5b106b472f0f39bb6ca9ce04b0fd7f2e971688e2e53b600482018190526001600160a01b03909216919082906331d98b3f90602401610169565b6102f1610346565b6000546040516331d98b3f60e01b81527feaa020c61cc479712813461ce153894a96a6c00b21ed0cfc2798d1f9a9e9c94a600482018190526001600160a01b03909216919082906331d98b3f90602401610169565b60408051608081018252600080825260208201819052918101829052606081019190915290565b60006020828403121561037f57600080fd5b5035919050565b80516001600160401b038116811461039d57600080fd5b919050565b8051600381900b811461039d57600080fd5b6000608082840312156103c657600080fd5b604051608081016001600160401b03811182821017156103f657634e487b7160e01b600052604160045260246000fd5b6040528251600781900b811461040b57600080fd5b815261041960208401610386565b602082015261042a604084016103a2565b604082015260608301516060820152809150509291505056fea26469706673582212202708284cf63670f831511829a0f3cf638c3bafa8543157ed95ebd1b7031135d564736f6c63430008120033",
  "linkReferences": {},
  "deployedLinkReferences": {}
}