{
  "_format": "hh-sol-artifact-1",
  "contractName": "AdapterSupra",
  "sourceName": "contracts/oracle/AdapterSupra.sol",
  "abi": [
    {
      "inputs": [
        {
          "internalType": "address",
          "name": "_contractAddress",
          "type": "address"
        }
      ],
      "stateMutability": "nonpayable",
      "type": "constructor"
    },
    {
      "inputs": [
        {
          "internalType": "uint64",
          "name": "_pairIndex",
          "type": "uint64"
        },
        {
          "internalType": "uint8",
          "name": "decimals",
          "type": "uint8"
        }
      ],
      "name": "latestPrices",
      "outputs": [
        {
          "internalType": "uint256",
          "name": "round",
          "type": "uint256"
        },
        {
          "internalType": "uint256",
          "name": "decimal",
          "type": "uint256"
        },
        {
          "internalType": "uint256",
          "name": "timestamp",
          "type": "uint256"
        },
        {
          "internalType": "uint256",
          "name": "price",
          "type": "uint256"
        }
      ],
      "stateMutability": "view",
      "type": "function"
    }
  ],
  "bytecode": "0x608060405234801561001057600080fd5b5060405161057c38038061057c83398101604081905261002f91610054565b600080546001600160a01b0319166001600160a01b0392909216919091179055610084565b60006020828403121561006657600080fd5b81516001600160a01b038116811461007d57600080fd5b9392505050565b6104e9806100936000396000f3fe608060405234801561001057600080fd5b506004361061002b5760003560e01c8063751f6dda14610030575b600080fd5b61004361003e3660046102d6565b610067565b60408051948552602085019390935291830152606082015260800160405180910390f35b60008054604051634c7c9d4b60e11b81526001600160401b038516600482015282918291829182916001600160a01b03909116906398f93a96906024016040805180830381865afa1580156100c0573d6000803e3d6000fd5b505050506040513d601f19601f820116820180604052508101906100e49190610321565b50905060006100f282610143565b8051909150610104906103e890610361565b604082015190965060ff8816955061011f906103e890610361565b6060820151602083015191955061013691896101f7565b9250505092959194509250565b61014b6102b8565b6101536102b8565b6040805160c085901c602082015261017b91015b60405160208183030381529060405261025f565b81526040805160ff60b886901c1660208201526101989101610167565b602080830191909152604080516001600160401b03607887901c16928101929092526101c49101610167565b60408083019190915280516001600160601b03601886901c1660208201526101ec9101610167565b606082015292915050565b6000828260ff16111561022a5761020e8383610383565b61021990600a610486565b610223908561049c565b9350610257565b828260ff1610156102575761023f8284610383565b61024a90600a610486565b6102549085610361565b93505b509192915050565b600081516020146102b05760405162461bcd60e51b8152602060048201526017602482015276313cba32b9903632b733ba341034b9903737ba1019991760491b604482015260640160405180910390fd5b506020015190565b60405180608001604052806004906020820280368337509192915050565b600080604083850312156102e957600080fd5b82356001600160401b038116811461030057600080fd5b9150602083013560ff8116811461031657600080fd5b809150509250929050565b6000806040838503121561033457600080fd5b825191506020830151801515811461031657600080fd5b634e487b7160e01b600052601160045260246000fd5b60008261037e57634e487b7160e01b600052601260045260246000fd5b500490565b60ff828116828216039081111561039c5761039c61034b565b92915050565b600181815b808511156103dd5781600019048211156103c3576103c361034b565b808516156103d057918102915b93841c93908002906103a7565b509250929050565b6000826103f45750600161039c565b816104015750600061039c565b816001811461041757600281146104215761043d565b600191505061039c565b60ff8411156104325761043261034b565b50506001821b61039c565b5060208310610133831016604e8410600b8410161715610460575081810a61039c565b61046a83836103a2565b806000190482111561047e5761047e61034b565b029392505050565b600061049560ff8416836103e5565b9392505050565b808202811582820484141761039c5761039c61034b56fea2646970667358221220a02782abb7bd25dfe4b76031839542d7a84d304c480effcb8881604045de9f8864736f6c63430008120033",
  "linkReferences": {},
  "deployedLinkReferences": {}
}